:1000000000800020BD010000A55D00005D5D0000D6
:100010005D5D00005D5D00005D5D00005D5D0000F8
:100020005D5D00005D5D00005D5D0000A55D0000A0
:10003000A55D00005D5D000085730000897400000F
:10004000A55D0000A55D0000A55D0000A55D0000A8
:10005000A55D0000A55D0000A55D0000A55D000098
:10006000A55D0000A55D0000A55D0000A55D000088
:10007000A55D0000A55D0000A55D0000A55D000078
:10008000A55D0000A55D0000A55D0000A55D000068
:10009000A55D0000A55D0000A55D0000A55D000058
:1000A000A55D0000A55D0000A55D0000A55D000048
:1000B000A55D0000A55D0000A55D0000A55D000038
:1000C000A55D0000A55D0000A55D0000A55D000028
:1000D000A55D0000A55D0000A55D0000A55D000018
:1000E000A55D0000A55D0000A55D0000A55D000008
:1000F000A55D0000A5750000A55D0000D17600009B
:10010000A55D0000FD770000A55D0000A55D000075
:10011000A55D0000A55D0000A55D0000A55D0000D7
:10012000A55D0000A55D0000A55D0000A55D0000C7
:10013000A55D0000A55D0000A55D0000A55D0000B7
:10014000A55D00006D550000A55D0000A55D0000E7
:10015000A55D0000A55D0000A55D0000A55D000097
:10016000A55D0000DD620000A55D0000A55D00004A
:10017000A55D0000A55D0000A55D0000A55D000077
:10018000A55D0000A55D0000A55D0000A55D000067
:10019000A55D0000A55D0000A55D0000A55D000057
:1001A000A55D0000A55D0000A55D0000A55D000047
:1001B000A55D0000A55D00007D590000564B4CF286
:1001C000205210B51A804DF628121A8000BF00BFC9
:1001D00005F0ECFD514B4FF010621A60504A9A60E6
:1001E000504ADA60504A136813F4807304D14F49BF
:1001F0000B604FF4A85313604D4B1A78110703D5C9
:100200001A7842F008021A704A4B4B492A221A7097
:100210004A4A4B4B8B4204D252F8040F43F8040B6A
:10022000F8E7484B484900228B4202D243F8042B9E
:10023000FAE74649464A002352F8230041F82300D2
:1002400001336F2BF8D1434B434A802103F8011B44
:100250009342FBD1414B3D4A1A60414B8A221A70AE
:10026000A3F5805324225A70A0221A709A7992071B
:10027000FCD59A79D406FCD43A4A937903F00C035E
:10028000082B384BF9D105221A7143225A719A79F9
:100290009006FCD5334A9179324B4906FBD5324A58
:1002A0004FF0817111600521516020221A709A79F6
:1002B00002F00C020C2AFAD12C4B2D4A1A602D4B5D
:1002C0002D4A1A6000225A60072243F8042C2B4A58
:1002D000C3F80C2D62B605F0B7FE144B1B68DA07A5
:1002E00005D5274805F010FE264B274A1A60274BF4
:1002F0001B785B0609D5234C234B22689A4204D114
:100300001F4805F001FE0023236009F0A3F905F062
:1003100053FD05F01BFDFEE70E2005403080044034
:10032000823F04000100002B10D0034014D0034092
:1003300002D0074000E00740C4A0FF1FBCA6010098
:100340002097FF1FC8A0FF1FA8C1FF1F0092FF1F1B
:100350000000000000E400E05FE400E008ED00E0E1
:1003600000500640004006404480044004800440A1
:10037000C010050014E000E03F190100000020203B
:10038000313A9E631CE00340A5C3945A00F0074035
:10039000FFFFFFFFFFFFFFFFFFFFFFFFFFFFFFFF6D
:1003A000FFFFFFFFFFFFFFFFFFFFFFFFFFFFFFFF5D
:1003B000FFFFFFFFFFFFFFFFFFFFFFFFFFFFFFFF4D
:1003C000FFFFFFFFFFFFFFFFFFFFFFFFFFFFFFFF3D
:1003D000FFFFFFFFFFFFFFFFFFFFFFFFFFFFFFFF2D
:1003E000FFFFFFFFFFFFFFFFFFFFFFFFFFFFFFFF1D
:1003F000FFFFFFFFFFFFFFFFFFFFFFFFFFFFFFFF0D
:10040000FFFFFFFFFFFFFFFFFFFFFFFFDEF9FFFF23
:1004100010B5054C237833B9044B13B10448AFF33E
:1004200000800123237010BDC8A0FF1F0000000042
:10043000B8A60100084B10B51BB108490848AFF336
:1004400000800848036803B910BD074B002BFBD0A0
:10045000BDE81040184700BF00000000CCA0FF1FFF
:10046000B8A60100C4A0FF1F0000000000207047D4
:10047000F8B51E1E03680446CCBF02EB42050025FA
:100480000F469B68D8BF164698477A192368626062
:100490005B690A4A6661934201D12046F8BD204655
:1004A00098470028F9D0064A064B516893FBF0F0B4
:1004B000884238BF084650602046F8BD6D040000F1
:1004C000E4A0FF1F40420F0070B4104C25686E1C62
:1004D0008D4283B0266016DB0D4D0E492B680093CC
:1004E000009A2D680B680195019D0D60D31A4FF09D
:1004F00000014FF47A7208BF012302FB06F221606B
:10050000B2FBF3F3438003B070BC7047F8A0FF1F49
:10051000B0BEFF1F00A1FF1F2DE9F04F43682D4C17
:1005200083B006468946002B4BD105F019FDF368D0
:1005300020601BB14846B16898478146264B1C682D
:100540000025002C36D07388A77C61686269632B14
:10055000236898BFA574D3F804808DF804508DF8F3
:1005600005508DF80650B9F1000F1CD004F10B03B3
:100570000DF1040E04F10E0C13F801BFBBF1000FD6
:100580000DD093F803A00AF101000BFB0000BAF1B3
:10059000000F04D009FB00F0000C8EF8000063454A
:1005A0000EF1010EE8D1204601ABC047A774A46844
:1005B000002CC8D130461921FFF786FF03B0BDE8F3
:1005C000F08F05F0CDFC22687368801A9842AAD398
:1005D000ABE700BFFCA0FF1FF4A0FF1F0020704787
:1005E000044B0022FF204FF0FF31187099605A80B1
:1005F000DA607047E4A0FF1F00290BDD01EB410129
:1006000001441378037053784370937883700330F8
:100610008842F6D1704700BF70B582B0FF25F02444
:1006200000298DF804208DF806508DF8054010DD66
:1006300001EB41011E4604464518214601A800F081
:100640000BF89DF8042003343244AC428DF80420AA
:10065000F3D102B070BD00BFF0B404784678827860
:10066000E00000F0F80000EB800303EB0313034409
:100670002506C3F307235FD404F0400505F0FF0708
:1006800004F02004002D46D104F0FF00002C6CD0B3
:100690005533DDB2AB243B46FF2E1CD0002E79D063
:1006A0001CB106FB0444C4F307241DB106FB055529
:1006B000C5F307251BB106FB0333C3F30723F04340
:1006C000C0B200FB0000C0F307200444054403440B
:1006D000E4B2EDB2DBB2FF2A18D012FB02F0003216
:1006E00018BF012202EB102212F0FF0256D01CB1FB
:1006F00002FB0444C4F307241DB102FB0555C5F3F6
:1007000007251BB102FB0333C3F307230C704D70A5
:100710008B70F0BC704704F0FF075CBB00EBC004BB
:1007200000EB440000EBC0000412563BC4F1AB04E4
:10073000DDB2E4B23B46AFE704F0400707F0FF0547
:10074000E7B904F0200707F0FF04002F36D100EBD3
:10075000C00300EB430000EBC000C0F30720C0F172
:10076000AB055530EDB2C3B296E7DC43E4B21D46AB
:10077000034691E70024DD43EDB28DE704F0200449
:1007800004F0FF0594B903F15504E4B2C3F1AB03DF
:10079000DBB281E7FF231D461C469CE71546144645
:1007A00013460C704D708B70F0BC7047A3F156046B
:1007B000E4B20025C3F15503DBB26DE7D8431C4614
:1007C000C3B269E7406970474FF4C870704700BF13
:1007D00010B501210446042005F0BCFB4FF4005283
:1007E000014BA261E36110BD00F00F4010B504465B
:1007F00005F06EF8204610BD70B50D480D4C03F0A5
:1008000047FE0D4A0D4B1268064653F8220008F0C9
:10081000DBFA0B490546304608F020FA0146284627
:1008200008F026FB08F000FD80F30800206070BD92
:1008300008BAFF1FB8A2FF1F4CA1FF1FB4A20000FF
:1008400052491D3A2DE9F04F93B0002304688DF80A
:1008500024308DF825308DF826302568AF4E07906E
:10086000B5428DF828300A468DF829308DF82A30A7
:1008700040F01783817C0C9209A801290D928DF814
:100880003E308DF83F308DF840300B9000F0CC8238
:100890008DF83D308DF83C308DF83B308DF83A3096
:1008A0008DF839308DF83830A3699D4900228B428C
:1008B0008DF84120119240F0FC82079C05F050FB1E
:1008C000238CC01A83B2312BF8D996499DF83C008D
:1008D0000B689DF83B209DF941500290924C9DF889
:1008E0003D00019243F080739DF8386003900B9AAD
:1008F00000959DF839A09DF83A909DF83E009DF82E
:100900003F709DF840E0DDF830B00B602168874D06
:10091000874B41F0010121600021296019681968A5
:1009200021F400511960019B14789E1B5FFA86FC2C
:10093000002C40F01A81431C049372B67B4B19685B
:10094000BBF1000F01F15F0140F3BE8090467A1CBD
:10095000059277480EF1010206921F46019ACCEBF0
:10096000020C029ACAEB020A039AC9EB02095FFA67
:100970008CFC5FFA8AFA5FFA89F972B61A688A42C1
:1009800006D91A6840F6C855521AAA4200F2F780F2
:100990000568066845F4005526F400564FF0070E2A
:1009A0001A689142FCD839680560220601F15F019E
:1009B00000F196801A688A1A4D2AFBD86400BEF1AD
:1009C000010E0660E4B2EBD11A689142FCD8396896
:1009D0000560240601F15F0100F18C801A688A1A13
:1009E0004D2AFBD8066098F801403CB184FA5AF4CD
:1009F000059AE4B204FB02F4C4F307244FF0070E97
:100A00001A688A42FCD339680560220601F15F0149
:100A10007AD41A688A1A4D2AFBD86400BEF1010EF6
:100A20000660E4B2ECD11A689142FCD839680560DE
:100A3000240601F15F017DD41A688A1A4D2AFBD879
:100A4000066098F802403CB184FA59F4069AE4B280
:100A500004FB02F4C4F307244FF0070E1A688A421D
:100A6000FCD339680560220601F15F016BD41A6876
:100A70008A1A4D2AFBD86400BEF1010E0660E4B26A
:100A8000ECD11A689142FCD839680560240601F15E
:100A90005F0161D41A688A1A4D2AFBD8009A066051
:100AA00018F802400BF1FF3B3CB184FA5CF4049A65
:100AB000E4B202FB04F4C4F3072462B6009A904443
:100AC000BBF1000F7FF44AAF62B6184B1B68002BD6
:100AD00056D005F045FA079B188413B0BDE8F08F97
:100AE0001A688A1A352A7FF669AF1A688A1A352A6F
:100AF000F6D863E71A688A1A352A7FF673AF1A6840
:100B00008A1A352AF6D86DE71A688A1A352A84D9DE
:100B10001A688A1A352AF7D87FE700BFC50E000089
:100B2000491B0000FCED00E0001000E0041000E0B4
:100B300000F00F401A688A1A352A81D91A688A1A71
:100B4000352AF7D87CE71A688A1A352A93D91A68A1
:100B50008A1A352AF7D88EE71A688A1A352A9DD953
:100B60001A688A1A352AF7D898E784FA5CF4E3B24F
:100B7000411C01FB03F30491C3F30724DDE662B6D5
:100B800062B64FF49663013BFDD172B6A2499DF85F
:100B90003C000B689DF83B209DF9415002909F4C12
:100BA0009DF83D00019243F080739DF838600390FA
:100BB0000B9A00959DF839909DF83AA09DF83E005B
:100BC0009DF83F709DF840E0DDF830B00B60216883
:100BD000934D944B41F00101216000212960196877
:100BE000196821F400511960019B14789E1B5FFA6B
:100BF00086FC002C00F00C8184FA5CF4E3B2411C0A
:100C000001FB03F30491C3F3072472B6844B196804
:100C1000BBF1000F01F15F0140F3BE8090467A1CEA
:100C2000059280480EF1010206921F46019ACCEB14
:100C3000020C029AC9EB0209039ACAEB020A5FFA94
:100C40008CFC5FFA89F95FFA8AFA72B61A688A42EE
:100C500006D91A6840F6C855521AAA4200F22781EE
:100C60000668056846F4005625F400554FF0070E57
:100C70001A688A42FCD339680660220601F15F01D6
:100C800000F18E801A688A1A4D2AFBD86400BEF1E2
:100C9000010E0560E4B2EBD11A689142FCD83968C4
:100CA0000660240601F15F0100F184801A688A1A47
:100CB0004D2AFBD8056098F801403CB184FA59F4FC
:100CC000059AE4B204FB02F4C4F307244FF0070EC4
:100CD0001A688A42FCD339680660220601F15F0176
:100CE00072D41A688A1A4D2AFBD86400BEF1010E2C
:100CF0000560E4B2ECD11A689142FCD8396806600C
:100D0000240601F15F0168D41A688A1A4D2AFBD8BB
:100D1000056098F802403CB184FA5AF4069AE4B2AD
:100D200004FB02F4C4F307244FF0070E1A688A424A
:100D3000FCD339680660220601F15F0156D41A68B7
:100D40008A1A4D2AFBD86400BEF1010E0560E4B298
:100D5000ECD11A689142FCD839680660220601F18C
:100D60005F014CD41A688A1A4D2AFBD8009A056094
:100D700018F802400BF1FF3B3CB184FA5CF4049A92
:100D8000E4B202FB04F4C4F3072462B6009A904470
:100D9000BBF1000F7FF44AAF62B6214B1B6898E6A7
:100DA0001A688A1A352A7FF671AF1A688A1A352AA4
:100DB000F6D86BE71A688A1A352A7FF67BAF1A686D
:100DC0008A1A352AF6D875E71A688A1A352A8CD90C
:100DD0001A688A1A352AF7D887E71A688A1A352ACC
:100DE00096D91A688A1A352AF7D891E71A688A1AA2
:100DF000352AA8D91A688A1A352AF7D8A3E71A68B3
:100E00008A1A352AB2D91A688A1A352AF7D8ADE76C
:100E1000431C0493F9E600BFFCED00E0001000E085
:100E2000041000E000F00F40254B1A78013202F068
:100E3000070212F0010F1A7014BF802300239007DD
:100E400044BF43F04003DBB2510748BF43F02003E7
:100E500010330021DBB20DF13B020DF13E074FF4E0
:100E60008076A9B196FBF1F1C9B2481CC0B200FB73
:100E700003352D121070ECB205B1013C02F8034CA1
:100E800000B111700132BA4208D0D1780029E9D1FD
:100E9000117002F8031C0132BA42F6D1079B1C689C
:100EA00002E50AAB09A9A84713B0BDE8F08F62B606
:100EB0000FE607980BA9984713B0BDE8F08F00BF65
:100EC00008A1FF1F2DE9F04F91B0847C5D78079059
:100ED000012C18789B7809910A920B928DF83600B4
:100EE0008DF837508DF8383000F0CA8200238DF825
:100EF00035308DF834308DF833308DF832308DF850
:100F000031308DF83030079CA94923689B69002255
:100F10008B428DF839200F9240F0EC8205F020F8DA
:100F2000238CC01A83B2312BF8D9A2499DF8340022
:100F30000B689DF833209DF9395002909E4C9DF826
:100F40003500019243F080739DF830600390099A58
:100F500000959DF831A09DF832909DF836009DF8DF
:100F600037709DF838E0DDF828B00B602168934DAC
:100F7000934B41F001012160002129601968196833
:100F800021F400511960019B14789E1B5FFA86FCC6
:100F9000002C40F02182431C049372B6874B1968E1
:100FA000BBF1000F01F15F0140F3BE8090467A1C57
:100FB000059283480EF1010206921F46019ACCEB7E
:100FC000020C029ACAEB020A039AC9EB02095FFA01
:100FD0008CFC5FFA8AFA5FFA89F972B61A68914254
:100FE00006D21A6840F6C855521AAA4200F2EA80A0
:100FF0000568066845F4005526F400564FF0070EC4
:101000001A689142FCD839680560220601F15F0137
:1010100000F196801A688A1A4D2AFBD86400BEF146
:10102000010E0660E4B2EBD11A689142FCD839682F
:101030000560240601F15F0100F18C801A688A1AAC
:101040004D2AFBD8066098F801403CB184FA5AF466
:10105000059AE4B204FB02F4C4F307244FF0070E30
:101060001A688A42FCD339680560220601F15F01E3
:101070007AD41A688A1A4D2AFBD86400BEF1010E90
:101080000660E4B2ECD11A689142FCD83968056078
:10109000240601F15F0170D41A688A1A4D2AFBD820
:1010A000066098F802403CB184FA59F4069AE4B21A
:1010B00004FB02F4C4F307244FF0070E1A688A42B7
:1010C000FCD339680560220601F15F015ED41A681D
:1010D0008A1A4D2AFBD86400BEF1010E0660E4B204
:1010E000ECD11A689142FCD839680560240601F1F8
:1010F0005F0154D41A688A1A4D2AFBD8009A0660F8
:1011000018F802400BF1FF3B3CB184FA5CF4049AFE
:10111000E4B202FB04F4C4F3072462B6009A9044DC
:10112000BBF1000F7FF44AAF62B6244B1B68002B63
:1011300049D004F015FF079B188411B0BDE8F08F6B
:101140001A688A1A352A7FF669AF1A688A1A352A08
:10115000F6D863E71A688A1A352A7FF673AF1A68D9
:101160008A1A352AF6D86DE71A688A1A352A84D978
:101170001A688A1A352AF7D87FE71A688A1A352A30
:101180008ED91A688A1A352AF7D889E71A688A1A0E
:10119000352AA0D91A688A1A352AF7D89BE71A681F
:1011A0008A1A352AAAD91A688A1A352AF7D8A5E7D9
:1011B000491B0000FCED00E0001000E0041000E01E
:1011C00000F00F4062B662B64FF49663013BFDD16A
:1011D00072B6A7499DF834000B689DF833209DF93D
:1011E00039500290A34C9DF83500019243F0807372
:1011F0009DF830600390099A00959DF831A09DF804
:1012000032909DF836009DF837709DF838E0DDF893
:1012100028B00B602168984D984B41F00101216086
:10122000002129601968196821F400511960019B97
:1012300014789E1B5FFA86FC002C40F00F81431C43
:10124000049372B68C4B1968BBF1000F01F15F017A
:1012500040F3BE8090467A1C059288480EF1010248
:1012600006921F46019ACCEB020C029ACAEB020AC4
:10127000039AC9EB02095FFA8CFC5FFA8AFA5FFAFB
:1012800089F972B61A688A4206D91A6840F6C855B2
:10129000521AAA4200F22C810668056846F40056EC
:1012A00025F400554FF0070E1A688A42FCD33968BE
:1012B0000660220601F15F0100F198801A688A1A1F
:1012C0004D2AFBD86400BEF1010E0560E4B2EBD1FB
:1012D0001A689142FCD839680660240601F15F0162
:1012E00000F18E801A688A1A4D2AFBD8056098F89A
:1012F00001403CB184FA5AF4059AE4B204FB02F4CA
:10130000C4F307244FF0070E1A688A42FCD33968E9
:101310000660220601F15F017CD41A688A1A4D2A00
:10132000FBD86400BEF1010E0560E4B2ECD11A688E
:101330009142FCD839680660240601F15F0172D43D
:101340001A688A1A4D2AFBD8056098F802403CB109
:1013500084FA59F4069AE4B204FB02F4C4F30724B5
:101360004FF0070E1A688A42FCD3396806602206DD
:1013700001F15F0160D41A688A1A4D2AFBD8640013
:10138000BEF1010E0560E4B2ECD11A689142FCD8BE
:1013900039680660220601F15F0156D41A688A1A7C
:1013A0004D2AFBD8009A056018F802400BF1FF3B6C
:1013B0003CB184FA5CF4049AE4B202FB04F4C4F392
:1013C000072462B6009A9044BBF1000F7FF44AAF45
:1013D00062B6294B1B68ACE684FA5CF4E3B2411CAC
:1013E00001FB03F30491C3F30724D6E51A688A1AB4
:1013F000352A7FF667AF1A688A1A352AF6D861E768
:101400001A688A1A352A7FF671AF1A688A1A352A3D
:10141000F6D86BE71A688A1A352A82D91A688A1AA6
:10142000352AF7D87DE71A688A1A352A8CD91A68BE
:101430008A1A352AF7D887E71A688A1A352A9ED970
:101440001A688A1A352AF7D899E71A688A1A352A43
:10145000A8D91A688A1A352AF7D8A3E784FA5CF45F
:10146000E3B2411C01FB03F30491C3F30724E8E654
:10147000FCED00E0001000E0041000E000F00F4080
:101480001F4B1A78013202F0070212F0010F1A7096
:1014900014BF80230023940744BF43F04003DBB212
:1014A000510748BF43F020031033DBB20DF1330284
:1014B0000DF136074FF48076B0B196FBF0F1C9B26A
:1014C000481CC0B200FB03352D121070ECB205B100
:1014D000013C02F8034C00B111700132BA423FF4F2
:1014E00012ADD0780028E8D1107002F8030CF4E7B0
:1014F00062B61EE6079809A9984711B0BDE8F08FBB
:1015000008A1FF1F2DE9F04F91B0847C5D78079012
:10151000012C18789B7809910A920B928DF836006D
:101520008DF837508DF8383000F0CC8200238DF8DC
:1015300035308DF834308DF833308DF832308DF809
:1015400031308DF83030079CAA4A23689B6903200C
:10155000002193428DF839000F9140F0ED8204F0A4
:10156000FFFC238CC01A83B2312BF8D9A2499DF815
:1015700034000B689DF833209DF9395002909F4C40
:101580009DF83500019243F080739DF83060039020
:10159000099A00959DF831A09DF832909DF836008B
:1015A0009DF837709DF838E0DDF828B00B602168B1
:1015B000934D944B41F0010121600021296019688D
:1015C000196821F400511960019B14789E1B5FFA81
:1015D00086FC002C40F02282431C049372B6884B98
:1015E0001968BBF1000F01F15F0140F3BE80904626
:1015F0007A1C059283480EF1010206921F46019A59
:10160000CCEB020C029ACAEB020A039AC9EB02095C
:101610005FFA8CFC5FFA8AFA5FFA89F972B61A6887
:101620008A4206D91A6840F6C855521AAA4200F2F0
:10163000EB800568066845F4005526F400564FF027
:10164000070E1A689142FCD839680560220601F13C
:101650005F0100F196801A688A1A4D2AFBD864004F
:10166000BEF1010E0660E4B2EBD11A689142FCD8DB
:1016700039680560240601F15F0100F18C801A6869
:101680008A1A4D2AFBD8066098F801403CB184FACA
:101690005AF4059AE4B204FB02F4C4F307244FF0B1
:1016A000070E1A688A42FCD339680560220601F1E8
:1016B0005F017AD41A688A1A4D2AFBD86400BEF1F9
:1016C000010E0660E4B2ECD11A689142FCD8396888
:1016D0000560240601F15F0170D41A688A1A4D2A48
:1016E000FBD8066098F802403CB184FA59F4069A97
:1016F000E4B204FB02F4C4F307244FF0070E1A68A7
:101700008A42FCD339680560220601F15F015ED48C
:101710001A688A1A4D2AFBD86400BEF1010E0660D1
:10172000E4B2ECD11A689142FCD83968056024060D
:1017300001F15F0154D41A688A1A4D2AFBD8009A25
:10174000066018F802400BF1FF3B3CB184FA5CF4F0
:10175000049AE4B202FB04F4C4F3072462B6009ACC
:101760009044BBF1000F7FF44AAF62B6244B1B6874
:10177000002B4AD004F0F4FB079B188411B0BDE89D
:10178000F08F1A688A1A352A7FF669AF1A688A1AA2
:10179000352AF6D863E71A688A1A352A7FF673AFB6
:1017A0001A688A1A352AF6D86DE71A688A1A352A0D
:1017B00084D91A688A1A352AF7D87FE71A688A1AEC
:1017C000352A8ED91A688A1A352AF7D889E71A680D
:1017D0008A1A352AA0D91A688A1A352AF7D89BE7B7
:1017E0001A688A1A352AAAD91A688A1A352AF7D89D
:1017F000A5E700BF491B0000FCED00E0001000E081
:10180000041000E000F00F4062B662B64FF4966339
:10181000013BFDD172B6A7499DF834000B689DF8D5
:1018200033209DF939500290A34C9DF83500019268
:1018300043F080739DF830600390099A00959DF8FD
:1018400031909DF832A09DF836009DF837709DF8D4
:1018500038E0DDF828B00B602168984D984B41F0D6
:1018600001012160002129601968196821F40051E3
:101870001960019B14789E1B5FFA86FC002C40F0D7
:101880000F81431C049372B68C4B1968BBF1000F97
:1018900001F15F0140F3BE8090467A1C05928848B2
:1018A0000EF1010206921F46019ACCEB020C029A3D
:1018B000C9EB0209039ACAEB020A5FFA8CFC5FFAD1
:1018C00089F95FFA8AFA72B61A68914206D21A68E2
:1018D00040F6C855521AAA4200F22C8106680568E3
:1018E00046F4005625F400554FF0070E1A688A4258
:1018F000FCD339680660220601F15F0100F198808F
:101900001A688A1A4D2AFBD86400BEF1010E0560E0
:10191000E4B2EBD11A689142FCD83968066024061B
:1019200001F15F0100F18E801A688A1A4D2AFBD8F6
:10193000056098F801403CB184FA59F4059AE4B284
:1019400004FB02F4C4F307244FF0070E1A688A421E
:10195000FCD339680660220601F15F017CD41A6865
:101960008A1A4D2AFBD86400BEF1010E0560E4B26C
:10197000ECD11A689142FCD839680660240601F15E
:101980005F0172D41A688A1A4D2AFBD8056098F84C
:1019900002403CB184FA5AF4069AE4B204FB02F421
:1019A000C4F307244FF0070E1A688A42FCD3396843
:1019B0000660220601F15F0160D41A688A1A4D2A76
:1019C000FBD86400BEF1010E0560E4B2ECD11A68E8
:1019D0009142FCD839680660220601F15F0156D4B5
:1019E0001A688A1A4D2AFBD8009A056018F8024036
:1019F0000BF1FF3B3CB184FA5CF4049AE4B202FBC5
:101A000004F4C4F3072462B6009A9044BBF1000FBB
:101A10007FF44AAF62B6294B1B68ABE684FA5CF4EC
:101A2000E3B2411C01FB03F30491C3F30724D5E5A2
:101A30001A688A1A352A7FF667AF1A688A1A352A11
:101A4000F6D861E71A688A1A352A7FF671AF1A68E4
:101A50008A1A352AF6D86BE71A688A1A352A82D983
:101A60001A688A1A352AF7D87DE71A688A1A352A39
:101A70008CD91A688A1A352AF7D887E71A688A1A19
:101A8000352A9ED91A688A1A352AF7D899E71A682A
:101A90008A1A352AA8D91A688A1A352AF7D8A3E7E4
:101AA00084FA5CF4E3B2411C01FB03F30491C3F339
:101AB0000724E8E6FCED00E0001000E0041000E080
:101AC00000F00F401F4B1A78013202F0070212F0AB
:101AD000010F1A7014BF80230023940744BF43F002
:101AE0004003DBB2510748BF43F020031033DBB2A1
:101AF0000DF133020DF136074FF48076B0B196FB4D
:101B0000F0F1C9B2481CC0B200FB03352D121070B1
:101B1000ECB205B1013C02F8034C00B11170013286
:101B2000BA423FF410ADD0780028E8D1107002F826
:101B3000030CF4E762B61DE6079809A9984711B0AF
:101B4000BDE8F08F08A1FF1F2DE9F04F8BB00446D0
:101B50000990059104F004FA238CC01A83B2312B4A
:101B6000F8D9059F9F4A3D7C1368F97B03953C4655
:101B70007D7C94F915C094F814E0059C9A483E7B4E
:101B8000029143F0807397F80D9097F80EA004959A
:101B9000B97C3D68CDF804C0FF7CD4F804B0136074
:101BA0000268924C924B42F00102026000222260D5
:101BB0001A681A6822F400521A60029B2C789E1B45
:101BC0005FFA86FC002C40F05B824B1C069372B6D9
:101BD000864B1968BBF1000F01F15F0140F3BE8035
:101BE0007A1C079282480EF10102A84608921F460D
:101BF000029ACCEB020C039AC9EB0209049ACAEBD5
:101C0000020A5FFA8CFC5FFA89F95FFA8AFA72B607
:101C10001A688A4206D91A6840F6C855521AAA426A
:101C200000F2E8800568066845F4005526F4005681
:101C30004FF0070E1A688A42FCD339680560220605
:101C400001F15F0100F196801A688A1A4D2AFBD8CB
:101C50006400BEF1010E0660E4B2EBD11A68914255
:101C6000FCD839680560240601F15F0100F18C8021
:101C70001A688A1A4D2AFBD8066098F801403CB1D0
:101C800084FA59F4079AE4B204FB02F4C4F307247B
:101C90004FF0070E1A689142FCD839680560220699
:101CA00001F15F017AD41A688A1A4D2AFBD86400C0
:101CB000BEF1010E0660E4B2ECD11A689142FCD884
:101CC00039680560240601F15F0170D41A688A1A28
:101CD0004D2AFBD8066098F802403CB184FA5AF4C9
:101CE000089AE4B204FB02F4C4F307244FF0070E91
:101CF0001A688A42FCD339680560220601F15F0147
:101D00005ED41A688A1A4D2AFBD86400BEF1010E0F
:101D10000660E4B2ECD11A689142FCD839680560DB
:101D2000240601F15F0154D41A688A1A4D2AFBD89F
:101D3000019A066018F802400BF1FF3B3CB184FAAF
:101D40005CF4069AE4B202FB04F4C4F3072462B61E
:101D5000019A9044BBF1000F7FF44AAF62B6234B67
:101D60001B68002B47D004F0FBF8099B18840BB0CC
:101D7000BDE8F08F1A688A1A352A7FF669AF1A68AB
:101D80008A1A352AF6D863E71A688A1A352A7FF63E
:101D900073AF1A688A1A352AF6D86DE71A688A1A54
:101DA000352A84D91A688A1A352AF7D87FE71A683B
:101DB0008A1A352A8ED91A688A1A352AF7D889E7F5
:101DC0001A688A1A352AA0D91A688A1A352AF7D8C1
:101DD0009BE71A688A1A352AAAD91A688A1A352AF4
:101DE000F7D8A5E7FCED00E0001000E0041000E0EB
:101DF00000F00F4062B662B64FF49663013BFDD12E
:101E000072B60598A649057C0B680395457C049538
:101E10000546C27BEF7C95F814E095F915500195C5
:101E2000059DA04C067B029243F08073026890F8F7
:101E30000DA090F80E90D5F804B0807C0B6021685E
:101E4000994D9A4B41F001012160002129601968E8
:101E5000196821F400511960029B14789E1B5FFAE7
:101E600086FC002C00F0168184FA5CF4E3B2411C7D
:101E700001FB03F30591C3F3072472B68A4B19687B
:101E8000BBF1000F01F15F0140F3BE8090467A1C68
:101E9000069286480EF1010207921F46029ACCEB89
:101EA000020C039ACAEB020A049AC9EB02095FFA10
:101EB0008CFC5FFA8AFA5FFA89F972B61A688A426C
:101EC00006D91A6840F6C855521AAA4200F2E580AF
:101ED0000668056846F4005625F400554FF0070ED5
:101EE0001A688A42FCD339680660220601F15F0154
:101EF00000F18E801A688A1A4D2AFBD86400BEF160
:101F0000010E0560E4B2EBD11A689142FCD8396841
:101F10000660240601F15F0100F184801A688A1AC4
:101F20004D2AFBD8056098F801403CB184FA5AF478
:101F3000069AE4B204FB02F4C4F307244FF0070E40
:101F40001A688A42FCD339680660220601F15F01F3
:101F500072D41A688A1A4D2AFBD86400BEF1010EA9
:101F60000560E4B2ECD11A689142FCD83968066089
:101F7000240601F15F0168D41A688A1A4D2AFBD839
:101F8000056098F802403CB184FA59F4079AE4B22B
:101F900004FB02F4C4F307244FF0070E1A688A42C8
:101FA000FCD339680660220601F15F0156D41A6835
:101FB0008A1A4D2AFBD86400BEF1010E0560E4B216
:101FC000ECD11A689142FCD839680660220601F10A
:101FD0005F014CD41A688A1A4D2AFBD8019A056011
:101FE00018F802400BF1FF3B3CB184FA5CF4059A0F
:101FF000E4B202FB04F4C4F3072462B6019A9044ED
:10200000BBF1000F7FF44AAF62B6274B1B68AAE60C
:102010001A688A1A352A7FF671AF1A688A1A352A21
:10202000F6D86BE71A688A1A352A7FF67BAF1A68EA
:102030008A1A352AF6D875E71A688A1A352A8CD989
:102040001A688A1A352AF7D887E71A688A1A352A49
:1020500096D91A688A1A352AF7D891E71A688A1A1F
:10206000352AA8D91A688A1A352AF7D8A3E71A6830
:102070008A1A352AB2D91A688A1A352AF7D8ADE7EA
:1020800084FA5CF4E3B24A1C02FB03F30692C3F346
:1020900007249CE5431C0593EFE662B663E600BFA8
:1020A000FCED00E0001000E0041000E000F00F4044
:1020B00038B5044608460D4607F0E2FD236802469F
:1020C00029465B68204698470546204603F016FDE2
:1020D000284438BD38B5284A284B52F8204053F8D8
:1020E0002030A342054602D91A4623461446B3F5CA
:1020F000007F3ED2224A40F2FF1102EB43028C42A3
:1021000002F1160228BF0C46002032F8021F0133EC
:10211000A3420844F9D906F053FE4FF0625106F08D
:10212000A7FE0446174B53F8250006F04DFE16494E
:1021300006F09EFE0146204606F090FD134B144A21
:102140001968144B044643F8254052F8210006F064
:102150003BFE214606F08CFE0F4B53F8251006F08F
:1021600087FE07F061F80D4B80F3080043F8250067
:1021700038BD0024D6E700BFD8A2000030A100007F
:10218000B4A3FF1FD8A0000017B7D1384CA1FF1F80
:10219000B4A2000074A2FF1F7097FF1F14B8FF1FA6
:1021A00010B5054C2068FFF795FF2168034A044BE2
:1021B00052F821201A6010BD2897FF1F14B8FF1F86
:1021C000B8A2FF1F0A4B1B68072B08DC094A41F223
:1021D0003D43D15C29B10021D154FFF7E1BF082B69
:1021E00000D07047044B9B6A002BFAD0FEF704BB6B
:1021F0002897FF1FB4A3FF1F08BAFF1F10B50024C4
:1022000020460134FFF766FF082CF9D110BD00BF4E
:102210002DE9F04FDFF8A490DFF8A4B0224F83B08F
:102220004FF00008214B59F8045F1C68002C214630
:10223000B8BFE11DC91008FB01F319448C42A8BFC7
:102240000C4623EAE37305EB8505A34208F1010878
:1022500085F308051DDA164A164E03EB430304EB1B
:10226000440402EB030A1444EDB2DBF800108DF8CD
:10227000065017F8210056F821308DF80500514618
:1022800001A80AF1030A8DF80430FEF7E5F9544578
:10229000EBD1B8F1080FC5D107480178FEF73CF93A
:1022A00003B0BDE8F08F00BFF8A000009C97FF1FAF
:1022B0003CBAFF1F7CA20000E4A0FF1F10B8FF1F64
:1022C00040A1FF1F2B4B2DE9F0472B4E1B683268B6
:1022D00003EB43039342C4BF1A463360FF2A82B024
:1022E0003EDCDFF8B090D9F80030002B1EDD234D26
:1022F000DFF8A4A0DFF8A480214F0024DAF8003032
:10230000327818F823108DF8051057F823308DF81F
:102310000430294601A88DF80620FEF79DF9D9F86A
:1023200000300134A34205F10305E7DC15480178CC
:10233000FEF7F2F8144A13680133042B0CDD3368FE
:102340000D4800218B42C8BF03F1FF331160C8BFA5
:10235000036002B0BDE8F087136002B0BDE8F0870B
:10236000FF230C210948336004F04CFE084803F0B9
:10237000C5FBB6E7B8A2FF1FBC97FF1F3CBAFF1F03
:102380007CA20000E4A0FF1F2C97FF1F50A10000BB
:10239000C897FF1F9C97FF1F40A1FF1FF8A00000D8
:1023A0002DE9F041484C4949494F23683868494D67
:1023B0004A6855F82060DFF844E1DFF84481DFF82F
:1023C0001CC182B001930B681A44019B9B1B461CE5
:1023D00082F308023B2E134445F82020C4BF00229C
:1023E0003A608868CA6823601044DEF80040D8BFAD
:1023F0003E60024682F3080258F8247048F8242010
:102400008CFB03C001343B2C334ED1F810C035682F
:10241000D8BFCEF8004018444FEAE373C3EB601016
:10242000C4BF0023CEF800304B698C69DFF8D4803C
:10243000C969DFF8D4E0ED1B63442A442344274CE8
:102440003260D8F80050264E264F194484FB0234DF
:1024500081F308013368386014445EF825704EF843
:102460002510D2170135C2EB64141F4A3B2DA3EB94
:1024700007030B441460C8BF002233601B49D4BF5C
:10248000C8F80050C8F80020144A0968184D82FBAB
:1024900003621A44DB17C3EB621200292A600CDDC9
:1024A000144B01EB4101D2B2E4B2C0B219441A702C
:1024B0005C70987003338B42F9D10F48017802B0F9
:1024C000BDE8F041FEF728B83CB8FF1F14B8FF1F65
:1024D00008B8FF1F4CB8FF1F48A1FF1F89888888D4
:1024E00094A2FF1F68A2FF1F60A1FF1F9C97FF1F00
:1024F0005CA1FF1F3CBAFF1FE4A0FF1F44A1FF1F08
:10250000C8BBFF1F70A2FF1FD8BAFF1FF0B50A4C4F
:1025100083B004F1960764260025214601A8033400
:102520008DF804608DF805508DF80650FEF794F88C
:10253000BC42F2D103B0F0BD3CBAFF1F2DE9F0431D
:10254000DFF86C80D8F80030002B83B016DD154D15
:10255000C7B2CEB200244FF0C809294601A88DF8B1
:1025600004708DF805608DF80690FEF775F8D8F8C0
:1025700000300134A34205F10305EEDC0A4C21785A
:102580002046FDF7C9FFC82003F00EFDFFF7BEFF90
:1025900021782046FDF7C0FF044B00221A6003B0EB
:1025A000BDE8F0833CBAFF1FE4A0FF1FA497FF1F04
:1025B0009C97FF1F2DE9F04F394E3368DB0785B03C
:1025C0005DD5384D384C2B68039394E80600039B87
:1025D0005B1A93424CD33549DFF8F0802A680D68C6
:1025E00033490292D8F80020029851F82510002AA9
:1025F00084E8030039DD00252E4F2F4E2F4CDFF8E5
:10260000D0B0DFF8D090DFF8D0A022E05AF8252033
:10261000013B9342D8BF01222360D8BF3A60DBF868
:1026200000208DF80230264B19F8221053F8223082
:102630008DF80110684631468DF80030FEF70CF831
:10264000D8F800300135AB4204F1040406F103066A
:102650000BDD57F8043F012B2368D7D10133FE2B44
:102660002360DCDD00223A60D9E7164B00221A60B5
:1026700015480178FDF750FF05B0BDE8F08F3046F2
:1026800003F0B4FB074D084C00289CD02B68019345
:10269000019B23600A233046636003F0ADFB92E7A1
:1026A00050A1FF1FB0BEFF1F64A1FF1F48B8FF1F4E
:1026B0003097FF1F90A1FF1F3CBAFF1F3CB9FF1FBF
:1026C0007CA20000B4A2FF1FE4A0FF1F9C97FF1F85
:1026D00040A1FF1FF8A00000CCA2FF1F2DE9F0478A
:1026E000354E3368DB0784B04ED5344D344C2B68FF
:1026F000039394E80600039B5B1A93423DD3314950
:10270000314A2B680D68314902931368029851F8D9
:1027100025102F4E012B84E80300336845D0013B80
:102720000A2B336001DC01231360DFF8B890D9F87D
:102730000030002B1EDD274DDFF8ACA0DFF8AC80A9
:10274000254F0024DAF80030327818F823108DF87D
:10275000011057F823308DF80030294668468DF86F
:102760000220FDF779FFD9F800300134A34205F1CA
:102770000305E7DC194B00221A6019480178FDF7C0
:10278000CBFE04B0BDE8F087304603F02FFB0B4DC5
:102790000B4C0028ABD02B680193019B23600A23CC
:1027A0003046636003F028FBA1E70133FE2B336062
:1027B000C4BF00231360B8E70CB8FF1FB0BEFF1FF3
:1027C00060A2FF1F48B8FF1F4C97FF1F3097FF1FE5
:1027D0002497FF1F3CBAFF1F7CA20000B4A2FF1F7A
:1027E000E4A0FF1F9C97FF1F40A1FF1FF8A000005F
:1027F0002DE9F041114C124E2468124B53F824304D
:10280000346803EB430301349C420F4B34600546AC
:102810000F461C7804DB0134E4B200211C703160E7
:10282000104606F027FD094E05EB4505C3B22246CA
:1028300039467019BDE8F041FDF7EEBE48B8FF1FFC
:10284000B4A2FF1F3097FF1F9897FF1F3CBAFF1FCE
:1028500008B5064B064A19680020FFF7C9FF05486E
:10286000BDE808400178FDF757BE00BF9C97FF1FE9
:102870000000A040E4A0FF1F2DE9F04F594D5A4C35
:10288000DFF86881002685B02F46B2464FF0640914
:102890000EE08DF80C908DF80DA08DF80E30FDF740
:1028A000DBFE98F80010514801360337FDF734FE7F
:1028B000206803F0B3F9864239464FF0FF0303A8BE
:1028C000E7DB0026474FB3464FF0640A4FF0FF099D
:1028D00009E08DF80CA08DF80DB08DF80E90FDF785
:1028E000BBFE01360337206803F098F9864239466B
:1028F00003A8EEDB98F800103C483A4FFDF70CFEB9
:1029000028210A2003F08EF9002603F04DFBB14682
:102910004FF0640B09E08DF80CB08DF80D908DF838
:102920000E90FDF799FE013603372068DFF8B8A056
:1029300003F074F98642394603A8ECDB98F80010DE
:102940002A48FDF7E9FDC8210A2003F06BF903F0DE
:102950002BFBDAF80030002B14DD0026214FB146A6
:102960004FF0640A394603A88DF80CA08DF80D903D
:102970008DF80E90FDF770FE23680136B34207F123
:102980000307EFDC98F800101848164F0026FDF7F3
:10299000C3FDB3464FF0640A4FF0FF0909E08DF81C
:1029A0000CA08DF80DB08DF80E90FDF755FE013698
:1029B0000337206803F032F98642394603A8EEDB7C
:1029C00098F800100948074FFDF7A6FD32210A20AC
:1029D00003F028F9002603F0E7FAB1464FF0640B44
:1029E00010E000BF3CBAFF1F9C97FF1FE4A0FF1F31
:1029F0008DF80CB08DF80D908DF80E90FDF72CFE33
:102A0000013603372068DFF850A303F007F9864248
:102A1000394603A8ECDB98F80010CD48FDF77CFDA3
:102A200064210A2003F0FEF803F0BEFADAF8003061
:102A3000002B14DD0026C74FB1464FF0640A39461B
:102A400003A88DF80CA08DF80D908DF80E90FDF771
:102A500003FE23680136B34207F10307EFDCDFF81A
:102A6000F0A298F80010DFF8FC925046FDF754FDF4
:102A7000206803F0D3F8B74A00EB40011144034645
:102A8000642700264FF0FF0B03A8C9F800308DF82B
:102A90000C708DF80D608DF80EB0FDF7DDFD504621
:102AA00098F80010FDF738FD39460A2003F0BAF80F
:102AB00003F07AFAD9F80010A64B8DF80C7001EBF0
:102AC0004101194403A88DF80D608DF80E60FDF7E3
:102AD000C3FD504698F80010FDF71EFDD9F8001010
:102AE0009C4B8DF80C7001EB4101194403A88DF843
:102AF0000D608DF80EB0FDF7AFFD504698F8001050
:102B0000FDF70AFD3946282003F08CF803F04CFA53
:102B1000D9F800108F4B8DF80C7001EB410119446E
:102B200003A88DF80D608DF80E60FDF795FD5046F9
:102B300098F80010FDF7F0FC0321012003F072F873
:102B4000022800F0D480844B844A1868844B009398
:102B5000019203F063F87F4BC9F8000000EB4001DD
:102B60001944421CC31C00988DF80C700DF10C0E1A
:102B700002607A4A8DF80D60704613608DF80EB0D1
:102B8000FDF76AFD9AF800105046FDF7C5FC1420C9
:102B900003F044F803F008FA6F4A009813680168DC
:102BA0009942C0F2418198F800106948FDF7B4FCE1
:102BB000142003F033F803F0F7F9684B1968236821
:102BC0009942C0F2208198F800106148FDF7A4FCFA
:102BD0002368002B14DD0026DFF878A1B3466427B4
:102BE000514603A88DF80C708DF80DB08DF80EB01D
:102BF000FDF732FD23680136B3420AF1030AEFDC28
:102C0000534E98F800103046FDF786FC0321012052
:102C100003F008F8022800F0A780504B20680193C9
:102C200002F0FCFFC21C431CC9F8000000EB40018D
:102C30000098DFF820B10360019B1A6003AB1846CF
:102C4000594464274FF0000A4FF0FF098DF80C70CB
:102C50008DF80DA08DF80E90FDF7FEFC3178304612
:102C6000FDF75AFC142002F0D9FF03F09DF90098FB
:102C7000226801689142C0F2B98098F80010344887
:102C8000FDF74AFC142002F0C9FF03F08DF9019B07
:102C9000196823689942C0F2988098F800102C486F
:102CA000FDF73AFC2368002B13DD002637464FF072
:102CB0006409294603A88DF80C908DF80D708DF8E5
:102CC0000E70FDF7C9FC23680136B34205F1030518
:102CD000EFDC98F800101E48FDF71EFCC8210A2002
:102CE00002F0A0FF03F060F905B0BDE8F08F1A4BC9
:102CF00018681B4B009302F091FFC9F800003220C6
:102D000002F08CFF164AD9F80010106011488DF8B7
:102D10000C7001EB4101014403A88DF80D608DF8A2
:102D20000EB0FDF799FC0C490D4A0B6811689942E9
:102D3000BFF649AF074B8DF80C7001EB4101194408
:102D400003A88DF80D608DF80EB0FDF785FC3AE70D
:102D5000E4A0FF1F3CBAFF1F9C97FF1F3CA1FF1F71
:102D600038A1FF1F34A1FF1F2068364E02F056FF26
:102D7000C9F80000322002F051FFD9F80010009B82
:102D800001EB4101186031444FF0640A4FF0000933
:102D9000FF2703A88DF80CA08DF80D908DF80E700C
:102DA000FDF75AFC009B196823689942BFF675AF7E
:102DB00001EB4101314403A88DF80CA08DF80D9072
:102DC0008DF80E70FDF748FC67E71E4B642001EBA1
:102DD000410119440022FF238DF80C0003A88DF84F
:102DE0000D208DF80E30FDF737FC56E701EB410161
:102DF000594403A88DF80C708DF80DA08DF80E9035
:102E0000FDF72AFC39E70F4B01EB4101194464231C
:102E100000228DF80C3003A8FF238DF80D208DF8CB
:102E20000E30FDF719FCCEE6064B8DF80C7001EB69
:102E30004101194403A88DF80D608DF80EB0FDF71F
:102E40000BFCB0E63CBAFF1FF0B51E4F3B68DB073A
:102E500085B005461FD51C4E1C4C33680393039B5D
:102E60001B4822886188A0FB0303C2EB93139BB22B
:102E700099420ED833680293154A029BA2FB0323A2
:102E80009B092380FFF7F8FC284602F0C7FE114B90
:102E9000186005B0F0BD384602F0A8FF0A4E0028C1
:102EA000DAD0336801930A4A019B0A49074C098822
:102EB0006180A2FB03239B093846238002F09CFF1C
:102EC000CBE700BF5CA2FF1FB0BEFF1F40B8FF1FD3
:102ED000D34D62104897FF1F2DE9F04F002085B0B9
:102EE00002F0F2FEDFF824934928C9F800004FF001
:102EF0000A0176D0B348DFF818A3B34CB34EB44DF3
:102F0000DFF810B3B34F04F07DF8B34802F0F6FDDC
:102F1000B248DFF804E3B2494FF47A720260CEF8A7
:102F200000200222CAF80020082200232260FF228B
:102F30000A701846492103224FF0010833602B60C4
:102F40000193CBF800803A60C9F80010009102F0BC
:102F5000BBFE492806D09DE80A00184602F0CEFEC6
:102F60009BF80080012002F0AFFE404503D04146AF
:102F7000012002F0C3FE022002F0A6FE9AF80080B3
:102F8000804503D04146022002F0B8FE032002F043
:102F90009BFE2478844203D02146032002F0AEFE3B
:102FA000042002F091FE3C78844203D021460420A4
:102FB00002F0A4FE052002F087FE3478844203D09C
:102FC0002146052002F09AFE062002F07DFE2C78B4
:102FD000844203D02146062002F090FE05B0BDE8F1
:102FE000F08F8048DFF82C82DFF82492764C794FFE
:102FF000764EDFF8E8A1764D04F004F8764802F04A
:103000007DFD012002F060FEC8F80000022002F001
:103010005BFEC9F80000032002F056FE2060042089
:1030200002F052FE3860052002F04EFE6E4B30601A
:1030300033F81030CAF80030062002F045FE1021A7
:1030400028606A4803F0DEFF3168634802F0A6FD9D
:10305000614802F053FD1021654803F0D3FFDAF810
:1030600000105D4802F09AFD5B4802F047FD142114
:10307000604803F0C7FFD8F80010574802F08EFDF3
:10308000554802F03BFD0E215B4803F0BBFFD9F829
:103090000010514802F082FD4F4802F02FFD102130
:1030A000564803F0AFFF39684B4802F077FD4A48B5
:1030B00002F024FD0E21524803F0A4FF2168464887
:1030C00002F06CFD444802F019FD12214D4803F056
:1030D00099FF2968404802F061FD3F4802F00EFD6B
:1030E000D8F800303B4A013B032B84BF0123C8F8CA
:1030F00000303B68092B84BF032313602368324AE6
:10310000092B84BF032313603368304A0A2B15D878
:10311000092B16D02B682E4A21680D2B84BF002363
:103120001360CD2303FB01F3002BB8BF07332C4AF8
:10313000DB103233137005B0BDE8F08F002313604D
:10314000E8E7DFF8D8A02B68DFF8D490DFF8D48068
:10315000DAF800B019F82320214E58F823308DF802
:10316000083003A902A8FF278DF809208DF80A70FE
:10317000FDF772FA03AA59462348FDF73DFA317864
:103180003046FDF7C9F9642002F00EFF2B68DAF82B
:1031900000A019F8232058F823308DF8092002A840
:1031A00003A98DF808308DF80A70FDF755FA5146DD
:1031B00003AA1548FDF720FA31783046FDF7ACF93F
:1031C000A8E700BF60A10000D4BAFF1F34B8FF1FFA
:1031D00040A1FF1F4CA1FF1FC897FF1FC0A2FF1FE8
:1031E000E4A0FF1F6CA10000A897FF1F78A10000BA
:1031F0008CA10000A0A10000B8A10000C8A100009F
:10320000DCA10000ECA100003CBAFF1FC4A2FF1F1C
:1032100048B8FF1FC097FF1F94A3FF1F9C97FF1F75
:10322000F8A000007CA200002DE9F0477B487C4C10
:10323000DFF83C9201F0EEFA0C217A4802F040FAF5
:103240000A21794803F0DEFE784802F057FC02219B
:10325000052002F07FFE0221062002F07BFE052001
:1032600002F06AFE2060062002F066FE704A2368C3
:103270001060002B40F0B380012800F0BE800028D1
:1032800000F0C3806B48046814F0010400F08480EF
:103290003222DFF8C0A1684968480023FDF7E8F84A
:1032A000FF238AF80030FFF731F99AF800105046F2
:1032B000FDF732F9FFF72AF99AF800105046FDF7AA
:1032C0002BF94FF47A7002F06FFEFFF71FF99AF8AE
:1032D00000105046FDF720F9D9F800C0BCF1000FEE
:1032E0001BDDDFF89081564F564D002496210120BA
:1032F00002F098FCFE2148F8040F012002F092FC35
:10330000012147F8040F002002F08CFCD9F800C01E
:1033100045F8040F0134A445E8DC0CF180434A4F22
:10332000013B07EB83074FF47A7801210025BCF1BC
:10333000000F1FDD4348454B454C0BE02668013A22
:10334000B2421A60D8BF0160B84203F1040304F12D
:1033500004040FD050F8042F012A1A68EED101326C
:10336000FE2A1A60F0DDB842056003F1040304F19F
:103370000404EFD1B8F10108D9D141466420FFF728
:10338000DDF8FFF7C3F89AF800103248FDF7C4F8EB
:10339000BDE8F047FFF7A0BD02F028FD00283FF48C
:1033A00077AF2D49254B08685C60FF2201255C61E1
:1033B0009C609D741A735A739A73DA731A745A74F0
:1033C00000B90B60254A116801B18B6000242449C3
:1033D00018481C841360196002F00EFD58E7012B99
:1033E0007FF450AF00287FF44DAF11231D490F48E3
:1033F000C9F80030FEF75CFE44E732231A490B4857
:10340000C9F80030FEF754FE3CE70A231749074885
:10341000C9F80030FEF74CFE34E700BFB0A3FF1F31
:1034200054A1FF1F0082FF1F00A20000C897FF1FCA
:1034300058A1FF1F0CA1FF1F3CBAFF1F10A1FF1FC7
:1034400038B9FF1F90A1FF1F94A1FF1F3CB9FF1FB8
:10345000CCA2FF1FE4A0FF1FF4A0FF1F04A1FF1FC9
:10346000BCA0000014A200000CA200001CA20000DE
:103470009C97FF1FC8A2FF1F30B50C4B0C4C1B685C
:103480000C4A0D480D492468046083B001930C4B2D
:10349000019D1D6001230B601370FFF737F8094889
:1034A0000178FDF739F803B030BD00BFB0BEFF1F93
:1034B00094A3FF1F9097FF1FC0A2FF1FC8A2FF1F6A
:1034C0006CA2FF1FE4A0FF1F2DE9F043484E4948BE
:1034D000494D83B0062103F095FD3768002401A90A
:1034E00068468DF800408DF801408DF80240FDF7E8
:1034F000B3F801AA39464148FDF77EF829782846F5
:10350000FDF70AF8642002F04FFDD6F80090FF277F
:1035100001A968464FF0C8088DF800708DF8017059
:103520008DF80280FDF798F801AA49463348FDF767
:1035300063F829782846FCF7EFFF4FF47A7002F021
:1035400033FDD6F800908DF8004001A968468DF84B
:1035500001408DF80240FDF77FF801AA494627484F
:10356000FDF74AF829782846FCF7D6FF4FF4967005
:1035700002F01AFDD6F800908DF8028001A9684685
:103580008DF800708DF80170FDF766F801AA4946C4
:103590001A48FDF731F829782846FCF7BDFF4FF4AB
:1035A0007A7002F001FD36688DF80040684601A986
:1035B0008DF801408DF80240FDF74EF801AA314622
:1035C0000E48FDF719F829782846FCF7A5FF0C4BA3
:1035D000012520461D6002F077FBA84203D0294652
:1035E000204602F08BFBFFF777FC03B0BDE8F083C9
:1035F0009C97FF1F24A20000E4A0FF1F3CBAFF1FFE
:10360000C4A2FF1F2DE9F047BC4CBD4882B0214643
:1036100001F0A0F968B9BB4B1C68012C00F08B804D
:10362000B94ABA4B12680192019A1A6002B0BDE819
:10363000F087B74EA368B74833800B2103F0E2FC54
:103640003188B54802F0AAFAB34802F057FA338835
:103650004FF6FF72934200F08580B04CDFF8A482F1
:10366000DFF8C092DFF8E0A204F11E0702E0BC42DE
:1036700056D0338834F8025F9D42F8D14DF62701C9
:1036800001228B42C8F8002045D04FF607018B423B
:103690005AD047F6870293425CD045F6A702934280
:1036A0005CD046F29F02934241D04EF21F029342F9
:1036B00000F0D38049F26F02934200F0D28040F6CE
:1036C000F702934200F0D1804AF25F02934200F089
:1036D000EB80FF2D00F0A3804CF23F039D4200F0F1
:1036E000508144F2BF039D4200F06E8141F2EF032E
:1036F0009D4200F0BE8048F27F039D4200F026818B
:1037000042F2DF039D42B2D14722012389F8002013
:10371000CAF80030ABE74123BC4289F80030A8D199
:103720007F4B00221A60764801F0BCF878E7452309
:1037300089F800309BE77A4E18603368082B0546FD
:103740003ADD002333606BE74423CAF8002089F890
:1037500000308CE7422389F8003088E7432389F85A
:10376000003084E76E4A13680133072B1360DADDFB
:103770006C4C6D48102103F045FC207803F0C6FC2A
:10378000654802F0BBF92378412B00F06481432B9C
:10379000C9D1664B012205201A7002F095FA09285A
:1037A00003D00921052002F0A9FA614B614A19688A
:1037B000116018221A60B6E75A4F387803F0A6FC59
:1037C000554802F09BF93B78412B77D0442B2ED003
:1037D000422B00F0DE80432B00F0FE80472B00F0F0
:1037E0001781482B00F02481492B00F03881452BAC
:1037F00000F04781462BA4D14D4B4E4A1968116009
:1038000005204EF21F021A6002F05EFA052803D06E
:103810000521084602F072FAFEF778FE91E7502380
:1038200089F8003000F0B4FB414B1D601FE7052014
:1038300002F04AFA032803D00321052002F05EFAC1
:103840003B4B3C4918683C4A08604FF60700012191
:1038500018601160FEF75AFE73E7462389F80030BE
:1038600005E7482389F8003001E7492389F800304B
:10387000FDE6324A13684C210C2B89F8001000F346
:10388000BE8001330620DDB2136002F01DFA8542CE
:1038900003D02946062002F031FA00F079FB244BD0
:1038A00041F2EF021A60E2E64A2389F8003000F0A4
:1038B0006FFB1F4B4AF25F021A60D8E6052002F048
:1038C00003FA18B12946052002F018FA184B1949D5
:1038D0001C68194A0C604DF627050321012418487D
:1038E0001D60146003F08EFB0B4802F007F9FEF731
:1038F0000DFE14480178FCF70FFE22E798A2FF1F87
:10390000B0A3FF1F44B8FF1FB0BEFF1FBCA2FF1F24
:1039100038BAFF1F2CA20000C897FF1F4E97FF1F49
:1039200038B8FF1F10B8FF1F38A200009097FF1F84
:10393000C0A2FF1F94A3FF1FA497FF1F40A1FF1F5A
:103940004CA20000E4A0FF1F9497FF1F5A4A13687F
:103950005221002B89F8001040F3A480013B06207F
:10396000DDB2136002F0B0F9854203D0294606208B
:1039700002F0C4F900F00CFB504B48F27F021A60D1
:1039800075E64B2389F8003000F002FB4B4B1D60BD
:103990006DE6052002F098F9012803D021460520A4
:1039A00002F0ACF9454B464A1968116047F68702A8
:1039B000002164201A60FEF7C1FDFEF7A7FD414813
:1039C0000178FCF7A9FDBCE6512389F8003000F02E
:1039D000DFFA3A4B1D604AE6052002F075F902282D
:1039E00003D00221052002F089F9344B344A1968CA
:1039F000116045F6A7021A60FEF788FDA1E60025D2
:103A00000620156002F060F900287FF442AF44E719
:103A1000052002F059F9062803D00621052002F0FE
:103A20006DF9264B264A1968116042F2DF02BFE7A2
:103A3000224B234A19681160052049F26F021A606F
:103A400002F042F9072803D00721052002F056F9B9
:103A500000216420AFE7FFF737FD237897E6174B87
:103A6000174A19681160052040F6F7021A6002F043
:103A70002BF908283FF4D0AE0821052002F03EF9CA
:103A8000CAE60E4B0E4A19681160052046F29F02E5
:103A90001A6002F019F90428DAD00421052002F096
:103AA0002DF9D5E70D250620156002F00DF9A84285
:103AB0007FF45CAF5EE700BF40A1FF1FC0A2FF1F05
:103AC00094A3FF1FE4A0FF1F2DE9F04FB84CB94AA3
:103AD0002368126887B00593059B9B1AFA2B00F2A6
:103AE0008680B54B1B684DF62702934200F0888014
:103AF000172B79D049F26F02934200F0968040F67E
:103B0000F702934200F04B8147F68702934200F0A0
:103B1000498146F29F02934200F0DE8045F6A702FB
:103B2000934200F0BE81182B00F08D804EF21F02F0
:103B3000934200F0B9814FF60702934200F02681CC
:103B400042F2DF02934200F0B2814AF25F029342F6
:103B500000F052814CF23F02934200F0C980FF2BEB
:103B600000F0AF8144F2BF02934200F0C08148F2FE
:103B70007F02934203D041F2EF02934234D1DFF847
:103B800064A2DAF80030002B1FDD8C4EDFF860B243
:103B9000DFF86092DFF840820025C827DBF80030AC
:103BA0008DF8127019F8232058F823308DF8103052
:103BB000314604A88DF81120FCF74EFDDAF80030EC
:103BC0000135AB4206F10306E8DC7D480178FCF7DD
:103BD000A3FC23687B4A0493049B12689B1AB3F5E9
:103BE0007A7F01D9FFF748FC07B0BDE8F08FFFF7F7
:103BF00009FD714B1B684DF6270293427FF478AFA5
:103C0000714C2368012BEFD100216420FEF796FC54
:103C10000B216E4803F0F6F9FEF778FC684801784E
:103C2000FCF77AFC00232360DEE7694A41F23D435A
:103C3000D15C19B10021D154FEF7E0FAFEF7E8FAA1
:103C400007B0BDE8F08F634C2378002BCCD0DFF8B1
:103C5000A0A1DFF89091DAF80030DFF898815E4F8C
:103C6000D9F800B018F82320554D57F823308DF8B7
:103C70000C3004A903A8FF268DF80D208DF80E60E6
:103C8000FCF7EAFC04AA59464C48FCF7B5FC297835
:103C90002846FCF741FC642002F086F9DAF800308F
:103CA000D9F8009018F8232057F823308DF80C30FD
:103CB00003A804A98DF80D208DF80E60FCF7CCFC4C
:103CC00004AA49463D48FCF797FC29782846FCF7AA
:103CD00023FC0023237087E73D4A41F23D43D15C3A
:103CE00019B10021D154FEF789FAFEF759FB7BE7A1
:103CF0002368344A0193019B12689B1AB3F57A7FBB
:103D000000F22981354C2368002B7FF46DAF344DD0
:103D100034482A680668072AD8BF01324FF0E60304
:103D200003FB02F3D8BF2A60002BB8BF0733DB10B8
:103D3000B421962214338DF80C108DF80D2004A9AF
:103D400003A88DF80E30FCF787FC04AA31461B4807
:103D5000FCF752FC1A480178FCF7DEFB0E212248E2
:103D600003F050F92968214801F018FF1F4801F0BD
:103D7000C5FE042001F0A8FF2D78854203D0294616
:103D8000042001F0BBFF012323602DE70E4C2368C4
:103D9000012B00F0D8801E20FFF756F824E7FEF72D
:103DA0009DFC21E7FEF70EFAFEF78CFA1CE700BF38
:103DB000B0BEFF1FBCA2FF1FC0A2FF1F3CBAFF1F67
:103DC000E4A0FF1F6CA2FF1FA497FF1F50A20000DA
:103DD000B4A3FF1F9097FF1F7CA20000C8A2FF1F83
:103DE0004CA1FF1F9C97FF1F6CA20000C897FF1FEC
:103DF00040A1FF1FF8A0000023685B4A0093009BCE
:103E000012689B1AB3F57A7F00F2A280574C2368A0
:103E1000002B7FF4E9AE564D2968072901DC0131FA
:103E20002960EB2202FB01F2E62303FB01F3002AE7
:103E3000B8BF07324F48504E0768002BB8BF073352
:103E4000D21014323C21DB101433327003A89622B6
:103E50008DF80C1004A98DF80E308DF80D20FCF7AC
:103E6000FBFB04AA39464548FCF7C6FB31784248BB
:103E7000FCF752FB0C21424803F0C4F82968414882
:103E800001F08CFE3F4801F039FE032001F01CFFD9
:103E90002D7885423FF477AF2946032001F02EFFAD
:103EA00071E7FEF787FB9FE6FEF7D2FC9CE6FEF784
:103EB00089F9354B1B68B42B7FF796AEFEF7DCFC17
:103EC00092E62368284A0293029B12689B1AB3F574
:103ED0007A7F43D8254C2368002B7FF485AE244D90
:103EE00029680029C4BF01F1FF31296099E72368DF
:103EF0001D4A0393039B12689B1AB3F57A7F30D84F
:103F00001A4C2368002B7FF46FAE204D19482A68A5
:103F10000668002AC8BF02F1FF324FF0E60303FB38
:103F200002F3C8BF2A60002BB8BF0733DB10B421EF
:103F3000962214338DF808108DF8092004A902A8E0
:103F40008DF80A30FFE6FEF797FC0023236022E796
:103F5000FFF792FA5AE7FFF78FFAD3E6FFF78CFAEA
:103F6000B8E7FFF789FACBE76CA2FF1FC8A2FF1FD3
:103F7000D4BAFF1F9C97FF1FE4A0FF1F3CBAFF1F8E
:103F80005CA20000C897FF1FB8A2FF1F4CA1FF1F33
:103F900010B51F4B1F491B6848F27F020020934257
:103FA00082B0086019D041F2EF02934215D04AF274
:103FB0005F02934211D0FF2B0FD04CF23F0293428D
:103FC0000BD044F2BF02934207D0B3F57A7F19D0E9
:103FD0001149124A0B6001231370114C114B2268D6
:103FE0000092009A10481A6000F05CFC23680F4AA7
:103FF0000193019B12689B1AFA2B01D9FFF702FB70
:1040000002B010BD044B4DF627021A60E5E700BF71
:10401000C0A2FF1FC8A2FF1F94A3FF1F9097FF1FFE
:10402000B0BEFF1F6CA2FF1FB0A3FF1FBCA2FF1FEB
:104030002DE9F04383B001F0FFFD684B68491B6830
:104040000193684E684B019A09686848684D1A6088
:1040500000F0D8FB3268674F2F6000236B722B6132
:104060002B72EB600AB9B2E01A465369002BFBD100
:104070005561614C614B5E482B604FF00008C5F8FC
:104080001480A5F80480A5F8068085F80A8000F061
:10409000BBFA012004F5A25243464146276084F84A
:1040A0000880C4F80C8060722261A64601E0DEF848
:1040B000102042F82310627A4F4801339A42F6DC0E
:1040C0003268484B0AB984E01A465369002BFBD189
:1040D000546141F23C4241F23D434FF00009DFF8A8
:1040E0002C814749474804F8029004F803904A4657
:1040F00001232160C4F818044FF480614248C4F8D9
:104100001490A4F80490A4F8069084F80A9004F09F
:1041100001F8012008F11802C8F800704B46494622
:1041200088F80890C8F80C9088F80900C8F81020A2
:10413000474600E03A6942F8231098F809203348CE
:1041400001339A42F6DC3268264B0AB943E01A463C
:104150005369002BFBD1C2F81480DFF8C4902C4BBC
:104160002C4FC8F800300026002348460022C8F82B
:104170001460A8F80460A8F8066088F80A60C8E926
:104180000823C9F80050C9F8044089F80860C8F845
:10419000286089F80960C9F80C6089F8106001F09E
:1041A00063FB1D4A1D49484604F090F838463E72AC
:1041B00087E820017E72FE603E7401F055FB3846B0
:1041C000154A164904F082F803B0BDE8F083356063
:1041D0004FE718607DE71860BFE700BFB0BEFF1F64
:1041E000A097FF1F78BEFF1F6CA2FF1FB0A3FF1F89
:1041F00098A3FF1FB0A00000B4A3FF1F18AB0000DE
:1042000000A3000010A30000F8B7FF1F08BAFF1FAB
:104210000CA3000080A1FF1F2097FF1FED070000E7
:104220006CA1FF1FF8B50021054601F011FB002825
:1042300000F0D08041F23C43EB5C072B00F2CA80D7
:10424000DFE803F0C9D0D7DEE5ECF304D5F81C7441
:10425000C5F8380405F587643B1D224607F58277CB
:1042600005F23C4133F8026B42F8046F9F42F9D1EA
:10427000D5F8207405F5C7623B1D07F5827733F842
:10428000026B42F8046F9F42F9D1D5F8247405F609
:1042900038023B1D07F5827733F8026B42F8046F52
:1042A0009F42F9D1D5F8287405F638223B1D07F551
:1042B000827733F8026B42F8046F9F42F9D1D5F848
:1042C0002C7405F638423B1D07F5827733F8026BF4
:1042D00042F8046F9F42F9D1D5F8307405F6386280
:1042E0003B1D07F5827733F8026B42F8046F9F425B
:1042F000F9D1D5F8347405F581523B1D183207F514
:10430000827733F8026B42F8046F9F42F9D105F5CA
:104310009152031D183200F5827033F8026B42F897
:10432000046F8342F9D1D5F8180480B105F588628D
:1043300000F5006732F9043C30F9026B03FB06F329
:10434000DB13874222F8043C02F10402F2D105F5A6
:10435000A2500430384E03F0BFFE05F2164705F1B7
:10436000160054F8041F21FB01F1B1FA81F336F86D
:104370001320B1FBF2F31A445308B1FBF3F10B44E1
:104380005B0820F8023FB842EBD141F23D430122E5
:10439000EA54D5F81C0401F017FAD5F8200401F00E
:1043A00013FAD5F8240401F00FFAD5F8280401F027
:1043B0000BFA41F23C430422EA5405F586610EC92A
:1043C000D5F82C04C5F81C04C5F82014C5F824241D
:1043D000C5F82834F8BD41F23C430122C5F81C045D
:1043E000EA54F8BD41F23C430222C5F82004EA54E5
:1043F000F8BD41F23C430322C5F82404EA54F8BD59
:1044000041F23C430422C5F82804EA54F8BD41F2C5
:104410003C430522C5F82C04EA54F8BD41F23C4364
:104420000622C5F83004EA54F8BD41F23C430722A5
:10443000C5F83404EA54F8BD1CAB00002DE9F04186
:104440000021804601F004FAF8B1D8E90823011DE3
:1044500000F5827E0F684E688D68103151F8044C6B
:10446000C7FBC723C6FBC623C5FBC523C4FBC423A8
:104470008E45EFD8D8F828100131C8E90823C8F8CC
:104480002810BDE8F04101F09FB9BDE8F08100BF00
:10449000F8B572B6002600270023D0E90845826AE5
:1044A0008362C0E9086762B6D2012046294604F05B
:1044B00001FF04F09FFC03F00FFF024904F08CFDA4
:1044C000F8BD00BF00FEFF461B4A1C4B11681C488C
:1044D000096970B499421279027009D2194A1278A6
:1044E00032B3194A4FF08041116003F5807402E045
:1044F0001C46A3F58073154A154912680D68AAB1C8
:10450000A5B1144E3088402810D841000A444030EC
:10451000294402320231308033F9040B22F8020FB1
:104520009C4233F9020C21F8020FF5D870BC704799
:1045300003F58074DFE700BFC0BCFF1F308FFF1F93
:104540001F800040BABCFF1F08E200E0C8BCFF1F8C
:10455000BCBCFF1FB8BCFF1FF8B5064601F0E0F871
:104560000446E8B101F0DCF8054600283AD072B6FE
:104570001F4B1A887F2A19D8002C31D01D490A6890
:1045800042B162B6204601F01FF92846BDE8F84066
:1045900001F01AB918480C601A80056062B6F8BDBF
:1045A000054672B6124B1A887F2AE5D9114A12497C
:1045B0001768146000220C681A800D6062B63946D4
:1045C000304601F02BF9384601F0FEF8304621461E
:1045D000012201F023F92046BDE8F84001F0F4B8CB
:1045E00062B6F8BD204601F0EFF82C46BFE700BFE9
:1045F000B8BCFF1FC8BCFF1FBCBCFF1F10B50446E2
:1046000001F062FA204610BDF8B5284C284E20462D
:10461000012101F0F5F900F06BF8264B264A2748F6
:104620004FF480611960236800211A609980227913
:10463000186102F1804202F5043240F20110D88084
:104640009E614FF48075022006278E26DD82D96098
:10465000DD8398609F8398821170167001F076F95F
:104660001749184B2279184F08701A703968227947
:10467000164C174D174E41F0124141F001015311F4
:1046800039609B00206803F1604302F1100703F5D5
:10469000614302F01F02012140F0104001FA02F2D2
:1046A000206045F827601A60F8BD00BFC0BCFF1F3E
:1046B00000FEFFFF14B00440A0F00240308EFF1F48
:1046C000BABCFF1F1B80004080F0024000F0024097
:1046D0000092FF1FC9440000024A0349034803F047
:1046E000F5BD00BF2097FF1FFD450000C0BCFF1FA8
:1046F000284B29491A68294842F400421A600A687E
:1047000042F002020A601A6842F002021A6003686C
:10471000002B3DDB224B1B68002B39DB214A4FF07D
:10472000864313601368002BFCDBF0B51E4C1F485A
:10473000DFF8ACE01E491F4B1F4A204F204E214D91
:1047400047F2320CC4F800C0002404600120CEF807
:104750000000DFF890E0C1F800E04FF4803119600C
:10476000194B1360DFF880E0184A3A603460286023
:104770001748CEF80000174CB9671748174946F894
:10478000503C4FF4C0632A61236003600B60F0BDAE
:10479000704700BF3C8004404080044000F002406D
:1047A00080F0024000F1024004F1024060F002405B
:1047B00008F002400CF0024010F0024014F00240F9
:1047C000E0F0024084F002401B0F0100000F0F0FC9
:1047D0000300004708B004400CB0044018B0044087
:1047E00004F002400300000788F00240024A034937
:1047F000034803F06BBD00BF2097FF1FFD4500007D
:10480000CCBCFF1F024BC9B200225970DA7070474E
:10481000D4BCFF1FF0B572B6174A184D1368184C78
:1048200018491948DFF874C0DFF874E0174E184FC4
:1048300043F00403136004232B70012323700E2222
:104840000B7000211E238CF80010124D03708EF89F
:1048500000103270032639700222667105342A6016
:104860002478037062B60C4B1A7019715878BDE841
:10487000F04001F06FBB00BF348004400A200640C6
:10488000002006400120064007200640092006407F
:104890000420064008E100E0D4BCFF1F06200640CB
:1048A00008200640024B0221002219701A7170473D
:1048B000D4BCFF1F2DE9F0474F69052F41DD0C697E
:1048C000214DDFF88C8004EB870789460C3411E01A
:1048D000304604F0CDFA0146504604F067FC04343B
:1048E000002814BF0223012308FB05F5BC4285EA1A
:1048F00003051BD054F808AC206804F061FA0646A2
:10490000504604F05DFA1149824604F0B1FA0146BE
:10491000304604F04BFC0D490028D9D00434002364
:1049200008FB05F5BC4285EA0305E3D12022FF23FD
:10493000C9F80850C9F80C2089F800300120BDE8FA
:10494000F0870020BDE8F087C59D1C81CDCC4C3F91
:104950009301000170B5344A0A61A2F10C052C796B
:104960004C6195F8A04112F80C2C8C61052A01D0FD
:10497000002070BD06460C4600F012FA08B1012076
:1049800070BD2146304600F0AFFC0028F7D121462B
:10499000304600F03FFC0028F1D12146304600F0BF
:1049A000ABF90028EBD12146304600F0EBFA0028A5
:1049B000E5D12146304600F047FB0028DFD12146F3
:1049C000304600F04FFA0028D9D12146304600F099
:1049D00041F90028D3D12146304600F0C9F800281B
:1049E000CDD12146304600F0B3FB0028C7D1214687
:1049F000304600F0DBFC0028C1D12146304600F0F3
:104A000015F80028BBD12146304600F06BF800288D
:104A1000B5D121463046FFF74DFF0028AFD1022225
:104A20002A70287170BD00BFE0BCFF1F2DE9F04166
:104A3000DFF8AC8098F80430572B02D80020BDE88E
:104A4000F0810B690D46586842F2602100F03AFD92
:104A50000028F3D02B6941F29411986800F05CFDB6
:104A60000028EBD098F80430212B36DD1E261D24BB
:104A7000002709E043F0010798F804300234043BB2
:104A8000A34206F102061DDD2B694FF4FA7153F8BB
:104A9000240000F017FD4FF416710028CED02B69CA
:104AA00053F8260000F038FD7B000028E2D12B6986
:104AB00040F2A46153F8260000F02EFD08B17F00FB
:104AC000DAE73446013C6410292CEC60B6DD09239A
:104AD000AF602B700120BDE8F0810E23EB60ADE7E5
:104AE000D4BCFF1FF8B5214B1B79202B01D000202F
:104AF000F8BD0B690C4658684FF4967100F0E2FC63
:104B00000028F4D0236940F2EE21986800F004FDFB
:104B10000028ECD00C25002604E043F001060835FF
:104B20007C2D1BD023694FF49671585900F0CAFCB4
:104B30002F1D4FF4E1610028D9D02369D85900F026
:104B4000EBFC73000028E8D1236940F2EE21D8592C
:104B500000F0E2FC0028CAD07600E0E70E220F2326
:104B6000A660E26023700120F8BD00BFD4BCFF1F27
:104B7000F8B5374D2B79222B0C463AD023694FF4E8
:104B8000FA51586800F09EFC10B12B79202B01D807
:104B90000020F8BD23694FF47A61986800F0BCFCEE
:104BA0000028F5D010260325002706E043F0010772
:104BB0000235232D06F1080639D023694FF416710A
:104BC00053F8250000F07EFC4FF4C8610028DFD0C8
:104BD0002369985900F0A0FC7B000028E6D12369E6
:104BE00040F22621985900F097FC0028D0D07F0091
:104BF000DEE70B694FF41671586800F063FC00287B
:104C0000BCD02B79226903F18043013B4FF416712C
:104C100052F8230000F056FC0028AFD000214FF0DE
:104C2000FF320623E160A26023700120F8BD2369F2
:104C30004FF41671D3F88C0000F044FC0028A7D084
:104C400010220623A760E26023700120F8BD00BF98
:104C5000D4BCFF1FF8B5274B1B79382B01D8002097
:104C6000F8BD0B690C4658684FF4FA5100F02AFC65
:104C70000028F4D023694FF47A61986800F04CFC66
:104C80000028ECD010260325002706E043F001079A
:104C900002353B2D06F108061BD023694FF416712F
:104CA00053F8250000F00EFC4FF4C8610028D6D060
:104CB0002369985900F030FC7B000028E6D1236975
:104CC00040F22621985900F027FC0028C7D07F0029
:104CD000DEE723694FF41671D3F8EC0000F0F2FB25
:104CE0000028BCD01C220A23A760E26023700120A8
:104CF000F8BD00BFD4BCFF1F2DE9F041DFF89C8058
:104D000098F80430212B02D80020BDE8F0810B690F
:104D10000E4658684FF4AF7100F0D4FB0028F3D072
:104D200098F80430032B34DD0324022500270FE01C
:104D300043F0010733694FF4AF7153F8240000F0DA
:104D4000EBFB0235D0B198F804300234A34214DDF5
:104D5000336940F29E7153F8250000F0B3FB7B00ED
:104D60000028E5D1336940F2EE2153F8250000F028
:104D7000A9FB0028C8D07F00DCE72C46013C64106A
:104D80000F2CF46005DD0C23B76033700120BDE803
:104D9000F0810020F060BDE8F08100BFD4BCFF1FAF
:104DA000F8B50D4642F228312B69586800F08AFBAD
:104DB00030B12B4C2379042B31D02379432B01D8EC
:104DC0000020F8BD2B6941F29411986800F0A4FB13
:104DD0000028F5D00C24002605E043F00106083435
:104DE000B4F5867F34D02B694FF40C71185900F05C
:104DF00069FB271D40F29A610028E1D02B69D85940
:104E000000F08AFB73000028E7D12B694FF40C7186
:104E1000D85900F081FB0028D2D07600DFE72B695B
:104E200040F6CA01986800F077FB0028C5D02B69CE
:104E30004FF40C71D86800F045FB0028BDD000216C
:104E40004FF0FF320323E960AA602B700120F8BD08
:104E500020220323AE60EA602B700120F8BD00BF62
:104E6000D4BCFF1F2DE9F0410D4640F6AE512B6931
:104E7000586800F027FB10B90020BDE8F0812B69CD
:104E800040F2D661986800F01DFB0028F4D00C2495
:104E90000026002706E042F001061F460834B4F55C
:104EA000C67F21D02B694FF4FB71185900F00AFB23
:104EB00004F1040840F2DC410028DDD02B6953F8EE
:104EC000080000F029FBB21947EB07030028E2D1E4
:104ED0002B694FF4C87153F8080000F01DFB00283F
:104EE000CAD0B6197F41D9E705223023AE606F6082
:104EF0002A70EB600120BDE8F08100BF2DE9F04190
:104F000048691468844221DA15460A691E4604F08D
:104F1000010352F82480069A002B14BF64246FF01A
:104F2000630414442146404683F0010700F0A0FAD0
:104F300098B10122336801339A420ADC00233360BE
:104F40002B68013338462B60BDE8F0810120BDE8B5
:104F5000F08133603846BDE8F081069B1C44214651
:104F6000404600F085FA08B10222E3E7069B40467E
:104F7000191900F07DFA08B10322DBE74FF0FF308A
:104F8000BDE8F0812DE9F0472E4E337984B000243E
:104F900001220C2B0294039203D8002004B0BDE838
:104FA000F08740F2793702AB03AA00970D4604461A
:104FB000FFF7A4FF0028F0D1009702AB03AA29460F
:104FC0002046FFF79BFF0128E7D1009702AB03AA19
:104FD00029462046FFF792FF0028DED13279039B55
:104FE0009A42804682460DDC25E0B9F1000FD4D10B
:104FF0000128D2D14FEA48083279039B9A420AF13C
:10500000010A18DD02AB03AA294600972046FFF7E4
:1050100075FF0097814602AB03AA29462046FFF799
:105020006DFFB9F1010FE0D14FEA48080028B4D173
:1050300048F00108E0E70120C5F80CA0C5F8088099
:105040002870ABE7D4BCFF1F2DE9F0474B69002265
:1050500084B0934202920ADD0B6905460C465868FB
:1050600040F66A210223039300F02CFA18B90020BD
:1050700004B0BDE8F087039B2269591C039152F8E4
:10508000230040F2793100F047FA0028EFD04FF4C6
:10509000DE7602AB03AA009621462846FFF72EFFD4
:1050A00007460028E3D1009602AB03AA2146284612
:1050B000FFF724FF0128DAD1039A63699A42B846C0
:1050C00021DA02AB03AA214600962846FFF716FF15
:1050D000B8F1030F8146009602AB03AA2146284689
:1050E00020D0FFF70BFF8246B9F1000F12D1BAF1C1
:1050F000010FBCD17F0047F001076269039B9A4210
:1051000008F10108DDDC0223C4F80C80A7602370DD
:105110000120ADE7B9F1010FA9D1BAF1000FA6D175
:105120007F00EAE7FFF7EAFE8145A0D102AB03AAC0
:10513000214600962846FFF7E1FE0096824602AB24
:1051400003AA21462846FFF7D9FE5045CCD08EE76A
:10515000F8B50D4641F288312B69586800F0B2F974
:1051600030B12B4C2379042B31D02379432B01D838
:105170000020F8BD2B6941F28831986800F0CCF925
:105180000028F5D00C24002605E043F00106083481
:10519000B4F5867F34D02B694FF40C71185900F0A8
:1051A00091F9271D4FF4C8610028E1D02B69D85927
:1051B00000F0B2F973000028E7D12B694FF40C71AD
:1051C000D85900F0A9F90028D2D07600DFE72B6982
:1051D00040F6CA01986800F09FF90028C5D02B69F5
:1051E0004FF40C71D86800F06DF90028BDD0002193
:1051F0004FF0FF320723E960AA602B700120F8BD51
:1052000020220723AE60EA602B700120F8BD00BFAA
:10521000D4BCFF1F2DE9F041324E3379192B15D93B
:105220000B691A68B2F5487F09D200204FF0FF32AF
:105230000B23C8608A600B700120BDE8F0810D4629
:10524000586840F6AC5100F03DF910B90020BDE8B7
:10525000F0812B6940F6AC51986800F033F90028D2
:10526000F4D03379042B38DD042403274FF00008F1
:1052700007E043F00108337902349C4207F102074A
:105280001EDA2B6940F2B63153F8270000F044F9DA
:105290004FF41661A8B12B6953F8240000F012F9FD
:1052A0004FEA48030028E4D12B694FF42F7153F8DB
:1052B000240000F007F90028C8D04FEA4808DAE7D0
:1052C0003C46013C64100B2CEC6006DD0B23C5F85A
:1052D00008802B700120BDE8F0810020E860BDE867
:1052E000F08100BFD4BCFF1F2DE9F041DFF8B8808A
:1052F00098F80430192B15D90B691A68B2F5FA7FA2
:1053000009D200204FF0FF320B23C8608A600B7077
:105310000120BDE8F0810D4658684FF4166100F099
:10532000D1F810B90020BDE8F08198F80430032BC3
:1053300035DD03240226002708E043F0010798F832
:10534000043002349C4206F102061CDA2B694FF449
:10535000167153F8260000F0DFF84FF4966198B10B
:105360002B6953F8240000F0ADF87B000028E4D14D
:105370002B694FF4167153F8240000F0A3F80028AD
:10538000D0D07F00DBE73446013C64100B2CEC608E
:1053900005DD0423AF602B700120BDE8F081002003
:1053A000E860BDE8F08100BFD4BCFF1FF8B52F4B0B
:1053B0001B79452B01D80020F8BD0B690C465868B5
:1053C00040F2EE2100F07EF80028F4D0236940F28C
:1053D000EE21986800F0A0F80028ECD0236940F690
:1053E0002231D86800F06EF80028E4D0236940F636
:1053F0002231186900F090F80028DCD01826052525
:10540000002706E043F001070235452D06F10806A6
:105410001BD0236940F2EE2153F8250000F052F82A
:1054200040F666010028C6D02369985900F074F848
:105430007B000028E6D1236940F2EE21985900F064
:105440006BF80028B7D07F00DEE7236940F2EE2139
:10545000D3F8140100F036F80028ACD0202208233D
:10546000A760E26023700120F8BD00BFD4BCFF1F1D
:1054700038B50446084603F0A7FC4FF07D510546B9
:1054800003F0F6FC0D4903F0A7FD03F0CDFEA042AA
:1054900011DC28460A4903F0EBFC084903F09CFDA7
:1054A0004FF07E5103F0DCFB03F0BEFE8442CCBF24
:1054B0000020012038BD002038BD00BF0000484258
:1054C0000000A03F38B5044601F1640003F07CFC05
:1054D0004FF07D51054603F0CBFC0D4903F07CFDF8
:1054E00003F0A2FEA04211DC28460A4903F0C0FCEA
:1054F000074903F071FD4FF07E5103F0B1FB03F05B
:1055000093FE8442CCBF0020012038BD002038BD6E
:10551000000048420000A03F38B50446A1F16400F5
:1055200003F052FC4FF07D51054603F0A1FC0D49FC
:1055300003F052FD03F078FEA04211DC28460A4930
:1055400003F096FC074903F047FD4FF07E5103F04E
:1055500087FB03F069FE8442CCBF0020012038BDE8
:10556000002038BD000048420000A03F10B54D4A61
:105570004D4B4E4C12781E221A70607800F0DCFC05
:10558000A3680133A3602379642B84BF06232370AF
:105590002378023B042B09D8DFE803F040471C5B6B
:1055A00003000122052384F8A0212370E3781BB3B4
:1055B00018BBA3783D4A002B5CD13D4A3D4B2021CE
:1055C00011601B6813F0050F16D13B4B40F203121C
:1055D0001A6010BD002840D12379DBB25A1CD2B228
:1055E0000233227104EB8303A2685A600323A06094
:1055F0002370E378002BDCD110BDA3782B4A002B5D
:1056000032D12E4A2B4B202111601B6813F0050F5D
:10561000F2D1294B4FF480721A6010BDA8B9A2686C
:10562000224B632A2CD89860E3E70128BED1237966
:10563000DBB25A1CD2B20233227104EB8303A2689C
:105640005A6000220423A2602370E378002BD4D197
:1056500010BD0028F9D1A060CBE7A368134A642BE2
:10566000F3D905231370F0E790780021BDE81040CE
:1056700000F05CBC90780121BDE8104000F056BC01
:1056800083F8A00118711A79D2B2511CC9B2023242
:10569000197103EB820299685160032298601A70B5
:1056A000A7E700BF0520064007200640D4BCFF1F27
:1056B00084F00F4094F00F4014B0044088F00F4085
:1056C000C029F0B428BFC02172B6124B124E134A43
:1056D00018600023138033607360B360F36033613C
:1056E0007361012799B15D0903F01F0456F8252065
:1056F00007FA04F4013322438B4246F82520F2D105
:105700000023438001338B4200F58270F9D162B6E9
:10571000F0BC704780BEFF1F88BEFF1FA2BEFF1FE8
:10572000F0B472B6234F244E3C8806F1180306EB02
:105730008400984212D256F8241099B9021D06F13D
:105740001B05631CAD1A03EB950503E052F8041B1F
:1057500041B90133AB421C461046F7D162B6002076
:10576000F0BC7047B1FA81F34FF00042DA4021EA11
:105770000201016001B9013410493C800A880132FC
:1057800094B20C8062B6801B8010C3EB401000EB1B
:10579000801083000A480B49006803F5FB531C3353
:1057A0000125C5540D88AA42184488BF0C80F0BC5E
:1057B000704700BFA2BEFF1F88BEFF1FA4BEFF1F11
:1057C00080BEFF1F7CBEFF1F428872B60378012B8C
:1057D00003D9013B037062B67047531170B40C4C8F
:1057E0000C4D54F823102E88D2434FF0004002F0A5
:1057F0001F0220FA02F21143074A44F82310B34271
:1058000038BF2B801388013B138062B670BC704791
:1058100088BEFF1FA2BEFF1FA4BEFF1FC368B3B197
:1058200030B401E0DB688BB1187A9042FAD1586845
:105830005C7A006950F82450002DF3D140F8241010
:10584000087801300870DB68002BEDD130BC704760
:10585000437A8B4206D90369002253F8210043F8AA
:105860002120704700207047037C23BB4368427AA5
:105870005B7A9A421FD830B472B60468E3682BB3DF
:10588000DA6832B119688C4216D01346DA68002AF9
:10589000F8D1D8600023C360A37A0133A3720268F1
:1058A0004168012313728A7A1A448A724268137219
:1058B000037462B630BC70475D6841688D42E4D1C4
:1058C000198903899942F4D01346DFE7E060E1E7E4
:1058D000037C10B5002B32D04368427A5B7A9A423F
:1058E0002DD872B60268D36843B3984202D129E03A
:1058F000984202D0DB68002BFAD14368417A1B69D9
:10590000044653F8210048B1FFF75EFF72B66368A2
:10591000627A1B69002143F822102268937A013BC6
:10592000937223689A7A02B91A726268937A013B79
:10593000937263689A7A1AB10023237462B610BD19
:105940001A72F9E7C368D360D7E700BF084B1A782B
:1059500062B930B407480849D02505704FF080443B
:1059600001220C6010461A7030BC7047002070474E
:1059700084BEFF1F5EE400E008E100E01A491B4A14
:105980001B48F8B50B681B4D046843F080730B602F
:10599000136843F0010313602E6814B915E06469BD
:1059A0009CB1237A002BFAD023682F681B6820460D
:1059B00098472B68E188DB1B1B099AB28B42A280B7
:1059C00088BFE2806469002CEBD10A4B0A4A1B684D
:1059D00010880A4C9B1B1B0999B28342218001D974
:1059E0001180F8BDF8BD00BFFCED00E0001000E044
:1059F00078BEFF1F041000E0A0BEFF1FA6BEFF1F61
:105A0000F0B572B699B902688AB103790F2B0ED836
:105A1000274C218841FA03F5ED070AD503F10073FD
:105A200003F59063B2EB431F03D162B6F0BD204C87
:105A30002188002341FA03F212F0010207D001335A
:105A4000102BF7D162B6002203710260F0BD012570
:105A50009D402943218062B6164E174D174FDFF83F
:105A600064E0D9B20171346844F0020434602C68F7
:105A700044F002042C60A6F580268224A5F580253A
:105A800003F100733C6003F59063223E243D0C4C0F
:105A90008EF800105B0131702970217003601A606C
:105AA0005A609A60DA601A615A619A61DA61F0BDEF
:105AB000A8BEFF1F408004403C800440008000409E
:105AC0001F8000401A80004003790F2B11D8094A2B
:105AD00010B4137072B6084904790A880123A340F0
