:1000000000800020BD0100007D4E0000354E000044
:10001000354E0000354E0000354E0000354E0000D4
:10002000354E0000354E0000354E00007D4E00007C
:100030007D4E0000354E00005D64000061650000EB
:100040007D4E00007D4E00007D4E00007D4E000084
:100050007D4E00007D4E00007D4E00007D4E000074
:100060007D4E00007D4E00007D4E00007D4E000064
:100070007D4E00007D4E00007D4E00007D4E000054
:100080007D4E00007D4E00007D4E00007D4E000044
:100090007D4E00007D4E00007D4E00007D4E000034
:1000A0007D4E00007D4E00007D4E00007D4E000024
:1000B0007D4E00007D4E00007D4E00007D4E000014
:1000C0007D4E00007D4E00007D4E00007D4E000004
:1000D0007D4E00007D4E00007D4E00007D4E0000F4
:1000E0007D4E00007D4E00007D4E00007D4E0000E4
:1000F0007D4E00007D6600007D4E0000A967000077
:100100007D4E0000D56800007D4E00007D4E000051
:100110007D4E00007D4E00007D4E00007D4E0000B3
:100120007D4E00007D4E00007D4E00007D4E0000A3
:100130007D4E00007D4E00007D4E00007D4E000093
:100140007D4E0000454600007D4E00007D4E0000C3
:100150007D4E00007D4E00007D4E00007D4E000073
:100160007D4E0000B55300007D4E00007D4E000026
:100170007D4E00007D4E00007D4E00007D4E000053
:100180007D4E00007D4E00007D4E00007D4E000043
:100190007D4E00007D4E00007D4E00007D4E000033
:1001A0007D4E00007D4E00007D4E00007D4E000023
:1001B0007D4E00007D4E0000554A0000564B4CF22B
:1001C000205210B51A804DF628121A8000BF00BFC9
:1001D00004F058FE514B4FF010621A60504A9A607A
:1001E000504ADA60504A136813F4807304D14F49BF
:1001F0000B604FF4A85313604D4B1A78110703D5C9
:100200001A7842F008021A704A4B4B492A221A7097
:100210004A4A4B4B8B4204D252F8040F43F8040B6A
:10022000F8E7484B484900228B4202D243F8042B9E
:10023000FAE74649464A002352F8230041F82300D2
:1002400001336F2BF8D1434B434A802103F8011B44
:100250009342FBD1414B3D4A1A60414B8A221A70AE
:10026000A3F5805324225A70A0221A709A7992071B
:10027000FCD59A79D406FCD43A4A937903F00C035E
:10028000082B384BF9D105221A7143225A719A79F9
:100290009006FCD5334A9179324B4906FBD5324A58
:1002A0004FF0817111600521516020221A709A79F6
:1002B00002F00C020C2AFAD12C4B2D4A1A602D4B5D
:1002C0002D4A1A6000225A60072243F8042C2B4A58
:1002D000C3F80C2D62B604F023FF144B1B68DA0739
:1002E00005D5274804F07CFE264B274A1A60274B89
:1002F0001B785B0609D5234C234B22689A4204D114
:100300001F4804F06DFE0023236008F00FFA04F08C
:10031000BFFD04F087FDFEE70E200540308004405D
:10032000823F04000100002B10D0034014D0034092
:1003300002D0074000E00740C4A0FF1F7C970100E7
:100340002097FF1FC8A0FF1FA0C1FF1F0092FF1F23
:100350000000000000E400E05FE400E008ED00E0E1
:1003600000500640004006404480044004800440A1
:10037000C010050014E000E03F190100000020203B
:10038000EE5810631CE00340A5C3945A00F00740E8
:10039000FFFFFFFFFFFFFFFFFFFFFFFFFFFFFFFF6D
:1003A000FFFFFFFFFFFFFFFFFFFFFFFFFFFFFFFF5D
:1003B000FFFFFFFFFFFFFFFFFFFFFFFFFFFFFFFF4D
:1003C000FFFFFFFFFFFFFFFFFFFFFFFFFFFFFFFF3D
:1003D000FFFFFFFFFFFFFFFFFFFFFFFFFFFFFFFF2D
:1003E000FFFFFFFFFFFFFFFFFFFFFFFFFFFFFFFF1D
:1003F000FFFFFFFFFFFFFFFFFFFFFFFFFFFFFFFF0D
:10040000FFFFFFFFFFFFFFFFFFFFFFFFDEF9FFFF23
:1004100010B5054C237833B9044B13B10448AFF33E
:1004200000800123237010BDC8A0FF1F0000000042
:1004300078970100084B10B51BB108490848AFF385
:1004400000800848036803B910BD074B002BFBD0A0
:10045000BDE81040184700BF00000000CCA0FF1FFF
:1004600078970100C4A0FF1F000000000020704723
:10047000F8B51E1E03680446CCBF02EB42050025FA
:100480000F469B68D8BF164698477A192368626062
:100490005B690A4A6661934201D12046F8BD204655
:1004A00098470028F9D0064A064B516893FBF0F0B4
:1004B000884238BF084650602046F8BD6D040000F1
:1004C000E4A0FF1F40420F0070B4104C25686E1C62
:1004D0008D4283B0266016DB0D4D0E492B680093CC
:1004E000009A2D680B680195019D0D60D31A4FF09D
:1004F00000014FF47A7208BF012302FB06F221606B
:10050000B2FBF3F3438003B070BC7047F8A0FF1F49
:10051000A8BEFF1F00A1FF1F2DE9F04F43682D4C1F
:1005200083B006468946002B4BD104F085FDF36865
:1005300020601BB14846B16898478146264B1C682D
:100540000025002C36D07388A77C61686269632B14
:10055000236898BFA574D3F804808DF804508DF8F3
:1005600005508DF80650B9F1000F1CD004F10B03B3
:100570000DF1040E04F10E0C13F801BFBBF1000FD6
:100580000DD093F803A00AF101000BFB0000BAF1B3
:10059000000F04D009FB00F0000C8EF8000063454A
:1005A0000EF1010EE8D1204601ABC047A774A46844
:1005B000002CC8D130461921FFF786FF03B0BDE8F3
:1005C000F08F04F039FD22687368801A9842AAD32C
:1005D000ABE700BFFCA0FF1FF4A0FF1F0020704787
:1005E000044B0022FF204FF0FF31187099605A80B1
:1005F000DA607047E4A0FF1F00290BDD01EB410129
:1006000001441378037053784370937883700330F8
:100610008842F6D1704700BF70B582B0FF25F02444
:1006200000298DF804208DF806508DF8054010DD66
:1006300001EB41011E4604464518214601A800F081
:100640000BF89DF8042003343244AC428DF80420AA
:10065000F3D102B070BD00BFF0B404784678827860
:10066000E00000F0F80000EB800303EB0313034409
:100670002506C3F307235FD404F0400505F0FF0708
:1006800004F02004002D46D104F0FF00002C6CD0B3
:100690005533DDB2AB243B46FF2E1CD0002E79D063
:1006A0001CB106FB0444C4F307241DB106FB055529
:1006B000C5F307251BB106FB0333C3F30723F04340
:1006C000C0B200FB0000C0F307200444054403440B
:1006D000E4B2EDB2DBB2FF2A18D012FB02F0003216
:1006E00018BF012202EB102212F0FF0256D01CB1FB
:1006F00002FB0444C4F307241DB102FB0555C5F3F6
:1007000007251BB102FB0333C3F307230C704D70A5
:100710008B70F0BC704704F0FF075CBB00EBC004BB
:1007200000EB440000EBC0000412563BC4F1AB04E4
:10073000DDB2E4B23B46AFE704F0400707F0FF0547
:10074000E7B904F0200707F0FF04002F36D100EBD3
:10075000C00300EB430000EBC000C0F30720C0F172
:10076000AB055530EDB2C3B296E7DC43E4B21D46AB
:10077000034691E70024DD43EDB28DE704F0200449
:1007800004F0FF0594B903F15504E4B2C3F1AB03DF
:10079000DBB281E7FF231D461C469CE71546144645
:1007A00013460C704D708B70F0BC7047A3F156046B
:1007B000E4B20025C3F15503DBB26DE7D8431C4614
:1007C000C3B269E7406970474268017B13780B4305
:1007D000137070474268017B137823EA010313709A
:1007E000704700BF10B5044604F0DEF8204610BD87
:1007F00070B50D480D4C02F0B7FE0D4A0D4B126856
:10080000064653F8220007F04BFB0B4905463046DD
:1008100007F090FA0146284607F096FB07F070FDB6
:1008200080F30800206070BD00BAFF1FB4A2FF1F54
:1008300048A1FF1F7493000052491D3A10B50121D1
:100840000446042004F0F2FB0320012104F0EEFB37
:10085000A06950B10368094A5B68934209D14268B4
:10086000017B137823EA0103137004F0E5FBA083F6
:1008700010BD984704F0E0FBA08310BDD507000031
:10088000F0B58BB0002305688DF804308DF8053085
:100890008DF806302E68374A8DF8083096428DF86C
:1008A00009308DF80A305FD1827C04910446012A18
:1008B00001A805918DF81E308DF81F308DF820307D
:1008C000039015D08DF81D308DF81C308DF81B303D
:1008D0008DF81A308DF819308DF818300023AA6978
:1008E0008DF821302046099303A990470BB0F0BD45
:1008F000214A1378013303F0070313F0010F14BFEB
:100900008021002113709A0744BF41F04001C9B211
:100910005B0748BF41F0200110310022C9B20DF140
:100920001B030DF11E074FF4807EAAB19EFBF2F26D
:10093000D2B2501CC0B200FB01152D121870EEB2DD
:1009400005B1013E03F8036C00B11A7001339F42F8
:1009500008D0DA78002AE9D11A7003F8032C0133A1
:100960009F42F6D12568B9E70A4602AB01A9B04714
:100970000BB0F0BD410A000008A1FF1FF0B5857C57
:100980001C785E789B7889B0012D019102920392C8
:100990008DF816408DF817608DF8183017D00023A9
:1009A0008DF815308DF814308DF813308DF8123025
:1009B0008DF811308DF810300368002203219B69F7
:1009C0008DF81910079201A9984709B0F0BD1B4A8C
:1009D0001378013303F0070313F0010F137014BFF2
:1009E00080220022990744BF42F04002D2B25B0746
:1009F00048BF42F020021032D2B20DF113030DF1C4
:100A000016074FF4807EACB19EFBF4F4E4B2611C97
:100A1000C9B201FB02252D121970EEB205B1013EDB
:100A200003F8036C01B11C700133BB42C4D0DC7805
:100A3000002CE9D11C7003F8034CF5E708A1FF1F57
:100A4000F0B5857C1C785E789B7889B0012D01918A
:100A5000029203928DF816408DF817608DF81830C9
:100A600016D000238DF815308DF814308DF8133022
:100A70008DF812308DF811308DF810300268002397
:100A800092698DF81930079301A9904709B0F0BD1C
:100A90001B4A1378013303F0070313F0010F13709F
:100AA00014BF80220022990744BF42F04002D2B214
:100AB0005B0748BF42F020021032D2B20DF113039F
:100AC0000DF116074FF4807EACB19EFBF4F4E4B256
:100AD000611CC9B201FB02252D121970EEB205B1DD
:100AE000013E03F8036C01B11C700133BB42C5D059
:100AF000DC78002CE9D11C7003F8034CF5E700BF4B
:100B000008A1FF1F38B5044608460D4608F018F93D
:100B10002368024629465B682046984705462046DA
:100B200004F058F8284438BD38B5284A284B52F804
:100B3000204053F82030A342054602D91A462346E6
:100B40001446B3F5007F3ED2224A40F2FF1102EB79
:100B500043028C4202F1160228BF0C46002032F8F4
:100B6000021F0133A3420844F9D907F095F94FF069
:100B7000625107F0E9F90446174B53F8250007F0D6
:100B80008FF9164907F0E0F90146204607F0D2F840
:100B9000134B144A1968144B044643F8254052F885
:100BA000210007F07DF9214607F0CEF90F4B53F8ED
:100BB000251007F0C9F907F0A3FB0D4B80F30800DF
:100BC00043F8250038BD0024D6E700BF9893000005
:100BD000F0910000B0A3FF1F9891000017B7D13823
:100BE00048A1FF1F7493000070A2FF1F7097FF1FA2
:100BF00010B8FF1F10B5054C2068FFF795FF21685E
:100C0000034A044B52F821201A6010BD2897FF1F99
:100C100010B8FF1FB4A2FF1F0A4B1B68072B08DC8C
:100C2000094A41F23D43D15C29B10021D154FFF77B
:100C3000E1BF082B00D07047044B9B6A002BFAD011
:100C4000FFF7D6BD2897FF1FB0A3FF1F00BAFF1FF5
:100C500010B5002420460134FFF766FF082CF9D1B7
:100C600010BD00BF2DE9F04FDFF8A490DFF8A4B06D
:100C7000224F83B04FF00008214B59F8045F1C68E5
:100C8000002C2146B8BFE11DC91008FB01F319442F
:100C90008C42A8BF0C4623EAE37305EB8505A3420B
:100CA00008F1010885F308051DDA164A164E03EB14
:100CB000430304EB440402EB030A1444EDB2DBF8F3
:100CC00000108DF8065017F8210056F821308DF8E5
:100CD0000500514601A80AF1030A8DF80430FFF718
:100CE000BBFC5445EBD1B8F1080FC5D107480178DA
:100CF000FFF712FC03B0BDE8F08F00BFB891000011
:100D00009C97FF1F34BAFF1F3C930000E4A0FF1F15
:100D10000CB8FF1F3CA1FF1F2B4B2DE9F0472B4EBA
:100D20001B68326803EB43039342C4BF1A46336027
:100D3000FF2A82B03EDCDFF8B090D9F80030002BFB
:100D40001EDD234DDFF8A4A0DFF8A480214F00248E
:100D5000DAF80030327818F823108DF8051057F8BB
:100D600023308DF80430294601A88DF80620FFF7BE
:100D700073FCD9F800300134A34205F10305E7DC28
:100D800015480178FFF7C8FB144A13680133042B98
:100D90000CDD33680D4800218B42C8BF03F1FF33DF
:100DA0001160C8BF036002B0BDE8F087136002B0F5
:100DB000BDE8F087FF230C210948336005F08EF968
:100DC000084803F007FFB6E7B4A2FF1FBC97FF1F58
:100DD00034BAFF1F3C930000E4A0FF1F2C97FF1FB5
:100DE00010920000C897FF1F9C97FF1F3CA1FF1F98
:100DF000B89100002DE9F041484C4949494F23681A
:100E00003868494D4A6855F82060DFF844E1DFF85A
:100E10004481DFF81CC182B001930B681A44019B26
:100E20009B1B461C82F308023B2E134445F82020EE
:100E3000C4BF00223A608868CA6823601044DEF8A4
:100E40000040D8BF3E60024682F3080258F8247082
:100E500048F824208CFB03C001343B2C334ED1F8DE
:100E600010C03568D8BFCEF8004018444FEAE3738D
:100E7000C3EB6010C4BF0023CEF800304B698C690F
:100E8000DFF8D480C969DFF8D4E0ED1B63442A445D
:100E90002344274C3260D8F80050264E264F194480
:100EA00084FB023481F308013368386014445EF82F
:100EB00025704EF82510D2170135C2EB64141F4A75
:100EC0003B2DA3EB07030B441460C8BF0022336023
:100ED0001B49D4BFC8F80050C8F80020144A09685C
:100EE000184D82FB03621A44DB17C3EB6212002920
:100EF0002A600CDD144B01EB4101D2B2E4B2C0B266
:100F000019441A705C70987003338B42F9D10F4802
:100F1000017802B0BDE8F041FFF7FEBA38B8FF1F14
:100F200010B8FF1F04B8FF1F48B8FF1F44A1FF1FE0
:100F30008988888890A2FF1F64A2FF1F5CA1FF1F01
:100F40009C97FF1F58A1FF1F34BAFF1FE4A0FF1F8B
:100F500040A1FF1FC0BBFF1F6CA2FF1FD0BAFF1F25
:100F6000F0B50A4C83B004F19607642600252146AB
:100F700001A803348DF804608DF805508DF80650F3
:100F8000FFF76AFBBC42F2D103B0F0BD34BAFF1FD9
:100F90002DE9F043DFF86C80D8F80030002B83B0E7
:100FA00016DD154DC7B2CEB200244FF0C809294650
:100FB00001A88DF804708DF805608DF80690FFF794
:100FC0004BFBD8F800300134A34205F10305EEDCF9
:100FD0000A4C21782046FFF79FFAC82004F050F809
:100FE000FFF7BEFF21782046FFF796FA044B002258
:100FF0001A6003B0BDE8F08334BAFF1FE4A0FF1FFE
:10100000A497FF1F9C97FF1F2DE9F04F394E3368BF
:10101000DB0785B05DD5384D384C2B68039394E8D9
:101020000600039B5B1A93424CD33549DFF8F080EE
:101030002A680D6833490292D8F80020029851F8C6
:101040002510002A84E8030039DD00252E4F2F4E9D
:101050002F4CDFF8D0B0DFF8D090DFF8D0A022E03E
:101060005AF82520013B9342D8BF01222360D8BF04
:101070003A60DBF800208DF80230264B19F8221078
:1010800053F822308DF80110684631468DF8003053
:10109000FFF7E2FAD8F800300135AB4204F104045E
:1010A00006F103060BDD57F8043F012B2368D7D167
:1010B0000133FE2B2360DCDD00223A60D9E7164BBA
:1010C00000221A6015480178FFF726FA05B0BDE83E
:1010D000F08F304603F0F6FE074D084C00289CD0F8
:1010E0002B680193019B23600A233046636003F061
:1010F000EFFE92E74CA1FF1FA8BEFF1F60A1FF1FDC
:1011000044B8FF1F3097FF1F8CA1FF1F34BAFF1F89
:1011100038B9FF1F3C930000B0A2FF1FE4A0FF1FDF
:101120009C97FF1F3CA1FF1FB8910000C8A2FF1FA2
:101130002DE9F047354E3368DB0784B04ED5344D8A
:10114000344C2B68039394E80600039B5B1A93428C
:101150003DD33149314A2B680D68314902931368F8
:10116000029851F825102F4E012B84E803003368B4
:1011700045D0013B0A2B336001DC01231360DFF80B
:10118000B890D9F80030002B1EDD274DDFF8ACA059
:10119000DFF8AC80254F0024DAF80030327818F8F8
:1011A00023108DF8011057F823308DF800302946B0
:1011B00068468DF80220FFF74FFAD9F80030013465
:1011C000A34205F10305E7DC194B00221A60194818
:1011D0000178FFF7A1F904B0BDE8F087304603F0CD
:1011E00071FE0B4D0B4C0028ABD02B680193019B7B
:1011F00023600A233046636003F06AFEA1E70133EF
:10120000FE2B3360C4BF00231360B8E708B8FF1F8C
:10121000A8BEFF1F5CA2FF1F44B8FF1F4C97FF1F13
:101220003097FF1F2497FF1F34BAFF1F3C93000025
:10123000B0A2FF1FE4A0FF1F9C97FF1F3CA1FF1F50
:10124000B89100002DE9F041114C124E2468124B68
:1012500053F82430346803EB430301349C420F4BB2
:10126000346005460F461C7804DB0134E4B20021EB
:101270001C703160104607F069F8094E05EB450512
:10128000C3B2224639467019BDE8F041FFF7C4B930
:1012900044B8FF1FB0A2FF1F3097FF1F9897FF1F92
:1012A00034BAFF1F08B5064B064A19680020FFF73D
:1012B000C9FF0548BDE808400178FFF72DB900BF18
:1012C0009C97FF1F0000A040E4A0FF1F2DE9F04FF6
:1012D000594D5A4CDFF86881002685B02F46B2463A
:1012E0004FF064090EE08DF80C908DF80DA08DF88C
:1012F0000E30FFF7B1F998F8001051480136033766
:10130000FFF70AF9206803F0F5FC864239464FF0F2
:10131000FF0303A8E7DB0026474FB3464FF0640AFC
:101320004FF0FF0909E08DF80CA08DF80DB08DF895
:101330000E90FFF791F901360337206803F0DAFCCD
:101340008642394603A8EEDB98F800103C483A4F35
:10135000FFF7E2F828210A2003F0D0FC002603F072
:101360008FFEB1464FF0640B09E08DF80CB08DF89C
:101370000D908DF80E90FFF76FF901360337206856
:10138000DFF8B8A003F0B6FC8642394603A8ECDBD0
:1013900098F800102A48FFF7BFF8C8210A2003F088
:1013A000ADFC03F06DFEDAF80030002B14DD0026F2
:1013B000214FB1464FF0640A394603A88DF80CA0BE
:1013C0008DF80D908DF80E90FFF746F923680136E1
:1013D000B34207F10307EFDC98F800101848164FE6
:1013E0000026FFF799F8B3464FF0640A4FF0FF0963
:1013F00009E08DF80CA08DF80DB08DF80E90FFF778
:101400002BF901360337206803F074FC8642394615
:1014100003A8EEDB98F800100948074FFFF77CF8A7
:1014200032210A2003F06AFC002603F029FEB146AF
:101430004FF0640B10E000BF34BAFF1F9C97FF1FF2
:10144000E4A0FF1F8DF80CB08DF80D908DF80E9074
:10145000FFF702F9013603372068DFF850A303F0E5
:1014600049FC8642394603A8ECDB98F80010CD48C9
:10147000FFF752F864210A2003F040FC03F000FE5D
:10148000DAF80030002B14DD0026C74FB1464FF0CC
:10149000640A394603A88DF80CA08DF80D908DF8DC
:1014A0000E90FFF7D9F823680136B34207F103071E
:1014B000EFDCDFF8F0A298F80010DFF8FC9250465D
:1014C000FFF72AF8206803F015FCB74A00EB40014B
:1014D00011440346642700264FF0FF0B03A8C9F808
:1014E00000308DF80C708DF80D608DF80EB0FFF7A0
:1014F000B3F8504698F80010FFF70EF839460A2066
:1015000003F0FCFB03F0BCFDD9F80010A64B8DF8EE
:101510000C7001EB4101194403A88DF80D608DF8A2
:101520000E60FFF799F8504698F80010FEF7F4FFA8
:10153000D9F800109C4B8DF80C7001EB4101194457
:1015400003A88DF80D608DF80EB0FFF785F85046B2
:1015500098F80010FEF7E0FF3946282003F0CEFB94
:1015600003F08EFDD9F800108F4B8DF80C7001EB55
:101570004101194403A88DF80D608DF80E60FFF746
:101580006BF8504698F80010FEF7C6FF03210120C3
:1015900003F0B4FB022800F0D480844B844A18681E
:1015A000844B0093019203F0A5FB7F4BC9F8000028
:1015B00000EB40011944421CC31C00988DF80C70CC
:1015C0000DF10C0E02607A4A8DF80D6070461360C2
:1015D0008DF80EB0FFF740F89AF800105046FEF76D
:1015E0009BFF142003F086FB03F04AFD6F4A00982E
:1015F000136801689942C0F2418198F80010694867
:10160000FEF78AFF142003F075FB03F039FD684BE9
:10161000196823689942C0F2208198F80010614847
:10162000FEF77AFF2368002B14DD0026DFF878A18F
:10163000B3466427514603A88DF80C708DF80DB0A1
:101640008DF80EB0FFF708F823680136B3420AF1AF
:10165000030AEFDC534E98F800103046FEF75CFFAB
:101660000321012003F04AFB022800F0A780504B21
:101670002068019303F03EFBC21C431CC9F8000024
:1016800000EB40010098DFF820B10360019B1A6075
:1016900003AB1846594464274FF0000A4FF0FF0986
:1016A0008DF80C708DF80DA08DF80E90FEF7D4FF1C
:1016B00031783046FEF730FF142003F01BFB03F0B7
:1016C000DFFC0098226801689142C0F2B98098F866
:1016D00000103448FEF720FF142003F00BFB03F04A
:1016E000CFFC019B196823689942C0F2988098F852
:1016F00000102C48FEF710FF2368002B13DD002696
:1017000037464FF06409294603A88DF80C908DF8F0
:101710000D708DF80E70FEF79FFF23680136B342FF
:1017200005F10305EFDC98F800101E48FEF7F4FE03
:10173000C8210A2003F0E2FA03F0A2FC05B0BDE8DC
:10174000F08F1A4B18681B4B009303F0D3FAC9F8BB
:101750000000322003F0CEFA164AD9F800101060CB
:1017600011488DF80C7001EB4101014403A88DF87C
:101770000D608DF80EB0FEF76FFF0C490D4A0B6837
:1017800011689942BFF649AF074B8DF80C7001EB19
:101790004101194403A88DF80D608DF80EB0FEF7D5
:1017A0005BFF3AE7E4A0FF1F34BAFF1F9C97FF1FBF
:1017B00038A1FF1F34A1FF1F30A1FF1F2068364E44
:1017C00003F098FAC9F80000322003F093FAD9F830
:1017D0000010009B01EB4101186031444FF0640A96
:1017E0004FF00009FF2703A88DF80CA08DF80D908D
:1017F0008DF80E70FEF730FF009B19682368994240
:10180000BFF675AF01EB4101314403A88DF80CA080
:101810008DF80D908DF80E70FEF71EFF67E71E4BDA
:10182000642001EB410119440022FF238DF80C00D4
:1018300003A88DF80D208DF80E30FEF70DFF56E74A
:1018400001EB4101594403A88DF80C708DF80DA0EF
:101850008DF80E90FEF700FF39E70F4B01EB4101C9
:101860001944642300228DF80C3003A8FF238DF85F
:101870000D208DF80E30FEF7EFFECEE6064B8DF80C
:101880000C7001EB4101194403A88DF80D608DF82F
:101890000EB0FEF7E1FEB0E634BAFF1FF0B51E4F02
:1018A0003B68DB0785B005461FD51C4E1C4C3368D2
:1018B0000393039B1B4822886188A0FB0303C2EBB0
:1018C00093139BB299420ED833680293154A029B38
:1018D000A2FB03239B092380FFF7F8FC284603F0B3
:1018E00009FA114B186005B0F0BD384603F0EAFA6A
:1018F0000A4E0028DAD0336801930A4A019B0A494C
:10190000074C09886180A2FB03239B09384623808A
:1019100003F0DEFACBE700BF58A2FF1FA8BEFF1FEF
:101920003CB8FF1FD34D62104897FF1F2DE9F04FC1
:10193000002085B003F034FADFF824934928C9F871
:1019400000004FF00A0176D0B348DFF818A3B34C7B
:10195000B34EB44DDFF810B3B34F04F0BFFBB34840
:1019600003F038F9B248DFF804E3B2494FF47A7271
:101970000260CEF800200222CAF8002008220023CC
:101980002260FF220A701846492103224FF0010805
:1019900033602B600193CBF800803A60C9F80010E7
:1019A000009103F0FDF9492806D09DE80A00184689
:1019B00003F010FA9BF80080012003F0F1F9404594
:1019C00003D04146012003F005FA022003F0E8F9B4
:1019D0009AF80080804503D04146022003F0FAF9CE
:1019E000032003F0DDF92478844203D0214603204C
:1019F00003F0F0F9042003F0D3F93C78844203D0DB
:101A00002146042003F0E6F9052003F0C9F93478F3
:101A1000844203D02146052003F0DCF9062003F0C0
:101A2000BFF92C78844203D02146062003F0D2F976
:101A300005B0BDE8F08F8048DFF82C82DFF82492F3
:101A4000764C794F764EDFF8E8A1764D04F046FBF0
:101A5000764803F0BFF8012003F0A2F9C8F80000AF
:101A6000022003F09DF9C9F80000032003F098F963
:101A70002060042003F094F93860052003F090F909
:101A80006E4B306033F81030CAF80030062003F097
:101A900087F9102128606A4804F020FB3168634808
:101AA00003F0E8F8614803F095F81021654804F068
:101AB00015FBDAF800105D4803F0DCF85B4803F032
:101AC00089F81421604804F009FBD8F80010574841
:101AD00003F0D0F8554803F07DF80E215B4804F080
:101AE000FDFAD9F80010514803F0C4F84F4803F04C
:101AF00071F81021564804F0F1FA39684B4803F0A8
:101B0000B9F84A4803F066F80E21524804F0E6FAA4
:101B10002168464803F0AEF8444803F05BF8122110
:101B20004D4804F0DBFA2968404803F0A3F83F4829
:101B300003F050F8D8F800303B4A013B032B84BF38
:101B40000123C8F800303B68092B84BF03231360CE
:101B50002368324A092B84BF032313603368304A59
:101B60000A2B15D8092B16D02B682E4A21680D2B6D
:101B700084BF00231360CD2303FB01F3002BB8BF08
:101B800007332C4ADB103233137005B0BDE8F08FF9
:101B900000231360E8E7DFF8D8A02B68DFF8D490C3
:101BA000DFF8D480DAF800B019F82320214E58F875
:101BB00023308DF8083003A902A8FF278DF80920EB
:101BC0008DF80A70FEF748FD03AA59462348FEF730
:101BD00013FD31783046FEF79FFC642003F050FA85
:101BE0002B68DAF800A019F8232058F823308DF874
:101BF000092002A803A98DF808308DF80A70FEF7B5
:101C00002BFD514603AA1548FEF7F6FC3178304605
:101C1000FEF782FCA8E700BF20920000CCBAFF1FAD
:101C200030B8FF1F3CA1FF1F48A1FF1FC897FF1F2F
:101C3000BCA2FF1FE4A0FF1F2C920000A897FF1F6B
:101C4000389200004C9200006092000078920000F0
:101C5000889200009C920000AC92000034BAFF1FF2
:101C6000C0A2FF1F44B8FF1FC097FF1F90A3FF1F14
:101C70009C97FF1FB89100003C9300002DE9F047AE
:101C80007B487C4CDFF83C9201F030FE0C217A4816
:101C900002F082FD0A21794804F020FA784802F027
:101CA00099FF0221052003F0C1F90221062003F06B
:101CB000BDF9052003F0ACF92060062003F0A8F977
:101CC000704A23681060002B40F0B480012800F0B7
:101CD000BF80002800F0C4806B48046814F0010441
:101CE00000F084803222DFF8C0A1684968480023F0
:101CF000FEF7BEFBFF238AF80030FFF731F99AF8B0
:101D000000105046FEF708FCFFF72AF99AF8001079
:101D10005046FEF701FC4FF47A7003F0B1F9FFF77B
:101D20001FF99AF800105046FEF7F6FBD9F800C0EC
:101D3000BCF1000F1BDDDFF89081564F564D00249B
:101D40009621012002F0DAFFFE2148F8040F01205D
:101D500002F0D4FF012147F8040F002002F0CEFF6B
:101D6000D9F800C045F8040F0134A445E8DC0CF1B3
:101D700080434A4F013B07EB83074FF47A780121F8
:101D80000025BCF1000F1FDD4348454B454C0BE0DF
:101D90002668013AB2421A60D8BF0160B84203F126
:101DA000040304F104040FD050F8042F012A1A6828
:101DB000EED10132FE2A1A60F0DDB842056003F16F
:101DC000040304F10404EFD1B8F10108D9D141466C
:101DD0006420FFF7DDF8FFF7C3F89AF800103248E7
:101DE000FEF79AFBBDE8F047FFF7A0BD03F06AF8E5
:101DF00000283FF477AF2D49254B08685C60FF222F
:101E000001255C619C609D741A735A739A73DA732E
:101E10001A745A7400B90B60254A116801B18B60BD
:101E200013600022234918489A619A83196003F0CD
:101E30004FF857E7012B7FF44FAF00287FF44CAFEA
:101E400011231D490E48C9F80030FEF75BFE43E739
:101E500032231A490A48C9F80030FEF753FE3BE71F
:101E60000A2317490648C9F80030FEF74BFE33E74E
:101E7000ACA3FF1F50A1FF1F0082FF1FC0920000F4
:101E8000C897FF1F54A1FF1F0CA1FF1F34BAFF1FEB
:101E900010A1FF1F34B9FF1F8CA1FF1F90A1FF1FCE
:101EA00038B9FF1FC8A2FF1FE4A0FF1FF4A0FF1F47
:101EB00004A1FF1F7C910000D4920000CC9200008E
:101EC000DC9200009C97FF1FC4A2FF1F30B50C4B93
:101ED0000C4C1B680C4A0D480D492468046083B003
:101EE00001930C4B019D1D6001230B601370FFF7E4
:101EF00037F809480178FEF70FFB03B030BD00BF8B
:101F0000A8BEFF1F90A3FF1F9097FF1FBCA2FF1F3B
:101F1000C4A2FF1F68A2FF1FE4A0FF1F2DE9F0432A
:101F2000484E4948494D83B0062104F0D7F8376838
:101F3000002401A968468DF800408DF801408DF815
:101F40000240FEF789FB01AA39464148FEF754FBDF
:101F500029782846FEF7E0FA642003F091F8D6F8D5
:101F60000090FF2701A968464FF0C8088DF800705F
:101F70008DF801708DF80280FEF76EFB01AA4946CC
:101F80003348FEF739FB29782846FEF7C5FA4FF4A7
:101F90007A7003F075F8D6F800908DF8004001A92A
:101FA00068468DF801408DF80240FEF755FB01AA06
:101FB00049462748FEF720FB29782846FEF7ACFA69
:101FC0004FF4967003F05CF8D6F800908DF802801C
:101FD00001A968468DF800708DF80170FEF73CFB92
:101FE00001AA49461A48FEF707FB29782846FEF75A
:101FF00093FA4FF47A7003F043F836688DF8004096
:10200000684601A98DF801408DF80240FEF724FBD7
:1020100001AA31460E48FEF7EFFA29782846FEF766
:102020007BFA0C4B012520461D6002F0B9FEA84248
:1020300003D02946204602F0CDFEFFF777FC03B01F
:10204000BDE8F0839C97FF1FE4920000E4A0FF1F0F
:1020500034BAFF1FC0A2FF1F2DE9F047BC4CBD489A
:1020600082B0214601F0E2FC68B9BB4B1C68012C30
:1020700000F08B80B94ABA4B12680192019A1A603B
:1020800002B0BDE8F087B74EA368B74833800B2194
:1020900004F024F83188B54802F0ECFDB34802F0B2
:1020A00099FD33884FF6FF72934200F08580B04C63
:1020B000DFF8A482DFF8C092DFF8E0A204F11E0787
:1020C00002E0BC4256D0338834F8025F9D42F8D11A
:1020D0004DF6270101228B42C8F8002045D04FF66B
:1020E00007018B425AD047F6870293425CD045F6EF
:1020F000A70293425CD046F29F02934241D04EF237
:102100001F02934200F0D38049F26F02934200F025
:10211000D28040F6F702934200F0D1804AF25F028B
:10212000934200F0EB80FF2D00F0A3804CF23F03C0
:102130009D4200F0508144F2BF039D4200F06E8149
:1021400041F2EF039D4200F0BE8048F27F039D42C2
:1021500000F0268142F2DF039D42B2D147220123E3
:1021600089F80020CAF80030ABE74123BC4289F867
:102170000030A8D17F4B00221A60764801F0FEFBA8
:1021800078E7452389F800309BE77A4E186033687A
:10219000082B05463ADD002333606BE74423CAF879
:1021A000002089F800308CE7422389F8003088E766
:1021B000432389F8003084E76E4A13680133072B04
:1021C0001360DADD6C4C6D48102103F087FF207836
:1021D00004F008F8654802F0FDFC2378412B00F07C
:1021E0006481432BC9D1664B012205201A7002F08D
:1021F000D7FD092803D00921052002F0EBFD614B32
:10220000614A1968116018221A60B6E75A4F387887
:1022100003F0E8FF554802F0DDFC3B78412B77D016
:10222000442B2ED0422B00F0DE80432B00F0FE80AA
:10223000472B00F01781482B00F02481492B00F038
:102240003881452B00F04781462BA4D14D4B4E4A97
:102250001968116005204EF21F021A6002F0A0FDFD
:10226000052803D00521084602F0B4FDFEF778FEEC
:1022700091E7502389F8003000F0B4FB414B1D601A
:102280001FE7052002F08CFD032803D00321052061
:1022900002F0A0FD3B4B3C4918683C4A08604FF6F1
:1022A0000700012118601160FEF75AFE73E746230C
:1022B00089F8003005E7482389F8003001E7492311
:1022C00089F80030FDE6324A13684C210C2B89F85E
:1022D000001000F3BE8001330620DDB2136002F06F
:1022E0005FFD854203D02946062002F073FD00F011
:1022F00079FB244B41F2EF021A60E2E64A2389F8A7
:10230000003000F06FFB1F4B4AF25F021A60D8E604
:10231000052002F045FD18B12946052002F05AFDBE
:10232000184B19491C68194A0C604DF62705032102
:10233000012418481D60146003F0D0FE0B4802F021
:1023400049FCFEF70DFE14480178FEF7E5F822E798
:1023500094A2FF1FACA3FF1F40B8FF1FA8BEFF1F22
:10236000B8A2FF1F30BAFF1FEC920000C897FF1FF2
:102370004E97FF1F34B8FF1F0CB8FF1FF8920000E4
:102380009097FF1FBCA2FF1F90A3FF1FA497FF1FE2
:102390003CA1FF1F0C930000E4A0FF1F9497FF1FB8
:1023A0005A4A13685221002B89F8001040F3A48088
:1023B000013B0620DDB2136002F0F2FC854203D03F
:1023C0002946062002F006FD00F00CFB504B48F2B7
:1023D0007F021A6075E64B2389F8003000F002FB9B
:1023E0004B4B1D606DE6052002F0DAFC012803D09E
:1023F0002146052002F0EEFC454B464A1968116063
:1024000047F68702002164201A60FEF7C1FDFEF73F
:10241000A7FD41480178FEF77FF8BCE6512389F813
:10242000003000F0DFFA3A4B1D604AE6052002F06A
:10243000B7FC022803D00221052002F0CBFC344B6C
:10244000344A1968116045F6A7021A60FEF788FD44
:10245000A1E600250620156002F0A2FC00287FF40A
:1024600042AF44E7052002F09BFC062803D006217A
:10247000052002F0AFFC264B264A1968116042F293
:10248000DF02BFE7224B234A19681160052049F299
:102490006F021A6002F084FC072803D00721052090
:1024A00002F098FC00216420AFE7FFF737FD2378A6
:1024B00097E6174B174A19681160052040F6F70296
:1024C0001A6002F06DFC08283FF4D0AE0821052008
:1024D00002F080FCCAE60E4B0E4A19681160052016
:1024E00046F29F021A6002F05BFC0428DAD0042155
:1024F000052002F06FFCD5E70D250620156002F0DF
:102500004FFCA8427FF45CAF5EE700BF3CA1FF1F19
:10251000BCA2FF1F90A3FF1FE4A0FF1F2DE9F04FF7
:10252000B84CB94A2368126887B00593059B9B1A7B
:10253000FA2B00F28680B54B1B684DF627029342BA
:1025400000F08880172B79D049F26F02934200F097
:10255000968040F6F702934200F04B8147F68702DF
:10256000934200F0498146F29F02934200F0DE80E0
:1025700045F6A702934200F0BE81182B00F08D8033
:102580004EF21F02934200F0B9814FF607029342C8
:1025900000F0268142F2DF02934200F0B2814AF25B
:1025A0005F02934200F052814CF23F02934200F0EE
:1025B000C980FF2B00F0AF8144F2BF02934200F0CC
:1025C000C08148F27F02934203D041F2EF0293426E
:1025D00034D1DFF864A2DAF80030002B1FDD8C4E16
:1025E000DFF860B2DFF86092DFF840820025C8278C
:1025F000DBF800308DF8127019F8232058F82330DA
:102600008DF81030314604A88DF81120FEF724F81B
:10261000DAF800300135AB4206F10306E8DC7D480C
:102620000178FDF779FF23687B4A0493049B1268C5
:102630009B1AB3F57A7F01D9FFF748FC07B0BDE8D4
:10264000F08FFFF709FD714B1B684DF6270293428F
:102650007FF478AF714C2368012BEFD10021642007
:10266000FEF796FC0B216E4803F038FDFEF778FC70
:1026700068480178FDF750FF00232360DEE7694AD0
:1026800041F23D43D15C19B10021D154FEF7E0FA8B
:10269000FEF7E8FA07B0BDE8F08F634C2378002B13
:1026A000CCD0DFF8A0A1DFF89091DAF80030DFF8A5
:1026B00098815E4FD9F800B018F82320554D57F88F
:1026C00023308DF80C3004A903A8FF268DF80D20C7
:1026D0008DF80E60FDF7C0FF04AA59464C48FDF77F
:1026E0008BFF29782846FDF717FF642002F0C8FC0D
:1026F000DAF80030D9F8009018F8232057F8233082
:102700008DF80C3003A804A98DF80D208DF80E600B
:10271000FDF7A2FF04AA49463D48FDF76DFF297861
:102720002846FDF7F9FE0023237087E73D4A41F272
:102730003D43D15C19B10021D154FEF789FAFEF76F
:1027400059FB7BE72368344A0193019B12689B1A6B
:10275000B3F57A7F00F22981354C2368002B7FF492
:102760006DAF344D34482A680668072AD8BF013255
:102770004FF0E60303FB02F3D8BF2A60002BB8BF7B
:102780000733DB10B421962214338DF80C108DF82A
:102790000D2004A903A88DF80E30FDF75DFF04AAF3
:1027A00031461B48FDF728FF1A480178FDF7B4FEB3
:1027B0000E21224803F092FC2968214802F05AFABF
:1027C0001F4802F007FA042002F0EAFA2D78854249
:1027D00003D02946042002F0FDFA012323602DE7EF
:1027E0000E4C2368012B00F0D8801E20FFF756F80E
:1027F00024E7FEF79DFC21E7FEF70EFAFEF78CFAC0
:102800001CE700BFA8BEFF1FB8A2FF1FBCA2FF1F8E
:1028100034BAFF1FE4A0FF1F68A2FF1FA497FF1F89
:1028200010930000B0A3FF1F9097FF1F3C93000080
:10283000C4A2FF1F48A1FF1F9C97FF1F2C930000FD
:10284000C897FF1F3CA1FF1FB891000023685B4A97
:102850000093009B12689B1AB3F57A7F00F2A28066
:10286000574C2368002B7FF4E9AE564D29680729A1
:1028700001DC01312960EB2202FB01F2E62303FBBC
:1028800001F3002AB8BF07324F48504E0768002BAB
:10289000B8BF0733D21014323C21DB10143332702E
:1028A00003A896228DF80C1004A98DF80E308DF82F
:1028B0000D20FDF7D1FE04AA39464548FDF79CFEE0
:1028C00031784248FDF728FE0C21424803F006FC0F
:1028D0002968414802F0CEF93F4802F07BF9032015
:1028E00002F05EFA2D7885423FF477AF2946032047
:1028F00002F070FA71E7FEF787FB9FE6FEF7D2FC65
:102900009CE6FEF789F9354B1B68B42B7FF796AE32
:10291000FEF7DCFC92E62368284A0293029B1268C9
:102920009B1AB3F57A7F43D8254C2368002B7FF49C
:1029300085AE244D29680029C4BF01F1FF3129600B
:1029400099E723681D4A0393039B12689B1AB3F50A
:102950007A7F30D81A4C2368002B7FF46FAE204D5D
:1029600019482A680668002AC8BF02F1FF324FF0F2
:10297000E60303FB02F3C8BF2A60002BB8BF07338E
:10298000DB10B421962214338DF808108DF809203D
:1029900004A902A88DF80A30FFE6FEF797FC002391
:1029A000236022E7FFF792FA5AE7FFF78FFAD3E6A0
:1029B000FFF78CFAB8E7FFF789FACBE768A2FF1FA9
:1029C000C4A2FF1FCCBAFF1F9C97FF1FE4A0FF1FEC
:1029D00034BAFF1F1C930000C897FF1FB4A2FF1F4B
:1029E00048A1FF1F10B51F4B1F491B6848F27F020B
:1029F0000020934282B0086019D041F2EF02934266
:102A000015D04AF25F02934211D0FF2B0FD04CF247
:102A10003F0293420BD044F2BF02934207D0B3F57A
:102A20007A7F19D01149124A0B6001231370114C9F
:102A3000114B22680092009A10481A6000F09EFF25
:102A400023680F4A0193019B12689B1AFA2B01D944
:102A5000FFF702FB02B010BD044B4DF627021A60CF
:102A6000E5E700BFBCA2FF1FC4A2FF1F90A3FF1F8A
:102A70009097FF1FA8BEFF1F68A2FF1FACA3FF1FF8
:102A8000B8A2FF1F30B410F0800F029D039C40F0ED
:102A900033820C600B6000BF00BF00BF00BF00BFEF
:102AA00000BF00BF00BF00BF00BF00BF00BF00BF2E
:102AB00000BF00BF00BF00BF00BF00BF00BF00BF1E
:102AC0000C6000BF00BF00BF00BF00BF00BF00BF61
:102AD00000BF00BF00BF00BF00BF00BF00BF00BFFE
:102AE00000BF00BF00BF00BF00BF00BF10F0400F1D
:102AF00000F053810D600A6000BF00BF00BF00BF3F
:102B000000BF00BF00BF00BF00BF00BF00BF00BFCD
:102B100000BF00BF00BF00BF00BF00BF00BF00BFBD
:102B200000BF0D6000BF00BF00BF00BF00BF00BFFF
:102B300000BF00BF00BF00BF00BF00BF00BF00BF9D
:102B400000BF00BF00BF00BF00BF00BF00BF10F04C
:102B5000200F00F09F810D600A6000BF00BF00BF22
:102B600000BF00BF00BF00BF00BF00BF00BF00BF6D
:102B700000BF00BF00BF00BF00BF00BF00BF00BF5D
:102B800000BF00BF0D6000BF00BF00BF00BF00BF9F
:102B900000BF00BF00BF00BF00BF00BF00BF00BF3D
:102BA00000BF00BF00BF00BF00BF00BF00BF00BF2D
:102BB00010F0100F00F055810D600A6000BF00BFDB
:102BC00000BF00BF00BF00BF00BF00BF00BF00BF0D
:102BD00000BF00BF00BF00BF00BF00BF00BF00BFFD
:102BE00000BF00BF00BF0D6000BF00BF00BF00BF3F
:102BF00000BF00BF00BF00BF00BF00BF00BF00BFDD
:102C000000BF00BF00BF00BF00BF00BF00BF00BFCC
:102C100000BF10F0080F00F00B810D600A6000BFCC
:102C200000BF00BF00BF00BF00BF00BF00BF00BFAC
:102C300000BF00BF00BF00BF00BF00BF00BF00BF9C
:102C400000BF00BF00BF00BF0D6000BF00BF00BFDE
:102C500000BF00BF00BF00BF00BF00BF00BF00BF7C
:102C600000BF00BF00BF00BF00BF00BF00BF00BF6C
:102C700000BF00BF10F0040F00F0C1800D600A60BB
:102C800000BF00BF00BF00BF00BF00BF00BF00BF4C
:102C900000BF00BF00BF00BF00BF00BF00BF00BF3C
:102CA00000BF00BF00BF00BF00BF0D6000BF00BF7E
:102CB00000BF00BF00BF00BF00BF00BF00BF00BF1C
:102CC00000BF00BF00BF00BF00BF00BF00BF00BF0C
:102CD00000BF00BF00BF10F0020F77D00D600A6088
:102CE00000BF00BF00BF00BF00BF00BF00BF00BFEC
:102CF00000BF00BF00BF00BF00BF00BF00BF00BFDC
:102D000000BF00BF00BF00BF00BF0D6000BF00BF1D
:102D100000BF00BF00BF00BF00BF00BF00BF00BFBB
:102D200000BF00BF00BF00BF00BF00BF00BF00BFAB
:102D300000BF00BF00BFC00700F1C5800C600B6082
:102D400000BF00BF00BF00BF00BF00BF00BF00BF8B
:102D500000BF00BF00BF00BF00BF00BF00BF00BF7B
:102D600000BF00BF00BF00BF00BF0C6000BF00BFBE
:102D700000BF00BF00BF00BF00BF00BF00BF00BF5B
:102D800000BF00BF00BF00BF00BF00BF00BF00BF4B
:102D900000BF00BF00BF30BC70470C600B6000BFBD
:102DA00000BF00BF00BF00BF00BF00BF00BF00BF2B
:102DB00000BF00BF00BF00BF00BF00BF00BF00BF1B
:102DC00000BF00BF00BF00BF0C60ABE60C600B6033
:102DD00000BF00BF00BF00BF00BF00BF00BF00BFFB
:102DE00000BF00BF00BF00BF00BF00BF00BF00BFEB
:102DF00000BF00BF00BF00BF00BF0C6086E70C60D3
:102E00000B6000BF00BF00BF00BF00BF00BF00BF1E
:102E100000BF00BF00BF00BF00BF00BF00BF00BFBA
:102E200000BF00BF00BF00BF00BF00BF0C603DE798
:102E30000C600B6000BF00BF00BF00BF00BF00BF41
:102E400000BF00BF00BF00BF00BF00BF00BF00BF8A
:102E500000BF00BF00BF00BF00BF00BF00BF0C60CD
:102E6000F3E60C600B6000BF00BF00BF00BF00BFF7
:102E700000BF00BF00BF00BF00BF00BF00BF00BF5A
:102E800000BF00BF00BF00BF00BF00BF00BF00BF4A
:102E90000C60A9E60C600B6000BF00BF00BF00BF64
:102EA00000BF00BF00BF00BF00BF00BF00BF00BF2A
:102EB00000BF00BF00BF00BF00BF00BF00BF00BF1A
:102EC00000BF0C605FE60D600A6000BF00BF00BF7E
:102ED00000BF00BF00BF00BF00BF00BF00BF00BFFA
:102EE00000BF00BF00BF00BF00BF00BF00BF00BFEA
:102EF00000BF00BF0D6039E70D600A6000BF00BF72
:102F000000BF00BF00BF00BF00BF00BF00BF00BFC9
:102F100000BF00BF00BF00BF00BF00BF00BF00BFB9
:102F200000BF00BF00BF0D60CBE500BF2DE9F04F33
:102F300085B00C4603900068002800F08780036885
:102F4000504A1B68934240F09A804268017B137894
:102F50000B4313704C4BA26819681E681D681F68EC
:102F600026F4005625F48055002A41F4405846F4D2
:102F7000805645F4005527F4405756DD23681878ED
:102F800018B1237B80FA53F0C0B2A37C3E4901976D
:102F900003FB0000C0F30720334600954246FFF7CD
:102FA00071FD2368587818B1637B80FA53F0C0B282
:102FB000E37C3549019703FB0000C0F3072033464B
:102FC00000954246FFF75EFD2368987818B1A37B11
:102FD00080FA53F0C0B2237D2B49019703FB000018
:102FE000C0F30720334642460095FFF74BFDA26829
:102FF000236894F80CA094F80D9094F80EC094F9FE
:1030000015B094F80FE0207C617C013A5B44CAEB78
:103010000E0EC9EB0000CCEB0101002A2360A26078
:1030200084F80CE06073A173A9DC039B186850B1AD
:103030000368164A5B6893421DD14268017B13788E
:1030400023EA0103137005B0BDE8F08F0E4B8A68C8
:1030500019681E681D681F6826F4005625F48055FF
:10306000002A41F4405846F4805645F4005527F4B0
:10307000405783DCE7E705B0BDE8F04F18479847B5
:1030800068E700BFC907000000F00F40D507000047
:10309000F0B5044689B00D4601F0CEFFA38BC01AEF
:1030A00080B2B0F57A7FF7D3297B687BAF7BEE7B6C
:1030B0002A7C6B7C8DF810108DF811002968A87C93
:1030C00095F813E08DF812708DF813602F7D8DF850
:1030D00014206E7DAA698DF8153001916B688DF80A
:1030E000160001A904F118008DF817E0029303936C
:1030F00007928DF818708DF81960FFF717FF01F02F
:103100009BFFA08309B0F0BD2DE9F04383B001F02F
:10311000FFFD684B68491B680193684E684B019A34
:1031200009686848684D1A6000F0D8FB3268674F3C
:103130002F6000236B722B612B72EB600AB9B2E037
:103140001A465369002BFBD15561614C614B5E48B7
:103150002B604FF00008C5F81480A5F80480A5F88E
:10316000068085F80A8000F0BBFA012004F5A2521F
:1031700043464146276084F80880C4F80C8060729A
:103180002261A64601E0DEF8102042F82310627AA0
:103190004F4801339A42F6DC3268484B0AB984E062
:1031A0001A465369002BFBD1546141F23C4241F273
:1031B0003D434FF00009DFF82C814749474804F8A8
:1031C000029004F803904A4601232160C4F81804D1
:1031D0004FF480614248C4F81490A4F80490A4F815
:1031E000069084F80A9004F001F8012008F1180212
:1031F000C8F800704B46494688F80890C8F80C900B
:1032000088F80900C8F81020474600E03A6942F8FB
:10321000231098F80920334801339A42F6DC3268CB
:10322000264B0AB943E01A465369002BFBD1C2F87A
:103230001480DFF8C4902C4B2C4FC8F800300026C7
:10324000002348460022C8F81460A8F80460A8F8D3
:10325000066088F80A60C8E90823C9F80050C9F870
:10326000044089F80860C8F8286089F80960C9F83E
:103270000C6089F8106001F063FB1D4A1D49484647
:1032800004F090F838463E7287E820017E72FE60B6
:103290003E7401F055FB3846154A164904F082F891
:1032A00003B0BDE8F08335604FE718607DE7186034
:1032B000BFE700BFA8BEFF1FA097FF1F70BEFF1F84
:1032C00068A2FF1FACA3FF1F94A3FF1F7091000013
:1032D000B0A3FF1FD89B0000C0930000D093000054
:1032E000F4B7FF1F00BAFF1FCC9300007CA1FF1FA3
:1032F0002097FF1FE507000068A1FF1FF8B5002118
:10330000054601F011FB002800F0D08041F23C435B
:10331000EB5C072B00F2CA80DFE803F0C9D0D7DEF0
:10332000E5ECF304D5F81C74C5F8380405F587649A
:103330003B1D224607F5827705F23C4133F8026BCC
:1033400042F8046F9F42F9D1D5F8207405F5C762A1
:103350003B1D07F5827733F8026B42F8046F9F42FA
:10336000F9D1D5F8247405F638023B1D07F58277AC
:1033700033F8026B42F8046F9F42F9D1D5F82874F4
:1033800005F638223B1D07F5827733F8026B42F8C9
:10339000046F9F42F9D1D5F82C7405F638423B1DD5
:1033A00007F5827733F8026B42F8046F9F42F9D138
:1033B000D5F8307405F638623B1D07F5827733F88F
:1033C000026B42F8046F9F42F9D1D5F8347405F5C9
:1033D00081523B1D183207F5827733F8026B42F8B1
:1033E000046F9F42F9D105F59152031D183200F583
:1033F000827033F8026B42F8046F8342F9D1D5F83A
:10340000180480B105F5886200F5006732F9043CC4
:1034100030F9026B03FB06F3DB13874222F8043C0E
:1034200002F10402F2D105F5A2500430384E03F047
:10343000BFFE05F2164705F1160054F8041F21FBE4
:1034400001F1B1FA81F336F81320B1FBF2F31A441B
:103450005308B1FBF3F10B445B0820F8023FB8427C
:10346000EBD141F23D430122EA54D5F81C0401F0AE
:1034700017FAD5F8200401F013FAD5F8240401F066
:103480000FFAD5F8280401F00BFA41F23C4304226C
:10349000EA5405F586610EC9D5F82C04C5F81C045C
:1034A000C5F82014C5F82424C5F82834F8BD41F225
:1034B0003C430122C5F81C04EA54F8BD41F23C43E8
:1034C0000222C5F82004EA54F8BD41F23C4303222D
:1034D000C5F82404EA54F8BD41F23C430422C5F87F
:1034E0002804EA54F8BD41F23C430522C5F82C04F7
:1034F000EA54F8BD41F23C430622C5F83004EA54D0
:10350000F8BD41F23C430722C5F83404EA54F8BD43
:10351000DC9B00002DE9F0410021804601F004FA17
:10352000F8B1D8E90823011D00F5827E0F684E68C6
:103530008D68103151F8044CC7FBC723C6FBC62366
:10354000C5FBC523C4FBC4238E45EFD8D8F828108B
:103550000131C8E90823C8F82810BDE8F04101F09E
:103560009FB9BDE8F08100BFF8B572B6002600270C
:103570000023D0E90845826A8362C0E9086762B621
:10358000D2012046294604F001FF04F09FFC03F01D
:103590000FFF024904F08CFDF8BD00BF00FEFF469E
:1035A0001B4A1C4B11681C48096970B49942127976
:1035B000027009D2194A127832B3194A4FF0804189
:1035C000116003F5807402E01C46A3F58073154A70
:1035D000154912680D68AAB1A5B1144E308840286B
:1035E00010D841000A444030294402320231308070
:1035F00033F9040B22F8020F9C4233F9020C21F834
:10360000020FF5D870BC704703F58074DFE700BF88
:10361000B8BCFF1F308FFF1F1F800040B2BCFF1FD0
:1036200008E200E0C0BCFF1FB4BCFF1FB0BCFF1F1E
:10363000F8B5064601F0E0F80446E8B101F0DCF820
:10364000054600283AD072B61F4B1A887F2A19D82F
:10365000002C31D01D490A6842B162B6204601F003
:103660001FF92846BDE8F84001F01AB918480C6067
:103670001A80056062B6F8BD054672B6124B1A880C
:103680007F2AE5D9114A12491768146000220C6894
:103690001A800D6062B63946304601F02BF9384683
:1036A00001F0FEF830462146012201F023F92046C0
:1036B000BDE8F84001F0F4B862B6F8BD204601F06C
:1036C000EFF82C46BFE700BFB0BCFF1FC0BCFF1F18
:1036D000B4BCFF1F10B5044601F062FA204610BDCD
:1036E000F8B5284C284E2046012101F0F5F900F0EC
:1036F0006BF8264B264A27484FF4806119602368EF
:1037000000211A6099802279186102F1804202F545
:10371000043240F20110D8809E614FF4807502207F
:1037200006278E26DD82D960DD8398609F8398828C
:103730001170167001F076F91749184B2279184F5D
:1037400008701A7039682279164C174D174E41F0DF
:10375000124141F00101531139609B00206803F1CF
:10376000604302F1100703F5614302F01F020121DB
:1037700040F0104001FA02F2206045F827601A601C
:10378000F8BD00BFB8BCFF1F00FEFFFF14B004402F
:10379000A0F00240308EFF1FB2BCFF1F1B80004014
:1037A00080F0024000F002400092FF1FA1350000AF
:1037B000024A0349034803F0F5BD00BF2097FF1FED
:1037C000D5360000B8BCFF1F284B29491A68294884
:1037D00042F400421A600A6842F002020A601A6863
:1037E00042F002021A600368002B3DDB224B1B688B
:1037F000002B39DB214A4FF0864313601368002BFE
:10380000FCDBF0B51E4C1F48DFF8ACE01E491F4B37
:103810001F4A204F204E214D47F2320CC4F800C001
:10382000002404600120CEF80000DFF890E0C1F829
:1038300000E04FF480311960194B1360DFF880E02D
:10384000184A3A60346028601748CEF80000174CD8
:10385000B9671748174946F8503C4FF4C0632A61CE
:10386000236003600B60F0BD704700BF3C800440E4
:103870004080044000F0024080F0024000F102402D
:1038800004F1024060F0024008F002400CF00240F7
:1038900010F0024014F00240E0F0024084F00240D8
:1038A0001B0F0100000F0F0F0300004708B004407A
:1038B0000CB0044018B0044004F0024003000007BC
:1038C00088F00240024A0349034803F06BBD00BF81
:1038D0002097FF1FD5360000C4BCFF1F024BC9B2A2
:1038E00000225970DA707047CCBCFF1FF0B572B679
:1038F000174A184D1368184C18491948DFF874C056
:10390000DFF874E0174E184F43F0040313600423EC
:103910002B70012323700E220B7000211E238CF8C4
:103920000010124D03708EF80010327003263970AB
:103930000222667105342A602478037062B60C4B4B
:103940001A7019715878BDE8F04001F06FBB00BFE4
:10395000348004400A200640002006400120064032
:1039600007200640092006400420064008E100E048
:10397000CCBCFF1F0620064008200640024B022157
:10398000002219701A717047CCBCFF1F2DE9F04757
:103990004F69052F41DD0C69214DDFF88C8004EB68
:1039A000870789460C3411E0304604F0CDFA014611
:1039B000504604F067FC0434002814BF022301239E
:1039C00008FB05F5BC4285EA03051BD054F808AC9A
:1039D000206804F061FA0646504604F05DFA114989
:1039E000824604F0B1FA0146304604F04BFC0D4922
:1039F0000028D9D00434002308FB05F5BC4285EA31
:103A00000305E3D12022FF23C9F80850C9F80C2090
:103A100089F800300120BDE8F0870020BDE8F0877C
:103A2000C59D1C81CDCC4C3F9301000170B5344A3B
:103A30000A61A2F10C052C794C6195F8A04112F8AD
:103A40000C2C8C61052A01D0002070BD06460C4666
:103A500000F012FA08B1012070BD2146304600F096
:103A6000AFFC0028F7D12146304600F03FFC00288B
:103A7000F1D12146304600F0ABF90028EBD12146C8
:103A8000304600F0EBFA0028E5D12146304600F040
:103A900047FB0028DFD12146304600F04FFA0028CE
:103AA000D9D12146304600F041F90028D3D1214632
:103AB000304600F0C9F80028CDD12146304600F04C
:103AC000B3FB0028C7D12146304600F0DBFC0028BC
:103AD000C1D12146304600F015F80028BBD121465F
:103AE000304600F06BF80028B5D121463046FFF78C
:103AF0004DFF0028AFD102222A70287170BD00BF8F
:103B0000D8BCFF1F2DE9F041DFF8AC8098F80430F5
:103B1000572B02D80020BDE8F0810B690D4658688C
:103B200042F2602100F03AFD0028F3D02B6941F207
:103B30009411986800F05CFD0028EBD098F80430F0
:103B4000212B36DD1E261D24002709E043F0010746
:103B500098F804300234043BA34206F102061DDD4E
:103B60002B694FF4FA7153F8240000F017FD4FF45D
:103B700016710028CED02B6953F8260000F038FDCE
:103B80007B000028E2D12B6940F2A46153F82600A3
:103B900000F02EFD08B17F00DAE73446013C6410E6
:103BA000292CEC60B6DD0923AF602B700120BDE845
:103BB000F0810E23EB60ADE7CCBCFF1FF8B5214BC5
:103BC0001B79202B01D00020F8BD0B690C465868EA
:103BD0004FF4967100F0E2FC0028F4D0236940F223
:103BE000EE21986800F004FD0028ECD00C2500269A
:103BF00004E043F0010608357C2D1BD023694FF407
:103C00009671585900F0CAFC2F1D4FF4E16100284D
:103C1000D9D02369D85900F0EBFC73000028E8D113
:103C2000236940F2EE21D85900F0E2FC0028CAD006
:103C30007600E0E70E220F23A660E26023700120E9
:103C4000F8BD00BFCCBCFF1FF8B5374D2B79222B38
:103C50000C463AD023694FF4FA51586800F09EFCA4
:103C600010B12B79202B01D80020F8BD23694FF427
:103C70007A61986800F0BCFC0028F5D01026032576
:103C8000002706E043F001070235232D06F1080660
:103C900039D023694FF4167153F8250000F07EFCEB
:103CA0004FF4C8610028DFD02369985900F0A0FCC8
:103CB0007B000028E6D1236940F22621985900F0C4
:103CC00097FC0028D0D07F00DEE70B694FF4167117
:103CD000586800F063FC0028BCD02B79226903F1FE
:103CE0008043013B4FF4167152F8230000F056FC5C
:103CF0000028AFD000214FF0FF320623E160A26020
:103D000023700120F8BD23694FF41671D3F88C009D
:103D100000F044FC0028A7D010220623A760E26030
:103D200023700120F8BD00BFCCBCFF1FF8B5274BA6
:103D30001B79382B01D80020F8BD0B690C46586858
:103D40004FF4FA5100F02AFC0028F4D023694FF414
:103D50007A61986800F04CFC0028ECD0102603250E
:103D6000002706E043F0010702353B2D06F1080667
:103D70001BD023694FF4167153F8250000F00EFC98
:103D80004FF4C8610028D6D02369985900F030FC60
:103D90007B000028E6D1236940F22621985900F0E3
:103DA00027FC0028C7D07F00DEE723694FF4167197
:103DB000D3F8EC0000F0F2FB0028BCD01C220A2350
:103DC000A760E26023700120F8BD00BFCCBCFF1FDC
:103DD0002DE9F041DFF89C8098F80430212B02D8BF
:103DE0000020BDE8F0810B690E4658684FF4AF71B2
:103DF00000F0D4FB0028F3D098F80430032B34DD16
:103E00000324022500270FE043F0010733694FF434
:103E1000AF7153F8240000F0EBFB0235D0B198F8F5
:103E200004300234A34214DD336940F29E7153F82A
:103E3000250000F0B3FB7B000028E5D1336940F298
:103E4000EE2153F8250000F0A9FB0028C8D07F0020
:103E5000DCE72C46013C64100F2CF46005DD0C23DC
:103E6000B76033700120BDE8F0810020F060BDE84C
:103E7000F08100BFCCBCFF1FF8B50D4642F22831DF
:103E80002B69586800F08AFB30B12B4C2379042B46
:103E900031D02379432B01D80020F8BD2B6941F2A2
:103EA0009411986800F0A4FB0028F5D00C2400269B
:103EB00005E043F001060834B4F5867F34D02B6961
:103EC0004FF40C71185900F069FB271D40F29A61FC
:103ED0000028E1D02B69D85900F08AFB7300002834
:103EE000E7D12B694FF40C71D85900F081FB002801
:103EF000D2D07600DFE72B6940F6CA01986800F05F
:103F000077FB0028C5D02B694FF40C71D86800F0FE
:103F100045FB0028BDD000214FF0FF320323E960AC
:103F2000AA602B700120F8BD20220323AE60EA6056
:103F30002B700120F8BD00BFCCBCFF1F2DE9F04164
:103F40000D4640F6AE512B69586800F027FB10B9BA
:103F50000020BDE8F0812B6940F2D661986800F03E
:103F60001DFB0028F4D00C240026002706E042F0B8
:103F700001061F460834B4F5C67F21D02B694FF4E3
:103F8000FB71185900F00AFB04F1040840F2DC410F
:103F90000028DDD02B6953F8080000F029FBB21986
:103FA00047EB07030028E2D12B694FF4C87153F89F
:103FB000080000F01DFB0028CAD0B6197F41D9E7E0
:103FC00005223023AE606F602A70EB600120BDE8EF
:103FD000F08100BF2DE9F04148691468844221DA7C
:103FE00015460A691E4604F0010352F82480069A19
:103FF000002B14BF64246FF0630414442146404630
:1040000083F0010700F0A0FA98B101223368013370
:104010009A420ADC002333602B68013338462B6058
:10402000BDE8F0810120BDE8F08133603846BDE88D
:10403000F081069B1C442146404600F085FA08B1F9
:104040000222E3E7069B4046191900F07DFA08B109
:104050000322DBE74FF0FF30BDE8F0812DE9F047A8
:104060002E4E337984B0002401220C2B029403924B
:1040700003D8002004B0BDE8F08740F2793702ABE6
:1040800003AA00970D460446FFF7A4FF0028F0D1CD
:10409000009702AB03AA29462046FFF79BFF0128A1
:1040A000E7D1009702AB03AA29462046FFF792FF0B
:1040B0000028DED13279039B9A42804682460DDC8D
:1040C00025E0B9F1000FD4D10128D2D14FEA480838
:1040D0003279039B9A420AF1010A18DD02AB03AA66
:1040E000294600972046FFF775FF0097814602ABEF
:1040F00003AA29462046FFF76DFFB9F1010FE0D171
:104100004FEA48080028B4D148F00108E0E7012050
:10411000C5F80CA0C5F808802870ABE7CCBCFF1F21
:104120002DE9F0474B69002284B0934202920ADDE8
:104130000B6905460C46586840F66A210223039332
:1041400000F02CFA18B9002004B0BDE8F087039BFA
:104150002269591C039152F8230040F2793100F092
:1041600047FA0028EFD04FF4DE7602AB03AA0096A0
:1041700021462846FFF72EFF07460028E3D1009688
:1041800002AB03AA21462846FFF724FF0128DAD113
:10419000039A63699A42B84621DA02AB03AA214620
:1041A00000962846FFF716FFB8F1030F81460096E8
:1041B00002AB03AA2146284620D0FFF70BFF824618
:1041C000B9F1000F12D1BAF1010FBCD17F0047F055
:1041D00001076269039B9A4208F10108DDDC0223B2
:1041E000C4F80C80A76023700120ADE7B9F1010F7E
:1041F000A9D1BAF1000FA6D17F00EAE7FFF7EAFEE6
:104200008145A0D102AB03AA214600962846FFF7BC
:10421000E1FE0096824602AB03AA21462846FFF73C
:10422000D9FE5045CCD08EE7F8B50D4641F2883125
:104230002B69586800F0B2F930B12B4C2379042B6C
:1042400031D02379432B01D80020F8BD2B6941F2EE
:104250008831986800F0CCF90028F5D00C240026AD
:1042600005E043F001060834B4F5867F34D02B69AD
:104270004FF40C71185900F091F9271D4FF4C861E3
:104280000028E1D02B69D85900F0B2F9730000285A
:10429000E7D12B694FF40C71D85900F0A9F9002827
:1042A000D2D07600DFE72B6940F6CA01986800F0AB
:1042B0009FF90028C5D02B694FF40C71D86800F025
:1042C0006DF90028BDD000214FF0FF320723E960CF
:1042D000AA602B700120F8BD20220723AE60EA609F
:1042E0002B700120F8BD00BFCCBCFF1F2DE9F041B1
:1042F000324E3379192B15D90B691A68B2F5487FFC
:1043000009D200204FF0FF320B23C8608A600B7087
:104310000120BDE8F0810D46586840F6AC5100F030
:104320003DF910B90020BDE8F0812B6940F6AC5191
:10433000986800F033F90028F4D03379042B38DD85
:10434000042403274FF0000807E043F00108337905
:1043500002349C4207F102071EDA2B6940F2B631A3
:1043600053F8270000F044F94FF41661A8B12B6907
:1043700053F8240000F012F94FEA48030028E4D172
:104380002B694FF42F7153F8240000F007F900282F
:10439000C8D04FEA4808DAE73C46013C64100B2CD1
:1043A000EC6006DD0B23C5F808802B700120BDE80A
:1043B000F0810020E860BDE8F08100BFCCBCFF1FA9
:1043C0002DE9F041DFF8B88098F80430192B15D9A1
:1043D0000B691A68B2F5FA7F09D200204FF0FF325C
:1043E0000B23C8608A600B700120BDE8F0810D4688
:1043F00058684FF4166100F0D1F810B90020BDE8FC
:10440000F08198F80430032B35DD032402260027C1
:1044100008E043F0010798F8043002349C4206F1AA
:1044200002061CDA2B694FF4167153F8260000F0CF
:10443000DFF84FF4966198B12B6953F8240000F02F
:10444000ADF87B000028E4D12B694FF4167153F8C6
:10445000240000F0A3F80028D0D07F00DBE734462A
:10446000013C64100B2CEC6005DD0423AF602B7065
:104470000120BDE8F0810020E860BDE8F08100BFC8
:10448000CCBCFF1FF8B52F4B1B79452B01D8002062
:10449000F8BD0B690C46586840F2EE2100F07EF83A
:1044A0000028F4D0236940F2EE21986800F0A0F8CB
:1044B0000028ECD0236940F62231D86800F06EF86D
:1044C0000028E4D0236940F62231186900F090F802
:1044D0000028DCD018260525002706E043F0010758
:1044E0000235452D06F108061BD0236940F2EE2166
:1044F00053F8250000F052F840F666010028C6D0B7
:104500002369985900F074F87B000028E6D12369EC
:1045100040F2EE21985900F06BF80028B7D07F00E8
:10452000DEE7236940F2EE21D3F8140100F036F8FB
:104530000028ACD020220823A760E260237001206D
:10454000F8BD00BFCCBCFF1F38B50446084603F0D9
:10455000A7FC4FF07D51054603F0F6FC0D4903F032
:10456000A7FD03F0CDFEA04211DC28460A4903F066
:10457000EBFC084903F09CFD4FF07E5103F0DCFB9F
:1045800003F0BEFE8442CCBF0020012038BD0020D5
:1045900038BD00BF000048420000A03F38B50446C7
:1045A00001F1640003F07CFC4FF07D51054603F0FF
:1045B000CBFC0D4903F07CFD03F0A2FEA04211DC10
:1045C00028460A4903F0C0FC074903F071FD4FF08B
:1045D0007E5103F0B1FB03F093FE8442CCBF002078
:1045E000012038BD002038BD000048420000A03F37
:1045F00038B50446A1F1640003F052FC4FF07D5140
:10460000054603F0A1FC0D4903F052FD03F078FECE
:10461000A04211DC28460A4903F096FC074903F042
:1046200047FD4FF07E5103F087FB03F069FE8442A3
:10463000CCBF0020012038BD002038BD000048421A
:104640000000A03F10B54D4A4D4B4E4C12781E2233
:104650001A70607800F0DCFCA3680133A360237952
:10466000642B84BF062323702378023B042B09D8D4
:10467000DFE803F040471C5B03000122052384F8B8
:10468000A0212370E3781BB318BBA3783D4A002B0D
:104690005CD13D4A3D4B202111601B6813F0050F92
:1046A00016D13B4B40F203121A6010BD002840D1D6
:1046B0002379DBB25A1CD2B20233227104EB83039A
:1046C000A2685A600323A0602370E378002BDCD13A
:1046D00010BDA3782B4A002B32D12E4A2B4B202120
:1046E00011601B6813F0050FF2D1294B4FF4807253
:1046F0001A6010BDA8B9A268224B632A2CD8986012
:10470000E3E70128BED12379DBB25A1CD2B20233CF
:10471000227104EB8303A2685A6000220423A26082
:104720002370E378002BD4D110BD0028F9D1A0600C
:10473000CBE7A368134A642BF3D905231370F0E782
:1047400090780021BDE8104000F05CBC9078012119
:10475000BDE8104000F056BC83F8A00118711A792A
:10476000D2B2511CC9B20232197103EB82029968AC
:104770005160032298601A70A7E700BF0520064029
:1047800007200640CCBCFF1F84F00F4094F00F4080
:1047900014B0044088F00F40C029F0B428BFC021F5
:1047A00072B6124B124E134A186000231380336006
:1047B0007360B360F36033617361012799B15D0980
:1047C00003F01F0456F8252007FA04F401332243AE
:1047D0008B4246F82520F2D10023438001338B42DF
:1047E00000F58270F9D162B6F0BC704778BEFF1F49
:1047F00080BEFF1F9ABEFF1FF0B472B6234F244E37
:104800003C8806F1180306EB8400984212D256F851
:10481000241099B9021D06F11B05631CAD1A03EBA8
:10482000950503E052F8041B41B90133AB421C4625
:104830001046F7D162B60020F0BC7047B1FA81F3A0
:104840004FF00042DA4021EA0201016001B901346F
:1048500010493C800A88013294B20C8062B6801BF9
:104860008010C3EB401000EB801083000A480B4916
:10487000006803F5FB531C330125C5540D88AA427B
:10488000184488BF0C80F0BC704700BF9ABEFF1F61
:1048900080BEFF1F9CBEFF1F78BEFF1F74BEFF1FA0
:1048A000428872B60378012B03D9013B037062B6CC
:1048B0007047531170B40C4C0C4D54F823102E88D3
:1048C000D2434FF0004002F01F0220FA02F21143DF
:1048D000074A44F82310B34238BF2B801388013BAA
:1048E000138062B670BC704780BEFF1F9ABEFF1F68
:1048F0009CBEFF1FC368B3B130B401E0DB688BB16D
:10490000187A9042FAD158685C7A006950F82450BD
:10491000002DF3D140F82410087801300870DB68CE
:10492000002BEDD130BC7047437A8B4206D9036926
:10493000002253F8210043F82120704700207047DF
:10494000037C23BB4368427A5B7A9A421FD830B417
:1049500072B60468E3682BB3DA6832B119688C4226
:1049600016D01346DA68002AF8D1D8600023C36055
:10497000A37A0133A37202684168012313728A7A11
:104980001A448A7242681372037462B630BC70476C
:104990005D6841688D42E4D1198903899942F4D058
:1049A0001346DFE7E060E1E7037C10B5002B32D06F
:1049B0004368427A5B7A9A422DD872B60268D3680D
:1049C00043B3984202D129E0984202D0DB68002B21
:1049D000FAD14368417A1B69044653F8210048B173
:1049E000FFF75EFF72B66368627A1B69002143F8C5
:1049F00022102268937A013B937223689A7A02B953
:104A00001A726268937A013B937263689A7A1AB158
:104A10000023237462B610BD1A72F9E7C368D3602D
:104A2000D7E700BF084B1A7862B930B40748084985
:104A3000D02505704FF0804401220C6010461A709A
:104A400030BC7047002070477CBEFF1F5EE400E072
:104A500008E100E01A491B4A1B48F8B50B681B4DDA
:104A6000046843F080730B60136843F00103136024
:104A70002E6814B915E064699CB1237A002BFAD032
:104A800023682F681B68204698472B68E188DB1B4A
:104A90001B099AB28B42A28088BFE2806469002C15
:104AA000EBD10A4B0A4A1B6810880A4C9B1B1B0956
:104AB00099B28342218001D91180F8BDF8BD00BFB1
:104AC000FCED00E0001000E070BEFF1F041000E0ED
:104AD00098BEFF1F9EBEFF1FF0B572B699B902685F
:104AE0008AB103790F2B0ED8274C218841FA03F5A0
:104AF000ED070AD503F1007303F59063B2EB431F92
:104B000003D162B6F0BD204C2188002341FA03F2A4
:104B100012F0010207D00133102BF7D162B6002248
:104B200003710260F0BD01259D402943218062B6DA
:104B3000164E174D174FDFF864E0D9B20171346893
:104B400044F0020434602C6844F002042C60A6F5A2
:104B500080268224A5F5802503F100733C6003F5CF
:104B60009063223E243D0C4C8EF800105B013170A6
:104B70002970217003601A605A609A60DA601A61C5
:104B80005A619A61DA61F0BDA0BEFF1F4080044007
:104B90003C800440008000401F8000401A8000409C
:104BA00003790F2B11D8094A10B4137072B6084953
:104BB00004790A880123A34022EA03030B8062B62A
:104BC0001022002310BC0271036070471A8000405D
:104BD000A0BEFF1F00B5064A036812885B6883B059
:104BE00001A9ADF804200222984703B05DF804FB48
:104BF000209C0000F0B507468BB0002A33D0012A74
:104C000008BF0A2251B3212400E0F4B2B1FBF2F54F
:104C100002FB1511C8B2092900F1300198BFC8B2D2
:104C20000AA988BF3730214488BFC0B201F8240CDC
:104C3000661E2946002DE8D133B1013CE4B20AAB2F
:104C400023442D2203F8242C3B6801AA11195B6828
:104C50003846C4F1220298470BB0F0BD30228DF8DF
:104C600025202124E8E70368C9B21B6898470BB0E8
:104C7000F0BD00BF0029BABF49422D2300230A22FC
:104C8000FFF7B8BFF0B5164D2A680AB31549164BA1
:104C9000DFF85CE082FB016781FB0214D617D119B3
:104CA0001444C6EB2141C6EB244403FB04F40EFB81
:104CB000112244F2A71303FB0243002B02DA03F193
:104CC0000043013BB3FBF0F22B6000FB1230F0BD60
:104CD000064B2B60B3FBF0F200FB1230F0BD00BFBF
:104CE000A4BEFF1F5F0B4E83ECF4FFFF42CE0C1FF0
:104CF0001DF3010008B1FFF7C5BF7047884206DA0F
:104D000010B50446081AFFF7BDFF204410BD7047D8
:104D1000F0B51B4B1B4E596818689A68DB6885B064
:104D20006C460FC4337899071DD5174A174C137872
:104D3000174913F0700318BF1370164A164B8027DB
:104D4000177000263320032226706D4608701A70F3
:104D500072B6043C45F001052046A84762B62378A8
:104D600013F0700309D10D4B064901E0013B02D05D
:104D70000A78D207FAD505B0F0BD237005B0F0BDB2
:104D8000249C000001000240000002400400024098
:104D90000B000240070002400A000240410D0300E0
:104DA000B0F5006F0AD210B5094B1B78DB0704463B
:104DB00006D504F1A0500078C0B210BD00207047A5
:104DC000FFF7A6FF04F1A0500078C0B210BD00BFED
:104DD00001000240B0F5006F17D238B50F4B1B78B9
:104DE000DA070D46044611D504F1A0500378AB4212
:104DF0000AD00B4A137813F0700318BF1370074AD8
:104E000005701378DB07FCD538BD7047FFF780FFCE
:104E100004F1A0500378AB42EBD1F5E7010002406A
:104E20000000024008B5FCF729FFFDF777FB01F011
:104E300059FAFAE708B5104C08E0236859050DD473
:104E400023681A050FD42368DB0411D423685803A0
:104E5000F3D500F0AFFA23685905F1D501F00EFC47
:104E600023681A05EFD501F09FFC2368DB04EDD51C
:104E700001F030FDEAE700BF3480044008B5FFF7D9
:104E8000D9FF00BF014B10221A8070470020054057
:104E9000704700BF094908B50B6830B16A4618442D
:104EA000A2F58052904202D20860184608BD03F075
:104EB00037FC0C2303604FF0FF3008BDC497FF1F81
:104EC000FEE700BF0078B0FA80F04009704700BFED
:104ED00001230370704700BFF0B44D1E2E4600241E
:104EE00000E00134B0FBF2F302FB1300092800F1EB
:104EF00030078ABF3730F8B2C0B206F8010F184643
:104F0000002BEED10A1953704CB1107815F8016FCF
:104F100028700133E01A834202F80169F5DB084684
:104F2000F0BC704710B40F4B53F8302092F8804219
:104F30002CB1012369B182F8803010BC704703EBBB
:104F4000C0035B681A6841B922F002021A6010BC03
:104F5000704782F8003110BC704742F003021A60BB
:104F600010BC7047349C00001C4A02EBC0030129AE
:104F70005B6811D004291BD052F83000002280F861
:104F8000802229B1022920D0032922D01A6070473B
:104F90004FF480721A60704752F830004FF4A272DA
:104FA00080F880121A601A6822F020021A60704796
:104FB00052F830104FF4A272012081F880021A607A
:104FC0001A6842F020021A60704740F203121A6019
:104FD00070474FF481721A60704700BF349C000024
:104FE00030B4054B054D064C002210211A602A6092
:104FF0002060196030BC704714D0034004D00340D7
:1050000000D00340212801D8FFF78CBF704700BFB4
:10501000212806D8044B53F8303093F80002C0B270
:1050200070470020704700BF349C0000212801D841
:10503000FFF79ABF704700BF72B60D490D4B0E4A7D
:105040001B680868126862B6520102D5322B88BF0D
:1050500001300A49C3F58C334FF47A7203F23F13DF
:10506000A1FB031302FB00F000EB1310704700BF1D
:10507000A8BEFF1F18E000E004ED00E0398EE33821
:105080002DE9F843054672B6214F224B224A1B6890
:105090003C68126862B6520102D5322B88BF0134D7
:1050A000A5B3C3F58C331D4EDFF86890DFF8688038
:1050B00003F23F134FF47A72A6FB031302FB04F4CE
:1050C00004EB131472B6D9F800103A68D8F800E06F
:1050D00062B6C1F58C3303F23F13A6FB03031EF047
:1050E000806FC4EB13134FF47A7002D0322988BF5B
:1050F000013200FB0233B3F57A7F04D3013D05D0C2
:1051000004F57A74DEE701F0EDF8DBE7BDE8F8833B
:10511000A8BEFF1F18E000E004ED00E0398EE33880
:10512000F8B52D4B2D49DFF8D0E0DFF8D0C02C4E7C
:105130002C4D2D4C2D4A2E4F4FF4000018604FF08F
:10514000807018604FF0007018604FF08060186039
:105150004FF00060186000200860282348F6FF71B7
:10516000CCF80010CEF80030336013602B60236061
:105170003B60B3629362092245F8242CC4F8D80F2F
:1051800005F57F65C7F8D41F07F5FF2707F5FA6710
:10519000C6F8F83F2B6006F5FF26C4F8D42F05F5B6
:1051A000FD2504F5FF24386006F2F47611483160DD
:1051B00005F5FF6504F5FD642B602360026001F0D6
:1051C000DDF91920FFF75CFF00F05AFE40F21310E2
:1051D000BDE8F840FFF754BF08E100E00480034059
:1051E00014800340248003402C8003401C80034033
:1051F0003480034000800B400C8003400880034053
:10520000431E032B14D872B60A4951F8230068B123
:1052100070B4094C058834F81320466841F82360BF
:10522000521B24F8132062B670BC704762B67047F8
:105230000020704704BFFF1F88C1FF1F01380328EB
:105240000BD872B6074B53F8203043B100205B688F
:105250000130002BFBD162B6704700207047184622
:10526000F9E700BF58BFFF1F30B472B62B4A13785E
:105270001D0706D52A4B196A002936D0996A0029DC
:1052800041D053781C0706D5254B196C00293ED018
:10529000996C002939D09378190705D5204B196EE0
:1052A000002936D0996E89B1D3781B0707D51C4BDE
:1052B000D3F880207AB3D3F8882011213AB162B6AE
:1052C000184B00221A7030BC00F07CBE0D21154C2A
:1052D000154D227843F8315003EBC1030830013AF1
:1052E0005860227062B630BC704704220D4C0F4DDE
:1052F000217843F8325003EBC20308304A1E58604D
:10530000227062B6EFE70521E1E70921DFE7082215
:10531000ECE70C22EAE71022E8E700BF6C9D0000F2
:105320000080FF1F81BFFF1FC800400088004000B1
:10533000431E032B1DD81B4A400140F0100030B41F
:10534000104472B6184CE25C032A1BD8DFE802F066
:105350000212151703220D88E25410F0080F14BF33
:10536000C823882343EA054308310360416062B6DD
:1053700030BC704708300222EDE70522EBE7083029
:105380000422E8E7094A52F8230038B1084A52F8E3
:105390002300416042F8231062B6E9E742F8231087
:1053A000034AF7E70080FF1F90BFFF1F58BFFF1F92
:1053B00068BFFF1F2DE9F04FDFF818B3DFF818A31F
:1053C00087B044E0AE4F4FEA930807EBC809013EAF
:1053D000D9F8042003F00803F6B2A2F1080003F0A4
:1053E000FF04002B40F0048157F838301B0C99B2B1
:1053F00022F8081C002B00F0F280A24B22F8064C89
:1054000042F8044C53F82620002A00F06E819E4D8D
:1054100055F8263058609D4C45F8260034F8163073
:10542000194424F8161000F0ADFD002800F0568154
:10543000974A984B19F0080F00F1080018BF13465F
:10544000C9F8040047F8383008238BF800309BF87F
:105450000040E4B261071BD58F4B1B78ABB18F497D
:105460000A7802F0FF032AB1013BDBB20B70002B7C
:1054700000F0EF848A490A7802F0FF032AB1013B69
:10548000DBB20B70002B00F0F78004238BF80030A8
:1054900004F0080303F0FF02002B00F0D6809AF816
:1054A0000030DBB21E098DD19C08DFF8D49159F889
:1054B000342009EBC401C2F38302013A49680C2A83
:1054C0007ED8DFE802F081817D7D7D7D7D7D477D19
:1054D0007D7D07000868734D4A68734F734E2860DE
:1054E00081B240F281606A4B6A604FF0010E002287
:1054F000814249F834303A60C9F81020C9F81820C0
:1055000086F800E05E4C00F2F480B1F5D06F80F0D8
:105510007883B1F5817F00F0628300F28782802971
:1055200000F0EC82822940F01E83A98801F07F01FF
:10553000042900F218835E485E4C890008442270FA
:1055400062700278930740F1798384F800E04FF0AD
:10555000020ED8E2544F3A6842B3574B534E574964
:10556000188834780D784028864645F0020828BF10
:105570004FF0400E002C84F001043470CEEB00009C
:105580000CBF8824C82409EBC80680B285F0010549
:1055900044EA0E447260188049F8384072440D7035
:1055A00018B9BEF1400F18BF00223A603D4B1A886F
:1055B000B2F5A06F04D100219A785970404B1A704F
:1055C000404A012313703FE7364A158842F2210012
:1055D000854200F0FF812E4A49F83420F0E72C4A3A
:1055E0002C4B19F0080F18BF134647F838302BE73B
:1055F00000F0E8FC344A354952F82630002B00F020
:10560000B68158688C5D42F8260003F10802C9F89B
:105610000420032C05D8DFE804F0120F1502042241
:105620008A551A8819F0080F0CBF8823C82343EA4B
:10563000024347F8383007E702228A55F1E7032290
:105640008A55EEE705228A55EBE7E00700F11A825A
:10565000210600F14982A20706D51D4A1D4913788B
:105660000220DBB213700870E30602D5194B10223A
:105670001A7007B0BDE8F08F00F010FE05E700BF1C
:105680000080FF1F04BFFF1FB0BEFF1F88C1FF1FA8
:10569000C8004000880040008CBFFF1F15BFFF1FDF
:1056A00094BFFF1F78BFFF1FACBEFF1F14BFFF1FBB
:1056B000C020074084BFFF1FC0BEFF1F80BFFF1F69
:1056C000982007409420074058BFFF1F90BFFF1F3E
:1056D000882007408020074090200740AB4A47F8C9
:1056E0003800137801331370AEE643F82600A84D56
:1056F00091E642F22100814200F0358100F2AF8153
:10570000B1F5086F00F01B82B1F5106F40F02B82ED
:10571000226AA049A8780870120600F14583D9F8DA
:1057200028209D49130600F13A83D9F830209A4980
:10573000150600F12F83D9F838209749140600F197
:105740002483D9F840209449100600F11983D9F830
:1057500048209149120600F10E83D9F850208E4955
:10576000130600F10383D9F858208B49150600F180
:10577000F882D9F860208849140600F12983D9F805
:1057800068208549100600F11E83D9F870208249EF
:10579000120600F11383D9F878207F49130600F12F
:1057A0000883D9F880207C49150600F11C83D9F8BC
:1057B00088207949140600F11083D9F890207649A1
:1057C000100600F1C882D9F898207349120600F13A
:1057D000BC827248724A7349019073486C4D734C95
:1057E0000497002305960295804617460E461D46EF
:1057F0000394386828B1446800F0E4FB2046002C8C
:10580000F9D100233B60029B30681A46002342F81E
:10581000253028B1446800F0D5FB2046002CF9D192
:1058200000223260019A98F800301146002241F8B7
:10583000042B039A0191023B4FF0000122F815104E
:10584000032B09D8DFE813F04B0104004B010400DF
:105850004FF0010388F800300135042D07F10407EB
:1058600006F1040608F10108C3D1514C514B2278CE
:10587000464D049F059E002129701A70130700F100
:105880004F8262784C49DFF810810A7010074FF0A0
:105890000001C9F83010C9F8381000F12B824749CF
:1058A000A2780A700021C9F85010C9F858101107E1
:1058B000DFF8E48000F1DC81E2784149364C0A707F
:1058C00000211207C9F87010C9F8781000F1B981E9
:1058D00033780193002183F00102C9F89010C9F8D0
:1058E00098100020029080468446044635490D7881
:1058F00045F0020E09EBCE030393019B002B039BA3
:105900005C600CBF8824C82444EA080385F00104C5
:1059100049F83E3032700C70DFF87CE02A4BDFF83B
:10592000A480002840F02681BCF1400F1BD144F038
:10593000020C09EBCC03029CDFF85CE05C60002AFF
:1059400040F02E81020442F088029DF804304EF8A7
:105950003C20044433700D702346402803D10020BE
:105960001A4A3B6010801A4A0123137028E68B5DA7
:10597000032B00F22D8101A252F823F049540000BC
:1059800049540000D35A0000D95A000081BFFF1FBC
:10599000B0BEFF1F8CBFFF1F0080FF1F68BFFF1F2F
:1059A00004BFFF1F58BFFF1F90BFFF1F88C1FF1F0D
:1059B0006C9D0000C4200740C8200740CC20074051
:1059C000D020074080BFFF1F14BFFF1FC0BEFF1FB6
:1059D00094200740928892B9B14A0D7848781570A2
:1059E00050708D78C8789570D07010680D791571E9
:1059F00086284D7989795571917100F0A580A94962
:105A0000A94E0A78307882F00105002842F002029F
:105A10000D700CBF8821C82149F8321009EBC20271
:105A200080F00100002130705160D4E540F2023274
:105A3000914240F08D80A98801F07F01042900F295
:105A400092806A88002A40F08E809848CDF804E061
:105A500089000844017841F00201017041E742F2F7
:105A6000212081427BD1A988002940F0E480904B1D
:105A7000904A9148AC781D681560CDF804E00A465C
:105A800004702EE78D4B8E4886491A614FF0020E46
:105A900080F800E0854F0A708A49196099608A4E43
:105AA0008A4D8B4C9A610D213970FF213170DFF8DE
:105AB00040E229702270874D874A8EF800109F2798
:105AC000012406F8047C5D600470DA6007B0BDE86C
:105AD000F08F00238B55B7E401238B55B4E44FF0CE
