:1000000000800020BD010000D54B00008D4B00009A
:100010008D4B00008D4B00008D4B00008D4B000080
:100020008D4B00008D4B00008D4B0000D54B000028
:10003000D54B00008D4B0000B5610000B962000097
:10004000D54B0000D54B0000D54B0000D54B000030
:10005000D54B0000D54B0000D54B0000D54B000020
:10006000D54B0000D54B0000D54B0000D54B000010
:10007000D54B0000D54B0000D54B0000D54B000000
:10008000D54B0000D54B0000D54B0000D54B0000F0
:10009000D54B0000D54B0000D54B0000D54B0000E0
:1000A000D54B0000D54B0000D54B0000D54B0000D0
:1000B000D54B0000D54B0000D54B0000D54B0000C0
:1000C000D54B0000D54B0000D54B0000D54B0000B0
:1000D000D54B0000D54B0000D54B0000D54B0000A0
:1000E000D54B0000D54B0000D54B0000D54B000090
:1000F000D54B0000D5630000D54B00000165000022
:10010000D54B00002D660000D54B0000D54B0000FC
:10011000D54B0000D54B0000D54B0000D54B00005F
:10012000D54B0000D54B0000D54B0000D54B00004F
:10013000D54B0000D54B0000D54B0000D54B00003F
:10014000D54B0000BD3D0000D54B0000D54B000055
:10015000D54B0000D54B0000D54B0000D54B00001F
:10016000D54B00000D510000D54B0000D54B0000D1
:10017000D54B0000D54B0000D54B0000D54B0000FF
:10018000D54B0000D54B0000D54B0000D54B0000EF
:10019000D54B0000D54B0000D54B0000D54B0000DF
:1001A000D54B0000D54B0000D54B0000D54B0000CF
:1001B000D54B0000D54B0000AD470000564B4CF22C
:1001C000205210B51A804DF628121A8000BF00BFC9
:1001D00004F004FD514B4FF010621A60504A9A60CF
:1001E000504ADA60504A136813F4807304D14F49BF
:1001F0000B604FF4A85313604D4B1A78110703D5C9
:100200001A7842F008021A704A4B4B492A221A7097
:100210004A4A4B4B8B4204D252F8040F43F8040B6A
:10022000F8E7484B484900228B4202D243F8042B9E
:10023000FAE74649464A002352F8230041F82300D2
:1002400001336F2BF8D1434B434A802103F8011B44
:100250009342FBD1414B3D4A1A60414B8A221A70AE
:10026000A3F5805324225A70A0221A709A7992071B
:10027000FCD59A79D406FCD43A4A937903F00C035E
:10028000082B384BF9D105221A7143225A719A79F9
:100290009006FCD5334A9179324B4906FBD5324A58
:1002A0004FF0817111600521516020221A709A79F6
:1002B00002F00C020C2AFAD12C4B2D4A1A602D4B5D
:1002C0002D4A1A6000225A60072243F8042C2B4A58
:1002D000C3F80C2D62B604F0CFFD144B1B68DA078F
:1002E00005D5274804F028FD264B274A1A60274BDE
:1002F0001B785B0609D5234C234B22689A4204D114
:100300001F4804F019FD0023236008F0BBF804F037
:100310006BFC04F033FCFEE70E2005403080044007
:10032000823F04000100002B10D0034014D0034092
:1003300002D0074000E00740BCA0FF1FDC93010093
:100340002097FF1FC0A0FF1F1CC0FF1F0092FF1FB0
:100350000000000000E400E05FE400E008ED00E0E1
:1003600000500640004006404480044004800440A1
:10037000C010050014E000E03F190100000020203B
:100380006AF6D75E1CE00340A5C3945A00F007400C
:10039000FFFFFFFFFFFFFFFFFFFFFFFFFFFFFFFF6D
:1003A000FFFFFFFFFFFFFFFFFFFFFFFFFFFFFFFF5D
:1003B000FFFFFFFFFFFFFFFFFFFFFFFFFFFFFFFF4D
:1003C000FFFFFFFFFFFFFFFFFFFFFFFFFFFFFFFF3D
:1003D000FFFFFFFFFFFFFFFFFFFFFFFFFFFFFFFF2D
:1003E000FFFFFFFFFFFFFFFFFFFFFFFFFFFFFFFF1D
:1003F000FFFFFFFFFFFFFFFFFFFFFFFFFFFFFFFF0D
:10040000FFFFFFFFFFFFFFFFFFFFFFFFDEF9FFFF23
:1004100010B5054C237833B9044B13B10448AFF33E
:1004200000800123237010BDC0A0FF1F000000004A
:10043000D8930100084B10B51BB108490848AFF329
:1004400000800848036803B910BD074B002BFBD0A0
:10045000BDE81040184700BF00000000C4A0FF1F07
:10046000D8930100BCA0FF1F0000000000207047CF
:10047000F8B51E1E03680446CCBF02EB42050025FA
:100480000F469B68D8BF164698477A192368626062
:100490005B690A4A6661934201D12046F8BD204655
:1004A00098470028F9D0064A064B516893FBF0F0B4
:1004B000884238BF084650602046F8BD6D040000F1
:1004C000DCA0FF1F40420F0070B4104C25686E1C6A
:1004D0008D4283B0266016DB0D4D0E492B680093CC
:1004E000009A2D680B680195019D0D60D31A4FF09D
:1004F00000014FF47A7208BF012302FB06F221606B
:10050000B2FBF3F3438003B070BC7047F0A0FF1F51
:1005100024BDFF1FF8A0FF1F2DE9F04F43682D4CAD
:1005200083B006468946002B4BD104F031FCF368BA
:1005300020601BB14846B16898478146264B1C682D
:100540000025002C36D07388A77C61686269632B14
:10055000236898BFA574D3F804808DF804508DF8F3
:1005600005508DF80650B9F1000F1CD004F10B03B3
:100570000DF1040E04F10E0C13F801BFBBF1000FD6
:100580000DD093F803A00AF101000BFB0000BAF1B3
:10059000000F04D009FB00F0000C8EF8000063454A
:1005A0000EF1010EE8D1204601ABC047A774A46844
:1005B000002CC8D130461921FFF786FF03B0BDE8F3
:1005C000F08F04F0E5FB22687368801A9842AAD382
:1005D000ABE700BFF4A0FF1FECA0FF1F0020704797
:1005E000044B0022FF204FF0FF31187099605A80B1
:1005F000DA607047DCA0FF1F00290BDD01EB410131
:1006000001441378037053784370937883700330F8
:100610008842F6D1704700BF70B582B0FF25F02444
:1006200000298DF804208DF806508DF8054010DD66
:1006300001EB41011E4604464518214601A800F081
:100640000BF89DF8042003343244AC428DF80420AA
:10065000F3D102B070BD00BFF0B404784678827860
:10066000E00000F0F80000EB800303EB0313034409
:100670002506C3F307235FD404F0400505F0FF0708
:1006800004F02004002D46D104F0FF00002C6CD0B3
:100690005533DDB2AB243B46FF2E1CD0002E79D063
:1006A0001CB106FB0444C4F307241DB106FB055529
:1006B000C5F307251BB106FB0333C3F30723F04340
:1006C000C0B200FB0000C0F307200444054403440B
:1006D000E4B2EDB2DBB2FF2A18D012FB02F0003216
:1006E00018BF012202EB102212F0FF0256D01CB1FB
:1006F00002FB0444C4F307241DB102FB0555C5F3F6
:1007000007251BB102FB0333C3F307230C704D70A5
:100710008B70F0BC704704F0FF075CBB00EBC004BB
:1007200000EB440000EBC0000412563BC4F1AB04E4
:10073000DDB2E4B23B46AFE704F0400707F0FF0547
:10074000E7B904F0200707F0FF04002F36D100EBD3
:10075000C00300EB430000EBC000C0F30720C0F172
:10076000AB055530EDB2C3B296E7DC43E4B21D46AB
:10077000034691E70024DD43EDB28DE704F0200449
:1007800004F0FF0594B903F15504E4B2C3F1AB03DF
:10079000DBB281E7FF231D461C469CE71546144645
:1007A00013460C704D708B70F0BC7047A3F156046B
:1007B000E4B20025C3F15503DBB26DE7D8431C4614
:1007C000C3B269E7406970474268017B13780B4305
:1007D000137070474268017B137823EA010313709A
:1007E000704700BF10B5044603F08AFF204610BDD5
:1007F00070B50D480D4C03F0C1FC0D4A0D4B12684D
:10080000064653F8220007F0F7F90B490546304633
:1008100007F03CF90146284607F042FA07F01CFCB5
:1008200080F30800206070BD18B9FF1F3CA2FF1FB5
:1008300040A1FF1FD48F000052491D3A10B501217D
:100840000446042004F09EFA0320012104F09AFAE1
:10085000A06950B10368094A5B68934209D14268B4
:10086000017B137823EA0103137004F091FAA0834B
:1008700010BD984704F08CFAA08310BDD507000086
:10088000F0B58BB0002305688DF804308DF8053085
:100890008DF806302E68374A8DF8083096428DF86C
:1008A00009308DF80A305FD1827C04910446012A18
:1008B00001A805918DF81E308DF81F308DF820307D
:1008C000039015D08DF81D308DF81C308DF81B303D
:1008D0008DF81A308DF819308DF818300023AA6978
:1008E0008DF821302046099303A990470BB0F0BD45
:1008F000214A1378013303F0070313F0010F14BFEB
:100900008021002113709A0744BF41F04001C9B211
:100910005B0748BF41F0200110310022C9B20DF140
:100920001B030DF11E074FF4807EAAB19EFBF2F26D
:10093000D2B2501CC0B200FB01152D121870EEB2DD
:1009400005B1013E03F8036C00B11A7001339F42F8
:1009500008D0DA78002AE9D11A7003F8032C0133A1
:100960009F42F6D12568B9E70A4602AB01A9B04714
:100970000BB0F0BD7D09000000A1FF1FF0B5857C24
:100980001C785E789B7889B0012D019102920392C8
:100990008DF816408DF817608DF8183016D00023AA
:1009A0008DF815308DF814308DF813308DF8123025
:1009B0008DF811308DF810300268002392698DF89F
:1009C0001930079301A9904709B0F0BD1B4A13786D
:1009D000013303F0070313F0010F137014BF8022DB
:1009E0000022990744BF42F04002D2B25B0748BFE1
:1009F00042F020021032D2B20DF113030DF11607AE
:100A00004FF4807EACB19EFBF4F4E4B2611CC9B239
:100A100001FB02252D121970EEB205B1013E03F85B
:100A2000036C01B11C700133BB42C5D0DC78002CD3
:100A3000E9D11C7003F8034CF5E700BF00A1FF1FCC
:100A4000F0B5857C1C785E789B7889B0012D01918A
:100A5000029203928DF816408DF817608DF81830C9
:100A600017D000238DF815308DF814308DF8133021
:100A70008DF812308DF811308DF810300368002297
:100A800003219B698DF81910079201A9984709B0B5
:100A9000F0BD1B4A1378013303F0070313F0010F75
:100AA000137014BF80220022990744BF42F0400215
:100AB000D2B25B0748BF42F020021032D2B20DF131
:100AC00013030DF116074FF4807EACB19EFBF4F4D6
:100AD000E4B2611CC9B201FB02252D121970EEB2FD
:100AE00005B1013E03F8036C01B11C700133BB4238
:100AF000C4D0DC78002CE9D11C7003F8034CF5E776
:100B000000A1FF1F38B5284A284B52F8204053F85F
:100B10002030A342054602D91A4623461446B3F5AF
:100B2000007F3ED2224A40F2FF1102EB43028C4288
:100B300002F1160228BF0C46002032F8021F0133D2
:100B4000A3420844F9D907F053F84FF0625107F077
:100B5000A7F80446174B53F8250007F04DF816493F
:100B600007F09EF80146204606F090FF134B144A0A
:100B70001968144B044643F8254052F8210007F049
:100B80003BF8214607F08CF80F4B53F8251007F07F
:100B900087F807F061FA0D4B80F3080043F8250051
:100BA00038BD0024D6E700BFF88F0000508E00004B
:100BB00074A2FF1FFC8D000017B7D13840A1FF1FA2
:100BC000D48F0000F8A1FF1F7497FF1F38B7FF1FD5
:100BD00010B5054C2068FFF795FF2168034A044BC8
:100BE00052F821201A6010BD2897FF1F38B7FF1F49
:100BF0003CA2FF1F0A4B1B68072B08DC094A41F285
:100C00003D43D15C29B10021D154FFF7E1BF082B4E
:100C100000D07047044B9B6A002BFAD0FFF7E8BD69
:100C20002897FF1F74A2FF1F18B9FF1F10B50024DB
:100C300020460134FFF766FF082CF9D110BD00BF34
:100C40002DE9F04FDFF87CA01B4CDFF87CB0DFF81B
:100C50007C801A4F83B04FF000095AF8045F4B466E
:100C600009F1030905EB85054B4585F30805A8BF88
:100C700004F1090615DAEDB204F10906DBF80030DB
:100C80008DF8065018F8232057F823308DF80520EA
:100C9000214601A803348DF80430FFF7DDFCB4428F
:100CA000ECD1B9F1180F3446D7D105480178FFF7D8
:100CB00033FC03B0BDE8F08FC8B8FF1FA08F000061
:100CC000DCA0FF1F34B7FF1F34A1FF1F1C8E0000E4
:100CD000244B2DE9F043244D1B682A68234CDFF890
:100CE0009C90DFF89C80224F03EB43039342C4BFE8
:100CF0001A462B60FF2AC8BFFF2283B0C8BF2A60F4
:100D000004F14B0600E02A68D9F800308DF806207F
:100D1000214618F8232057F823308DF8052001A824
:100D200003348DF80430FFF797FCA642EBD111484D
:100D30000178FFF7F1FB104A13680133042B0CDD37
:100D40002B68094800218B42C8BF03F1FF331160B3
:100D5000C8BF036003B0BDE8F083136003B0BDE813
:100D6000F08300BF3CA2FF1FB897FF1FC8B8FF1F4A
:100D7000A08F0000DCA0FF1F2C97FF1F34A1FF1FD6
:100D80001C8E00002DE9F041434D4448444C2B6833
:100D90002168444F426857F82160DFF82CC1DFF822
:100DA0002CE1D0F8108082B0019303681A44019BB3
:100DB0009B1B4E1C82F308023B2E134447F8212054
:100DC000C4BF00222260384F8268C168D8BF266045
:100DD0002B6011443D68354CDEF8006081F308015A
:100DE00084FB03245CF825204CF8251001353B2DAD
:100DF0001C444FEAE373C3EB6414CABF00233D6095
:100E00003B60B21A2A4F43692A4EC56934600A44CE
:100E10008169CEF800203E68DFF8B4C0DFF8B4E0A6
:100E2000224843440B441D445CF8261080FB0230EA
:100E3000DEF8003085F308051044D217C2EB6010CD
:100E40004CF82650591A01361B4B184A1860294491
:100E50003B2ECEF80010CCBF00233E6082FB016227
:100E60000A44C8BF3B60C917144D154BC1EB621251
:100E70002A60E1B2C0B2D2B203F14B041A705870CA
:100E800099700333A342F9D10E48017802B0BDE84E
:100E9000F041FFF741BB00BF60B7FF1F38B7FF1F2E
:100EA000C8B6FF1F70B7FF1F38A1FF1F8988888849
:100EB000F4A1FF1F54A2FF1F4CA1FF1F48A1FF1F59
:100EC000C8B8FF1FDCA0FF1F3CBAFF1F3CA1FF1FDB
:100ED0004CB9FF1F18A2FF1FF0B50A4C83B004F1F4
:100EE0004B0764260025214601A803348DF80460D1
:100EF0008DF805508DF80650FFF7AEFBBC42F2D1DD
:100F000003B0F0BDC8B8FF1F2DE9F041144C82B00A
:100F10005FFA80F8CFB204F14B06C825214601A83C
:100F200003348DF804808DF805708DF80650FFF7B6
:100F300093FBB442F2D10B4C21782046FFF7ECFA38
:100F4000C82003F049FFFFF7C7FF21782046FFF7CD
:100F5000E3FA054B00221A6002B0BDE8F08100BF41
:100F6000C8B8FF1FDCA0FF1FA097FF1F2DE9F04F9F
:100F7000374D2B68DB0785B058D5364C364F236884
:100F8000039397E80600039B5B1A934247D3334BC6
:100F900021681A68324B0291324D029853F82210A0
:100FA000314E324CDFF8D0A0DFF8D0B0DFF8D0906F
:100FB000DFF8D08087E8030005F1640720E0DAF865
:100FC000000001398142D8BF01232160D8BF2B60C6
:100FD000DBF800008DF8021019F8201058F82030C6
:100FE0008DF80110684631468DF80030FFF734FB6C
:100FF000BD4204F104040AF1040A06F103060BD011
:1010000055F8041F01292168D9D10131FE29216039
:10101000DEDD00232B60DBE7154B00221A6015484C
:101020000178FFF779FA05B0BDE8F08F284603F0A4
:10103000F5FD084C084F0028A1D023680193019BBF
:101040003B600A2328467B6003F0EEFD97E700BF74
:1010500044A1FF1F24BDFF1F50A1FF1F6CB7FF1F3E
:101060003097FF1F7CA1FF1FC8B8FF1F60B8FF1F8C
:1010700038A2FF1FDCA0FF1FCCB6FF1F34A1FF1F4B
:101080001C8E0000A08F00002DE9F043324E336823
:10109000DB0785B046D5314D314C2B68039394E87E
:1010A0000600039B5B1A934235D32E492E4B2A68C8
:1010B0000D682E4902921A6851F8251002982C4D9D
:1010C000012A84E803002A683DD0013A0A2A2A60EE
:1010D00001DC01211960274CDFF8A890DFF8A88017
:1010E000254F04F14B0600E02A68D9F800308DF84E
:1010F0000220214618F8232057F823308DF80120CC
:10110000684603348DF80030FFF7A6FAA642EBD10B
:101110001A4B00221A601A480178FFF7FDF905B052
:10112000BDE8F083304603F079FD0C4D0C4C0028EF
:10113000B3D02B680193019B23600A233046636080
:1011400003F072FDA9E70132FE2AC8BF00212A6020
:10115000C8BF1960BFE700BF30B7FF1F24BDFF1F26
:10116000E8A1FF1F6CB7FF1F4C97FF1F3097FF1FB1
:101170002497FF1FC8B8FF1FA08F000038A2FF1FD1
:10118000DCA0FF1F34A1FF1F1C8E00002DE9F041E1
:10119000114C124E2468124B53F82430346803EB80
:1011A000430301349C420F4B346005460F461C78C4
:1011B00004DB0134E4B200211C703160104606F0FB
:1011C00071FF094E05EB4505C3B222463946701939
:1011D000BDE8F041FFF720BA6CB7FF1F38A2FF1F30
:1011E0003097FF1F9897FF1FC8B8FF1F08B5192138
:1011F0000020044AFFF7CAFF0348BDE80840017811
:10120000FFF78AB90000A040DCA0FF1F2DE9F04FD6
:10121000544C554F87B0264600254FF064080DE02A
:101220008DF814808DF815208DF81630FFF714FA1C
:1012300039784D4801350336FFF76EF9192003F070
:1012400005FC854231464FF000024FF0FF0305A830
:10125000E6DB0025434EA9464FF0640809E08DF80F
:1012600014808DF815908DF81630FFF7F5F90135DB
:101270000336192003F0EAFB854231464FF0FF03A5
:1012800005A8ECDB39783848364EFFF745F92821B8
:101290000A2003F0DFFB002503F09EFDA8464FF077
:1012A000640909E08DF814908DF815808DF816808A
:1012B000FFF7D2F901350336192003F0C7FB854249
:1012C000314605A8EEDB39782748284DFFF724F989
:1012D000C8210A2003F0BEFB03F07EFDA5F14B06FA
:1012E0004FF064094FF00008314605A803368DF829
:1012F00014908DF815808DF81680FFF7ADF9AE4289
:10130000F2D139781848DFF85C800026FFF704F93D
:10131000B2464FF064090AE08DF814908DF815A0DC
:101320008DF81630FFF798F9013608F103081920F7
:1013300003F08CFB864241464FF0FF0305A8EBDB30
:1013400039780948DFF81C80FFF7E6F832210A20D7
:1013500003F080FB002603F03FFDB1464FF0640A26
:1013600011E000BFC8B8FF1FDCA0FF1F13B9FF1FAB
:101370008DF814A08DF815908DF81690FFF76CF984
:10138000013608F10308192003F060FB864241464C
:1013900005A8EDDB3978BF48DFF8FC82FFF7BCF821
:1013A00064210A2003F056FB03F016FD4FF0640998
:1013B0004FF0000A414605A808F103088DF8149083
:1013C0008DF815A08DF816A0FFF746F9A8454FF047
:1013D00064064FF0000BEDD1DFF8B8823978DFF802
:1013E000C4A24046FFF798F8192003F02FFBAA4B40
:1013F0008DF8146000EB4001024619444FF0FF09DC
:1014000005A8CAF800208DF815B08DF81690FFF7E2
:1014100023F940463978FFF77FF831460A2003F078
:1014200019FB03F0D9FCDAF800109B4B8DF814601F
:1014300001EB4101194405A88DF815B08DF816B0DF
:10144000FFF70AF940463978FFF766F8DAF8001036
:10145000914B8DF8169001EB4101194405A88DF8C8
:1014600014608DF815B0FFF7F7F840463978FFF7AC
:1014700053F83146282003F0EDFA03F0ADFCDAF81A
:101480000010854B8DF8146001EB4101194405A84B
:101490008DF815B08DF816B0FFF7DEF840463978B4
:1014A000FFF73AF80321012003F0D4FA02284FF0A5
:1014B000190000F0C28003F0C9FA784A0292764A15
:1014C000774B019300EB40011144431CC21CCAF846
:1014D000000073488DF814600DF1140E03606F4B1B
:1014E0008DF815B070461A608DF81690FFF7B4F8B5
:1014F00098F800104046FFF70FF8142003F0A6FA02
:1015000003F06AFC66480168182940F32A8139789B
:101510006048FFF701F8142003F098FA03F05CFC30
:101520005E4B1968182940F30B81397859485A4E97
:10153000FEF7F2FF4FF064094FF0000B314605A8AB
:1015400003368DF814908DF815B08DF816B0FFF7AE
:1015500083F8AE424FF064084FF00002EED1DFF89E
:101560003491397802924846FEF7D6FF03210120D4
:1015700003F070FA0228029A00F096801920039274
:1015800003F064FA444E454BCAF8000000EB4001FA
:1015900031440293461CC31C0198039A06608DF8DF
:1015A000152005AE3D4A8DF8148030464FF0FF0AF5
:1015B00013608DF816A0FFF74FF899F80010364E1B
:1015C0004846FEF7A9FF142003F040FA03F004FC9C
:1015D0000198039A0168182940F3A58039782D48AD
:1015E000FEF79AFF142003F031FA03F0F5FB029B9B
:1015F0001968182940F3868039782648FEF78CFF51
:101600004FF064080026214605A803348DF81480A5
:101610008DF815608DF81660FFF71EF8AC42F2D118
:1016200039781C48FEF778FFC8210A2003F012FA27
:1016300003F0D2FB07B0BDE8F08F03F007FACAF859
:101640000000322003F002FA154BDAF8001018609F
:1016500011488DF8146001EB4101014405A8019384
:101660008DF815B08DF81690FEF7F6FF019A116807
:1016700018293FF75AAF084B8DF8146001EB410170
:10168000194405A88DF815B08DF81690FEF7E4FF03
:101690004BE700BFDCA0FF1FC8B8FF1F30A1FF1F32
:1016A0002CA1FF1F28A1FF1F192003F0CFF9CAF8B2
:1016B0000000322003F0CAF9DAF80010019B304A2A
:1016C000186001EB41011144FF26029A8DF81520A4
:1016D00005A88DF814808DF81660FEF7BDFF019BFC
:1016E00027491B68029A182B86DC03EB4303194435
:1016F00005A88DF814808DF815208DF81660FEF77A
:10170000ABFF79E71E4B642001EB41011944002235
:10171000FF238DF8140005A88DF815208DF81630DC
:10172000FEF79AFF68E701EB4101314405A88DF807
:1017300014808DF815208DF816A0FEF78DFF4DE76B
:101740000F4B01EB41011944642300228DF8143042
:1017500005A8FF238DF815208DF81630FEF77CFFC5
:10176000E3E6074B8DF8146001EB4101194405A82D
:101770008DF815B08DF81690FEF76EFFC7E600BF26
:10178000C8B8FF1FF0B51E4F3B68DB0785B00546A4
:101790001FD51C4E1C4C33680393039B1B482288A7
:1017A0006188A0FB0303C2EB93139BB299420ED84E
:1017B00033680293154A029BA2FB03239B092380F3
:1017C000FFF724FD284603F041F9114B186005B0DE
:1017D000F0BD384603F022FA0A4E0028DAD033680A
:1017E00001930A4A019B0A49074C09886180A2FBC0
:1017F00003239B093846238003F016FACBE700BF8A
:10180000E4A1FF1F24BDFF1F64B7FF1FD34D62106B
:101810004897FF1F2DE9F04F002083B003F06CF9CB
:10182000DFF89C924928C9F800004FF00A0178D0EF
:101830009248DFF890A2924E924F934DDFF888B213
:10184000924C04F0F7FA924803F070F89148DFF8F0
:101850007CE291494FF47A720260CEF800200222B5
:10186000CAF8002008223260FF2200230A700321F8
:101870000C223960184649214FF001082B60019372
:10188000CBF800802260C9F80010009103F034F911
:10189000492806D09DE80A00184603F047F99BF84E
:1018A0000080012003F028F9404503D04146012083
:1018B00003F03CF9022003F01FF99AF800808045FC
:1018C00003D04146022003F031F9032003F014F95C
:1018D0003678864203D03146032003F027F90420EE
:1018E00003F00AF93E78864203D03146042003F023
:1018F0001DF9052003F000F92D78854203D0294613
:10190000052003F013F9062003F0F6F8247884424A
:1019100000F0AC802146062003B0BDE8F04F03F094
:1019200005B95E48DFF8A081DFF89891544E554F15
:10193000554DDFF860A1554C04F07CFA544802F094
:10194000F5FF012003F0D8F8C8F80000022003F0EA
:10195000D3F8C9F80000032003F0CEF8306004206B
:1019600003F0CAF83860052003F0C6F84C4B286035
:1019700033F81030CAF80030062003F0BDF810210B
:101980002060484804F056FA2968414803F01EF8E0
:101990003F4802F0CBFF1021434804F04BFADAF83D
:1019A00000103B4803F012F8394802F0BFFF142141
:1019B0003E4804F03FFAD8F80010354803F006F826
:1019C000334802F0B3FF0E21394804F033FAD9F856
:1019D00000102F4802F0FAFF2D4802F0A7FF102157
:1019E000344804F027FA3968294802F0EFFF284804
:1019F00002F09CFF0E21304804F01CFA31682448A4
:101A000002F0E4FF224802F091FF12212B4804F07B
:101A100011FA21681E4802F0D9FF1D4802F086FF26
:101A2000D8F80030174A013B032B84BF0123C8F8C4
:101A300000303B68092B84BF032313603268104BCE
:101A4000092A16D8CD2303FB02F3DB103233DBB2B5
:101A50002A680D49092A84BF00220A6022680B49BE
:101A60000C2A84BF0C220A600B4A137003B0BDE835
:101A7000F08F03221A607E23EAE700BF708E000019
:101A800048B9FF1F40A1FF1F58B7FF1F34A1FF1F18
:101A9000C497FF1F44A2FF1FDCA0FF1F7C8E000025
:101AA000A497FF1F888E00009C8E0000B08E00005F
:101AB000C88E0000D88E0000EC8E0000FC8E000066
:101AC00048A2FF1F6CB7FF1FBC97FF1F50A2FF1F4C
:101AD000F8B54F4801F0C6FA4E480C2102F008FD57
:101AE0004D48046814F001046ED019224B4F4C4944
:101AF0004C484D4C4D4E4E4D0023FEF7B9FCFF2394
:101B00003B70FFF7E9F939783846FEF705FDFFF736
:101B1000E3F939783846FEF7FFFC4FF47A7003F0AA
:101B20005BF9FFF7D9F939783846FEF7F5FC04F18F
:101B300064079621012002F08DFFFE2144F8040F76
:101B4000012002F087FF012146F8040F002002F077
:101B500081FFBC4245F8040FEBD1364E4FF47A7E3C
:101B600001270021344B354C31480BE02568013A00
:101B7000AA421A60D8BF0760864203F1040304F149
:101B800004040FD050F8042F012A1A68EED1013254
:101B9000FE2A1A60F0DD8642016003F1040304F1BD
:101BA0000404EFD1BEF1010EDCD171466420FFF7D1
:101BB000ABF90A21224804F03DF9224802F0B6FEB2
:101BC000BDE8F840FFF726BE03F028F800288CD0C7
:101BD0001D49144B08685C60FF2201255C619C6014
:101BE0009D741A735A739A73DA731A745A7468B1BB
:101BF000164A116801B18B6013600022144906482F
:101C00009A619A83196003F00FF86EE70B60EFE7B3
:101C100070A2FF1F0082FF1F04A1FF1FDCA0FF1F97
:101C2000C8B8FF1F08A1FF1FC8B6FF1F5CB8FF1F81
:101C30007CA1FF1FE0A1FF1F60B8FF1FCCB6FF1FF4
:101C4000108F0000C497FF1FECA0FF1FFCA0FF1F18
:101C5000E08D000010B50B4B0B4A1B680B480C497C
:101C60000068086082B00193019C0A4B1460012255
:101C70001A60FFF731F908480178FEF74DFC02B011
:101C800010BD00BF24BDFF1FF0A1FF1F50A2FF1F0A
:101C900044A2FF1F4CA2FF1FDCA0FF1FF0B50621CE
:101CA00083B04248424D002404F0C4F801A96846BC
:101CB0008DF800408DF801408DF80240FEF7CCFC15
:101CC00001AA19213B48FEF797FC29782846FEF720
:101CD00023FC642003F080F8FF2601A96846C8278A
:101CE0008DF800608DF801608DF80270FEF7B4FC8D
:101CF00001AA19212F48FEF77FFC29782846FEF714
:101D00000BFC4FF47A7003F067F801A968468DF870
:101D100000408DF801408DF80240FEF79DFC01AABD
:101D200019212448FEF768FC29782846FEF7F4FBC1
:101D30004FF4967003F050F801A968468DF80270D0
:101D40008DF800608DF80160FEF786FC01AA19216C
:101D50001848FEF751FC29782846FEF7DDFB4FF4C2
:101D60007A7003F039F8684601A98DF800408DF8C3
:101D700001408DF80240FEF76FFC01AA19210D48C1
:101D8000FEF73AFC29782846FEF7C6FB0A4B0125E8
:101D900020461D6002F0B0FEA84203D0294620462E
:101DA00002F0C4FEFFF736FD03B0F0BD1C8F00004B
:101DB000DCA0FF1FC8B8FF1F48A2FF1F2DE9F04F8E
:101DC000C24CC34883B0214601F0ECF968B9C14B5D
:101DD0001C68012C00F0A080BF4AC04B1268019221
:101DE000019A1A6003B0BDE8F08FBD4EA368BD48EC
:101DF00033800B2104F01EF83188BB4802F0E6FD69
:101E0000B94802F093FD33884FF6FF72934200F019
:101E10009480B64CDFF8BC82DFF8D892DFF8F8A2E5
:101E200004F1240702E0A74265D0338834F8025F4A
:101E30009D42F8D10122FF2BC8F8002056D042F273
:101E4000DF018B425ED048F27F0293426DD044F2B4
:101E5000BF0293426DD04AF25F02934200F0848049
:101E600046F29F02934253D049F26F02934200F030
:101E7000F78045F2AF02934200F0F68040F6F70299
:101E8000934200F0F58041F6E7039D4200F0FA80AE
:101E900042F6D7039D4200F09F8048F677039D42AB
:101EA00000F05B8149F667039D4200F079814AF6B4
:101EB00057039D4200F0AA8144F6B7039D4200F00B
:101EC000E98045F6A7039D4200F04F8146F697034F
:101ED0009D4200F00B8241F2EF039D42A3D14722C5
:101EE000012389F80020CAF800309CE74123A7426B
:101EF00089F8003099D17E4B00221A60744801F0B5
:101F0000F9F869E74423CAF8002089F800308AE725
:101F1000462389F8003086E7754E18603368082B31
:101F2000054625DD0023336056E7422389F800305B
:101F300079E7432389F8003075E76D4A1368013368
:101F4000072B1360DADD6B4C6B48102103F072FF36
:101F5000207803F0F3FF644802F0E8FC2378412B7B
:101F6000CCD1FFF79BFEC9E7452389F800305AE73B
:101F7000604F387803F0E2FF5B4802F0D7FC3B7813
:101F8000412B00F0CB80442B54D0422B00F0108129
:101F9000432B00F02881472B00F06081482B00F094
:101FA0006D81492B00F07F81452B00F08E81462BFF
:101FB000B8D1524B524A19681160052046F29F026F
:101FC0001A6002F099FD052803D00521084602F0A9
:101FD000ADFDFEF781FFA5E7494A484B494D126820
:101FE0001A604FF0080B0320C5F800B002F084FD22
:101FF000584500F056815946032002F097FD2A68A3
:10200000CD2303FB02F3002BB8BF0733DB103233C1
:10201000DBB23D4D96212B703C20FEF775FF0B2166
:102020003A4803F007FFFEF757FF29782846FEF7E6
:1020300073FAF8E6052002F05FFD032803D00321C0
:10204000052002F073FD2D4B2D491868304A0860B9
:1020500042F2DF00012118601160FEF73DFF61E7E9
:10206000482389F80030DEE6492389F80030DAE6B3
:102070004A2389F8003000F065FB204B40F6F70258
:102080001A60D0E6502389F8003000F05BFB1B4B50
:102090001D60C8E61F4A13684C210B2B89F80010FD
:1020A00000F3D38001330620DDB2136002F024FD7B
:1020B000854203D02946062002F038FD00F042FB9D
:1020C0000E4B44F6B7021A60ADE600BF1CA2FF1F1C
:1020D00070A2FF1F68B7FF1F24BDFF1F40A2FF1F94
:1020E000C4B8FF1F248F0000C497FF1F4E97FF1F27
:1020F0005CB7FF1F34B7FF1F308F000044A2FF1FE3
:1021000050A2FF1F48B9FF1FDCA0FF1F448F000033
:10211000A097FF1F34A1FF1F9497FF1F052002F017
:10212000EBFC18B12946052002F000FD7F4B8049E9
:102130001C68804A0C60FF25032101247E481D6035
:10214000146003F077FE7D4802F0F0FBFEF7C4FE5A
:102150007B480178FEF7E0F9E4E64B2389F800308C
:1021600000F0F0FA714B1D605DE6764B1D6852225F
:10217000002D89F8002040F3D080013D06201D602D
:1021800002F0BAFCEDB2854203D02946062002F0E7
:10219000CDFC00F0D7FA654B45F6A7021A6042E67F
:1021A000512389F8003000F0CDFA604B1D603AE60B
:1021B000052002F0A1FC012803D02146052002F0F1
:1021C000B5FC5A4B5A4A1968116048F27F02002147
:1021D00064201A60FEF798FEFEF77EFE58480178EC
:1021E000FEF79AF99EE6052002F086FC022803D04D
:1021F0000221052002F09AFC4C4B4D4A19681160EF
:1022000044F2BF021A60FEF767FE8BE64849474A70
:102210004D4B09681160032504201D6002F06CFC21
:10222000A84203D02946042002F080FC9621B42065
:10223000FEF76AFE45480D2103F0FCFDFEF74CFE5B
:102240003F480178FEF768F9EDE5002506201560A6
:1022500002F052FC00287FF42DAF2FE7052002F09A
:102260004BFC062803D00621052002F05FFC2F4B13
:102270002F4A1968116041F2EF02A8E72B4B2C4A54
:1022800019681160052049F26F021A6002F034FCEF
:10229000072803D00721052002F048FC0021642014
:1022A00098E7FF23B5E6214B214A19681160052004
:1022B00045F2AF021A6002F01FFC08283FF489AE15
:1022C0000821052002F032FC83E6184B184A1968F1
:1022D000116005204AF25F021A6002F00DFC04282A
:1022E000DCD00421052002F021FCD7E710490F4A79
:1022F000144B096811600C2506201D6002F0FCFBE0
:10230000A84203D02946062002F010FC0021FF203D
:10231000FEF7FAFD0C210E488EE70C2506201D6005
:1023200002F0EAFBA8427FF430AF32E744A2FF1F7D
:1023300050A2FF1FA097FF1F708F0000C497FF1FC0
:10234000DCA0FF1F34A1FF1F40A1FF1F508F000022
:10235000608F00002DE9F0479A4C9B4A2368126871
:1023600086B00593059B9B1AFA2B76D8974B1B6872
:10237000FF2B78D0172B6DD049F26F02934200F0FB
:10238000878045F2AF02934200F0FD8048F27F0261
:10239000934200F011814AF25F02934200F08E8076
:1023A00044F2BF02934200F0778146F29F029342CB
:1023B00000F0758142F2DF02934277D041F2EF02E2
:1023C000934200F06F8140F6F702934200F0DE8006
:1023D00048F67702934200F0158141F6E7029342F6
:1023E00078D049F66702934200F0668145F6A7026D
:1023F000934203D044F6B70293422BD1744DDFF8D9
:10240000F8A1DFF8F891DFF8F88105F14B07C8264D
:10241000DAF800308DF8126019F8232058F82330CC
:102420008DF81120294604A803358DF81030FEF7E9
:1024300013F9AF42ECD167480178FEF76DF82368D5
:10244000654A0493049B12689B1AB3F57A7F01D9FD
:10245000FFF700FC06B0BDE8F087FFF7AFFC5B4B71
:102460001B68FF2B86D15D4C2368012BF2D1002124
:102470006420FEF749FD0B21594803F0DBFCFEF711
:102480002BFD54480178FEF747F800232360E1E76D
:10249000544A41F23D43D15C19B10021D154FEF7B9
:1024A000C5FBFEF7CDFB06B0BDE8F0874B4C2368BB
:1024B000012B63D01E20FFF765F9CBE7494A41F2B3
:1024C0003D43D15C19B10021D154FEF7AFFBFEF7BB
:1024D00059FCBFE72368404A0293029B12689B1A8B
:1024E000B3F57A7F00F218813F4C2368002BB1D1FD
:1024F0003E4D29680029C4BF01F1FF312960EB225C
:1025000002FB01F2E62303FB01F3002AB8BF073206
:10251000002BB8BF07332F4ED21014323C20962127
:10252000DB10143332708DF80C008DF80D1003A8F9
:1025300004A98DF80E30FEF78FF804AA192124485B
:10254000FEF75AF831782348FDF7E6FF0C212848BA
:1025500003F070FC2968274802F038FA254802F099
:10256000E5F9032002F0C8FA2D78854203D0294608
:10257000032002F0DBFA012323606BE7FEF746FE3F
:102580000023236096E7FEF77FFD63E72368124A86
:102590000093009B12689B1AB3F57A7F00F2B68015
:1025A000114C2368002B7FF455AF104D2968072983
:1025B000A5DC01312960A2E7FEF71CFBFEF788FBD2
:1025C00048E700BF24BDFF1F40A2FF1F44A2FF1F1A
:1025D000C8B8FF1FDCA0FF1FF0A1FF1FA097FF1FBF
:1025E000748F000074A2FF1F4CA2FF1F48B9FF1F89
:1025F000808F0000C497FF1F34A1FF1F1C8E0000B6
:10260000A08F00002368474A0193019B12689B1A20
:10261000B3F57A7F7DD8444C2368002B7FF41AAF42
:10262000424D2A68072AD8BF01324FF0E60303FB68
:1026300002F3D8BF2A60002BB8BF0733DB10B421E8
:10264000962214338DF80C108DF80D2004A903A8E0
:102650008DF80E30FEF700F804AA19213448FDF772
:10266000CBFF34480178FDF757FF0E21324803F0C5
:10267000E1FB2968314802F0A9F9304802F056F927
:10268000042002F039FA2D7885423FF474AF2946D0
:10269000042002F04BFA6EE7FEF768FCDAE6FEF77C
:1026A000A5FDD7E6FEF7A6FA254B1B68B42B7FF7EE
:1026B000D1AEFEF7ABFDCDE623681A4A0393039B28
:1026C00012689B1AB3F57A7F29D8174C2368002B20
:1026D0007FF4C0AE154D2A68002AC8BF02F1FF3250
:1026E0004FF0E60303FB02F3C8BF2A60002BB8BF1C
:1026F0000733DB10B421962214338DF808108DF8BF
:10270000092004A902A88DF80A30A3E7FFF7A2FA6E
:1027100046E7FFF79FFA7EE7FFF79CFAE4E6FFF74C
:1027200099FAD2E7F0A1FF1F4CA2FF1F40A1FF1FA3
:10273000C8B8FF1FDCA0FF1F908F0000C497FF1FC9
:102740003CA2FF1F10B51E4B1E491B6845F6A70291
:102750000020934282B0086018D044F6B70293423A
:1027600014D040F6F702934210D041F6E7029342AC
:102770000CD048F67702934208D049F6670293429C
:1027800004D0B3F57A7F16D00F4A13600F4C104B6C
:1027900022680092009A0F481A6000F0ABFC236890
:1027A0000D4A0193019B12689B1AFA2B01D9FFF77E
:1027B00005FB02B010BD044BFF221A60E6E700BF24
:1027C00044A2FF1F4CA2FF1F50A2FF1F24BDFF1FEA
:1027D000F0A1FF1F70A2FF1F40A2FF1F30B410F036
:1027E000800F029D039C40F033820C600B6000BFA1
:1027F00000BF00BF00BF00BF00BF00BF00BF00BFE1
:1028000000BF00BF00BF00BF00BF00BF00BF00BFD0
:1028100000BF00BF00BF00BF0C6000BF00BF00BF13
:1028200000BF00BF00BF00BF00BF00BF00BF00BFB0
:1028300000BF00BF00BF00BF00BF00BF00BF00BFA0
:1028400000BF00BF10F0400F00F053810D600A6020
:1028500000BF00BF00BF00BF00BF00BF00BF00BF80
:1028600000BF00BF00BF00BF00BF00BF00BF00BF70
:1028700000BF00BF00BF00BF00BF0D6000BF00BFB2
:1028800000BF00BF00BF00BF00BF00BF00BF00BF50
:1028900000BF00BF00BF00BF00BF00BF00BF00BF40
:1028A00000BF00BF00BF10F0200F00F09F810D603F
:1028B0000A6000BF00BF00BF00BF00BF00BF00BF75
:1028C00000BF00BF00BF00BF00BF00BF00BF00BF10
:1028D00000BF00BF00BF00BF00BF00BF0D6000BF52
:1028E00000BF00BF00BF00BF00BF00BF00BF00BFF0
:1028F00000BF00BF00BF00BF00BF00BF00BF00BFE0
:1029000000BF00BF00BF00BF10F0100F00F05581E6
:102910000D600A6000BF00BF00BF00BF00BF00BF66
:1029200000BF00BF00BF00BF00BF00BF00BF00BFAF
:1029300000BF00BF00BF00BF00BF00BF00BF0D60F1
:1029400000BF00BF00BF00BF00BF00BF00BF00BF8F
:1029500000BF00BF00BF00BF00BF00BF00BF00BF7F
:1029600000BF00BF00BF00BF00BF10F0080F00F0A5
:102970000B810D600A6000BF00BF00BF00BF00BF39
:1029800000BF00BF00BF00BF00BF00BF00BF00BF4F
:1029900000BF00BF00BF00BF00BF00BF00BF00BF3F
:1029A0000D6000BF00BF00BF00BF00BF00BF00BF81
:1029B00000BF00BF00BF00BF00BF00BF00BF00BF1F
:1029C00000BF00BF00BF00BF00BF00BF10F0040F7A
:1029D00000F0C1800D600A6000BF00BF00BF00BFF3
:1029E00000BF00BF00BF00BF00BF00BF00BF00BFEF
:1029F00000BF00BF00BF00BF00BF00BF00BF00BFDF
:102A000000BF0D6000BF00BF00BF00BF00BF00BF20
:102A100000BF00BF00BF00BF00BF00BF00BF00BFBE
:102A200000BF00BF00BF00BF00BF00BF00BF10F06D
:102A3000020F77D00D600A6000BF00BF00BF00BF6B
:102A400000BF00BF00BF00BF00BF00BF00BF00BF8E
:102A500000BF00BF00BF00BF00BF00BF00BF00BF7E
:102A600000BF0D6000BF00BF00BF00BF00BF00BFC0
:102A700000BF00BF00BF00BF00BF00BF00BF00BF5E
:102A800000BF00BF00BF00BF00BF00BF00BFC00746
:102A900000F1C5800C600B6000BF00BF00BF00BF2D
:102AA00000BF00BF00BF00BF00BF00BF00BF00BF2E
:102AB00000BF00BF00BF00BF00BF00BF00BF00BF1E
:102AC00000BF0C6000BF00BF00BF00BF00BF00BF61
:102AD00000BF00BF00BF00BF00BF00BF00BF00BFFE
:102AE00000BF00BF00BF00BF00BF00BF00BF30BCC1
:102AF00070470C600B6000BF00BF00BF00BF00BF8D
:102B000000BF00BF00BF00BF00BF00BF00BF00BFCD
:102B100000BF00BF00BF00BF00BF00BF00BF00BFBD
:102B20000C60ABE60C600B6000BF00BF00BF00BFD5
:102B300000BF00BF00BF00BF00BF00BF00BF00BF9D
:102B400000BF00BF00BF00BF00BF00BF00BF00BF8D
:102B500000BF0C6086E70C600B6000BF00BF00BFC9
:102B600000BF00BF00BF00BF00BF00BF00BF00BF6D
:102B700000BF00BF00BF00BF00BF00BF00BF00BF5D
:102B800000BF00BF0C603DE70C600B6000BF00BFE2
:102B900000BF00BF00BF00BF00BF00BF00BF00BF3D
:102BA00000BF00BF00BF00BF00BF00BF00BF00BF2D
:102BB00000BF00BF00BF0C60F3E60C600B6000BFFD
:102BC00000BF00BF00BF00BF00BF00BF00BF00BF0D
:102BD00000BF00BF00BF00BF00BF00BF00BF00BFFD
:102BE00000BF00BF00BF00BF0C60A9E60C600B6017
:102BF00000BF00BF00BF00BF00BF00BF00BF00BFDD
:102C000000BF00BF00BF00BF00BF00BF00BF00BFCC
:102C100000BF00BF00BF00BF00BF0C605FE60D60DB
:102C20000A6000BF00BF00BF00BF00BF00BF00BF01
:102C300000BF00BF00BF00BF00BF00BF00BF00BF9C
:102C400000BF00BF00BF00BF00BF00BF0D6039E77D
:102C50000D600A6000BF00BF00BF00BF00BF00BF23
:102C600000BF00BF00BF00BF00BF00BF00BF00BF6C
:102C700000BF00BF00BF00BF00BF00BF00BF0D60AE
:102C8000CBE500BF2DE9F04F85B00C4603900068FE
:102C9000002800F087800368504A1B68934240F088
:102CA0009A804268017B13780B4313704C4BA268E7
:102CB00019681E681D681F6826F4005625F48055A3
:102CC000002A41F4405846F4805645F4005527F454
:102CD000405756DD2368187818B1237B80FA53F0EB
:102CE000C0B2A37C3E49019703FB0000C0F307205C
:102CF000334600954246FFF771FD2368587818B1B6
:102D0000637B80FA53F0C0B2E37C3549019703FB43
:102D10000000C0F30720334600954246FFF75EFDF2
:102D20002368987818B1A37B80FA53F0C0B2237D52
:102D30002B49019703FB0000C0F3072033464246AE
:102D40000095FFF74BFDA268236894F80CA094F857
:102D50000D9094F80EC094F915B094F80FE0207C13
:102D6000617C013A5B44CAEB0E0EC9EB0000CCEB70
:102D70000101002A2360A26084F80CE06073A17353
:102D8000A9DC039B186850B10368164A5B6893423C
:102D90001DD14268017B137823EA0103137005B04B
:102DA000BDE8F08F0E4B8A6819681E681D681F68A1
:102DB00026F4005625F48055002A41F4405846F484
:102DC000805645F4005527F4405783DCE7E705B00B
:102DD000BDE8F04F1847984768E700BFC9070000F3
:102DE00000F00F40D5070000F0B5044689B00D464D
:102DF00001F0CEFFA38BC01A80B2B0F57A7FF7D373
:102E0000297B687BAF7BEE7B2A7C6B7C8DF8101076
:102E10008DF811002968A87C95F813E08DF81270E0
:102E20008DF813602F7D8DF814206E7DAA698DF8C2
:102E3000153001916B688DF8160001A904F1180096
:102E40008DF817E00293039307928DF818708DF8B0
:102E50001960FFF717FF01F09BFFA08309B0F0BDD9
:102E60002DE9F04383B001F0FFFD684B68491B6812
:102E70000193684E684B019A09686848684D1A606A
:102E800000F0E8F83268674F2F6000236B722B6107
:102E90002B72EB600AB9B2E01A465369002BFBD1E2
:102EA0005561614C614B5E482B604FF00008C5F8DE
:102EB0001480A5F80480A5F8068085F80A8001F042
:102EC00019FA012004F5A25243464146276084F8CE
:102ED0000880C4F80C8060722261A64601E0DEF82A
:102EE000102042F82310627A4F4801339A42F6DCF0
:102EF0003268484B0AB984E01A465369002BFBD16B
:102F0000546141F23C4241F23D434FF00009DFF889
:102F10002C814749474804F8029004F803904A4638
:102F200001232160C4F818044FF480614248C4F8BA
:102F30001490A4F80490A4F8069084F80A9004F081
:102F400001F8012008F11802C8F800704B46494604
:102F500088F80890C8F80C9088F80900C8F8102084
:102F6000474600E03A6942F8231098F809203348B0
:102F700001339A42F6DC3268264B0AB943E01A461E
:102F80005369002BFBD1C2F81480DFF8C4902C4B9E
:102F90002C4FC8F800300026002348460022C8F80D
:102FA0001460A8F80460A8F8066088F80A60C8E908
:102FB0000823C9F80050C9F8044089F80860C8F827
:102FC000286089F80960C9F80C6089F8106001F080
:102FD00063FB1D4A1D49484604F090F838463E728E
:102FE00087E820017E72FE603E7401F055FB384692
:102FF000154A164904F082F803B0BDE8F083356045
:103000004FE718607DE71860BFE700BF24BDFF1FD2
:103010009C97FF1FECBCFF1FF0A1FF1F70A2FF1FBA
:1030200058A2FF1FD48D000074A2FF1F3898000023
:103030002090000030900000B8B6FF1F18B9FF1FA5
:103040002C9000006CA1FF1F2097FF1FE5070000D8
:1030500058A1FF1F024BC9B200225970DA707047A5
:103060002CBBFF1FF0B572B6174A184D1368184CE9
:1030700018491948DFF874C0DFF874E0174E184F8C
:1030800043F00403136004232B70012323700E22EA
:103090000B7000211E238CF80010124D03708EF867
:1030A00000103270032639700222667105342A60DE
:1030B0002478037062B60C4B1A7019715878BDE809
:1030C000F04001F05FBE00BF348004400A2006409B
:1030D0000020064001200640072006400920064047
:1030E0000420064008E100E02CBBFF1F062006403C
:1030F00008200640024B0221002219701A71704705
:103100002CBBFF1F2DE9F0474F69052F41DD0C69EE
:10311000214DDFF88C8004EB870789460C3411E0E1
:10312000304604F0BDFD0146504604F057FF04341C
:10313000002814BF0223012308FB05F5BC4285EAE1
:1031400003051BD054F808AC206804F051FD064676
:10315000504604F04DFD1149824604F0A1FD0146A0
:10316000304604F03BFF0D490028D9D00434002339
:1031700008FB05F5BC4285EA0305E3D12022FF23C5
:10318000C9F80850C9F80C2089F800300120BDE8C2
:10319000F0870020BDE8F087C59D1C81CDCC4C3F59
:1031A0009301000170B5344A0A61A2F10C052C7933
:1031B0004C6195F8A04112F80C2C8C61052A01D0C5
:1031C000002070BD06460C4600F012FA08B101203E
:1031D00070BD2146304600F0AFFC0028F7D12146F3
:1031E000304600F03FFC0028F1D12146304600F087
:1031F000ABF90028EBD12146304600F0EBFA00286D
:10320000E5D12146304600F047FB0028DFD12146BA
:10321000304600F04FFA0028D9D12146304600F060
:1032200041F90028D3D12146304600F0C9F80028E2
:10323000CDD12146304600F0B3FB0028C7D121464E
:10324000304600F0DBFC0028C1D12146304600F0BA
:1032500015F80028BBD12146304600F06BF8002855
:10326000B5D121463046FFF74DFF0028AFD10222ED
:103270002A70287170BD00BF38BBFF1F2DE9F041D7
:10328000DFF8AC8098F80430572B02D80020BDE856
:10329000F0810B690D46586842F2602100F03AFD5A
:1032A0000028F3D02B6941F29411986800F05CFD7E
:1032B0000028EBD098F80430212B36DD1E261D2483
:1032C000002709E043F0010798F804300234043B7A
:1032D000A34206F102061DDD2B694FF4FA7153F883
:1032E000240000F017FD4FF416710028CED02B6992
:1032F00053F8260000F038FD7B000028E2D12B694E
:1033000040F2A46153F8260000F02EFD08B17F00C2
:10331000DAE73446013C6410292CEC60B6DD092361
:10332000AF602B700120BDE8F0810E23EB60ADE7AC
:103330002CBBFF1FF8B5214B1B79202B01D000209F
:10334000F8BD0B690C4658684FF4967100F0E2FC2A
:103350000028F4D0236940F2EE21986800F004FDC3
:103360000028ECD00C25002604E043F001060835C7
:103370007C2D1BD023694FF49671585900F0CAFC7C
:103380002F1D4FF4E1610028D9D02369D85900F0EE
:10339000EBFC73000028E8D1236940F2EE21D859F4
:1033A00000F0E2FC0028CAD07600E0E70E220F23EE
:1033B000A660E26023700120F8BD00BF2CBBFF1F98
:1033C000F8B5374D2B79222B0C463AD023694FF4B0
:1033D000FA51586800F09EFC10B12B79202B01D8CF
:1033E0000020F8BD23694FF47A61986800F0BCFCB6
:1033F0000028F5D010260325002706E043F001073A
:103400000235232D06F1080639D023694FF41671D1
:1034100053F8250000F07EFC4FF4C8610028DFD08F
:103420002369985900F0A0FC7B000028E6D12369AD
:1034300040F22621985900F097FC0028D0D07F0058
:10344000DEE70B694FF41671586800F063FC002842
:10345000BCD02B79226903F18043013B4FF41671F4
:1034600052F8230000F056FC0028AFD000214FF0A6
:10347000FF320623E160A26023700120F8BD2369BA
:103480004FF41671D3F88C0000F044FC0028A7D04C
:1034900010220623A760E26023700120F8BD00BF60
:1034A0002CBBFF1FF8B5274B1B79382B01D8002008
:1034B000F8BD0B690C4658684FF4FA5100F02AFC2D
:1034C0000028F4D023694FF47A61986800F04CFC2E
:1034D0000028ECD010260325002706E043F0010762
:1034E00002353B2D06F108061BD023694FF41671F7
:1034F00053F8250000F00EFC4FF4C8610028D6D028
:103500002369985900F030FC7B000028E6D123693C
:1035100040F22621985900F027FC0028C7D07F00F0
:10352000DEE723694FF41671D3F8EC0000F0F2FBEC
:103530000028BCD01C220A23A760E260237001206F
:10354000F8BD00BF2CBBFF1F2DE9F041DFF89C80C8
:1035500098F80430212B02D80020BDE8F0810B69D7
:103560000E4658684FF4AF7100F0D4FB0028F3D03A
:1035700098F80430032B34DD0324022500270FE0E4
:1035800043F0010733694FF4AF7153F8240000F0A2
:10359000EBFB0235D0B198F804300234A34214DDBD
:1035A000336940F29E7153F8250000F0B3FB7B00B5
:1035B0000028E5D1336940F2EE2153F8250000F0F0
:1035C000A9FB0028C8D07F00DCE72C46013C641032
:1035D0000F2CF46005DD0C23B76033700120BDE8CB
:1035E000F0810020F060BDE8F08100BF2CBBFF1F20
:1035F000F8B50D4642F228312B69586800F08AFB75
:1036000030B12B4C2379042B31D02379432B01D8B3
:103610000020F8BD2B6941F29411986800F0A4FBDA
:103620000028F5D00C24002605E043F001060834FC
:10363000B4F5867F34D02B694FF40C71185900F023
:1036400069FB271D40F29A610028E1D02B69D85907
:1036500000F08AFB73000028E7D12B694FF40C714E
:10366000D85900F081FB0028D2D07600DFE72B6923
:1036700040F6CA01986800F077FB0028C5D02B6996
:103680004FF40C71D86800F045FB0028BDD0002134
:103690004FF0FF320323E960AA602B700120F8BDD0
:1036A00020220323AE60EA602B700120F8BD00BF2A
:1036B0002CBBFF1F2DE9F0410D4640F6AE512B69A2
:1036C000586800F027FB10B90020BDE8F0812B6995
:1036D00040F2D661986800F01DFB0028F4D00C245D
:1036E0000026002706E042F001061F460834B4F524
:1036F000C67F21D02B694FF4FB71185900F00AFBEB
:1037000004F1040840F2DC410028DDD02B6953F8B5
:10371000080000F029FBB21947EB07030028E2D1AB
:103720002B694FF4C87153F8080000F01DFB002806
:10373000CAD0B6197F41D9E705223023AE606F6049
:103740002A70EB600120BDE8F08100BF2DE9F04157
:1037500048691468844221DA15460A691E4604F055
:10376000010352F82480069A002B14BF64246FF0E2
:10377000630414442146404683F0010700F0A0FA98
:1037800098B10122336801339A420ADC0023336086
:103790002B68013338462B60BDE8F0810120BDE87D
:1037A000F08133603846BDE8F081069B1C44214619
:1037B000404600F085FA08B10222E3E7069B404646
:1037C000191900F07DFA08B10322DBE74FF0FF3052
:1037D000BDE8F0812DE9F0472E4E337984B0002406
:1037E00001220C2B0294039203D8002004B0BDE800
:1037F000F08740F2793702AB03AA00970D460446E2
:10380000FFF7A4FF0028F0D1009702AB03AA2946D6
:103810002046FFF79BFF0128E7D1009702AB03AAE0
:1038200029462046FFF792FF0028DED13279039B1C
:103830009A42804682460DDC25E0B9F1000FD4D1D2
:103840000128D2D14FEA48083279039B9A420AF103
:10385000010A18DD02AB03AA294600972046FFF7AC
:1038600075FF0097814602AB03AA29462046FFF761
:103870006DFFB9F1010FE0D14FEA48080028B4D13B
:1038800048F00108E0E70120C5F80CA0C5F8088061
:103890002870ABE72CBBFF1F2DE9F0474B690022D6
:1038A00084B0934202920ADD0B6905460C465868C3
:1038B00040F66A210223039300F02CFA18B9002085
:1038C00004B0BDE8F087039B2269591C039152F8AC
:1038D000230040F2793100F047FA0028EFD04FF48E
:1038E000DE7602AB03AA009621462846FFF72EFF9C
:1038F00007460028E3D1009602AB03AA21462846DA
:10390000FFF724FF0128DAD1039A63699A42B84687
:1039100021DA02AB03AA214600962846FFF716FFDC
:10392000B8F1030F8146009602AB03AA2146284650
:1039300020D0FFF70BFF8246B9F1000F12D1BAF188
:10394000010FBCD17F0047F001076269039B9A42D7
:1039500008F10108DDDC0223C4F80C80A7602370A5
:103960000120ADE7B9F1010FA9D1BAF1000FA6D13D
:103970007F00EAE7FFF7EAFE8145A0D102AB03AA88
:10398000214600962846FFF7E1FE0096824602ABEC
:1039900003AA21462846FFF7D9FE5045CCD08EE732
:1039A000F8B50D4641F288312B69586800F0B2F93C
:1039B00030B12B4C2379042B31D02379432B01D800
:1039C0000020F8BD2B6941F28831986800F0CCF9ED
:1039D0000028F5D00C24002605E043F00106083449
:1039E000B4F5867F34D02B694FF40C71185900F070
:1039F00091F9271D4FF4C8610028E1D02B69D859EF
:103A000000F0B2F973000028E7D12B694FF40C7174
:103A1000D85900F0A9F90028D2D07600DFE72B6949
:103A200040F6CA01986800F09FF90028C5D02B69BC
:103A30004FF40C71D86800F06DF90028BDD000215A
:103A40004FF0FF320723E960AA602B700120F8BD18
:103A500020220723AE60EA602B700120F8BD00BF72
:103A60002CBBFF1F2DE9F041324E3379192B15D9AC
:103A70000B691A68B2F5487F09D200204FF0FF3277
:103A80000B23C8608A600B700120BDE8F0810D46F1
:103A9000586840F6AC5100F03DF910B90020BDE87F
:103AA000F0812B6940F6AC51986800F033F900289A
:103AB000F4D03379042B38DD042403274FF00008B9
:103AC00007E043F00108337902349C4207F1020712
:103AD0001EDA2B6940F2B63153F8270000F044F9A2
:103AE0004FF41661A8B12B6953F8240000F012F9C5
:103AF0004FEA48030028E4D12B694FF42F7153F8A3
:103B0000240000F007F90028C8D04FEA4808DAE797
:103B10003C46013C64100B2CEC6006DD0B23C5F821
:103B200008802B700120BDE8F0810020E860BDE82E
:103B3000F08100BF2CBBFF1F2DE9F041DFF8B880FA
:103B400098F80430192B15D90B691A68B2F5FA7F69
:103B500009D200204FF0FF320B23C8608A600B703F
:103B60000120BDE8F0810D4658684FF4166100F061
:103B7000D1F810B90020BDE8F08198F80430032B8B
:103B800035DD03240226002708E043F0010798F8FA
:103B9000043002349C4206F102061CDA2B694FF411
:103BA000167153F8260000F0DFF84FF4966198B1D3
:103BB0002B6953F8240000F0ADF87B000028E4D115
:103BC0002B694FF4167153F8240000F0A3F8002875
:103BD000D0D07F00DBE73446013C64100B2CEC6056
:103BE00005DD0423AF602B700120BDE8F0810020CB
:103BF000E860BDE8F08100BF2CBBFF1FF8B52F4B7C
:103C00001B79452B01D80020F8BD0B690C4658687C
:103C100040F2EE2100F07EF80028F4D0236940F253
:103C2000EE21986800F0A0F80028ECD0236940F657
:103C30002231D86800F06EF80028E4D0236940F6FD
:103C40002231186900F090F80028DCD018260525EC
:103C5000002706E043F001070235452D06F108066E
:103C60001BD0236940F2EE2153F8250000F052F8F2
:103C700040F666010028C6D02369985900F074F810
:103C80007B000028E6D1236940F2EE21985900F02C
:103C90006BF80028B7D07F00DEE7236940F2EE2101
:103CA000D3F8140100F036F80028ACD02022082305
:103CB000A760E26023700120F8BD00BF2CBBFF1F8E
:103CC00038B50446084603F097FF4FF07D5105468E
:103CD00003F0E6FF0D4904F097F804F0BDF9A042A7
:103CE00011DC28460A4903F0DBFF084904F08CF890
:103CF0004FF07E5103F0CCFE04F0AEF98442CCBF0D
:103D00000020012038BD002038BD00BF000048421F
:103D10000000A03F38B5044601F1640003F06CFFD9
:103D20004FF07D51054603F0BBFF0D4904F06CF8E0
:103D300004F092F9A04211DC28460A4903F0B0FFD2
:103D4000074904F061F84FF07E5103F0A1FE04F042
:103D500083F98442CCBF0020012038BD002038BD4B
:103D6000000048420000A03F38B50446A1F16400BD
:103D700003F042FF4FF07D51054603F091FF0D49DE
:103D800004F042F804F068F9A04211DC28460A4920
:103D900003F086FF074904F037F84FF07E5103F037
:103DA00077FE04F059F98442CCBF0020012038BDD1
:103DB000002038BD000048420000A03F10B54D4A29
:103DC0004D4B4E4C12781E221A70607800F0CCFFDA
:103DD000A3680133A3602379642B84BF0623237077
:103DE0002378023B042B09D8DFE803F040471C5B33
:103DF00003000122052384F8A0212370E3781BB37C
:103E000018BBA3783D4A002B5CD13D4A3D4B202195
:103E100011601B6813F0050F16D13B4B40F20312E3
:103E20001A6010BD002840D12379DBB25A1CD2B2EF
:103E30000233227104EB8303A2685A600323A0605B
:103E40002370E378002BDCD110BDA3782B4A002B24
:103E500032D12E4A2B4B202111601B6813F0050F25
:103E6000F2D1294B4FF480721A6010BDA8B9A26834
:103E7000224B632A2CD89860E3E70128BED123792E
:103E8000DBB25A1CD2B20233227104EB8303A26864
:103E90005A6000220423A2602370E378002BD4D15F
:103EA00010BD0028F9D1A060CBE7A368134A642BAA
:103EB000F3D905231370F0E790780021BDE8104096
:103EC00000F04CBF90780121BDE8104000F046BFE3
:103ED00083F8A00118711A79D2B2511CC9B202320A
:103EE000197103EB820299685160032298601A707D
:103EF000A7E700BF05200640072006402CBBFF1F98
:103F000084F00F4094F00F4014B0044088F00F404C
:103F1000F8B50021054600F0B3FB002800F0D08082
:103F200041F23C43EB5C072B00F2CA80DFE803F070
:103F3000C9D0D7DEE5ECF304D5F81C74C5F8380415
:103F400005F587643B1D224607F5827705F23C4163
:103F500033F8026B42F8046F9F42F9D1D5F8207410
:103F600005F5C7623B1D07F5827733F8026B42F80F
:103F7000046F9F42F9D1D5F8247405F638023B1D31
:103F800007F5827733F8026B42F8046F9F42F9D14C
:103F9000D5F8287405F638223B1D07F5827733F8EB
:103FA000026B42F8046F9F42F9D1D5F82C7405F6E4
:103FB00038423B1D07F5827733F8026B42F8046FF5
:103FC0009F42F9D1D5F8307405F638623B1D07F5EC
:103FD000827733F8026B42F8046F9F42F9D1D5F82B
:103FE000347405F581523B1D183207F5827733F89A
:103FF000026B42F8046F9F42F9D105F59152031DFF
:10400000183200F5827033F8026B42F8046F834275
:10401000F9D1D5F8180480B105F5886200F500677C
:1040200032F9043C30F9026B03FB06F3DB138742E1
:1040300022F8043C02F10402F2D105F5A25004304A
:10404000384E02F061FF05F2164705F1160054F8EC
:10405000041F21FB01F1B1FA81F336F81320B1FB03
:10406000F2F31A445308B1FBF3F10B445B0820F858
:10407000023FB842EBD141F23D430122EA54D5F868
:104080001C0400F0B9FAD5F8200400F0B5FAD5F810
:10409000240400F0B1FAD5F8280400F0ADFA41F29A
:1040A0003C430422EA5405F586610EC9D5F82C0478
:1040B000C5F81C04C5F82014C5F82424C5F8283414
:1040C000F8BD41F23C430122C5F81C04EA54F8BD96
:1040D00041F23C430222C5F82004EA54F8BD41F203
:1040E0003C430322C5F82404EA54F8BD41F23C43A2
:1040F0000422C5F82804EA54F8BD41F23C430522E5
:10410000C5F82C04EA54F8BD41F23C430622C5F838
:104110003004EA54F8BD41F23C430722C5F83404A8
:10412000EA54F8BD3C9800002DE9F041002180469A
:1041300000F0A6FAF8B1D8E90823011D00F5827E47
:104140000F684E688D68103151F8044CC7FBC723C7
:10415000C6FBC623C5FBC523C4FBC4238E45EFD8CD
:10416000D8F828100131C8E90823C8F82810BDE89C
:10417000F04100F041BABDE8F08100BFF8B572B679
:10418000002600270023D0E90845826A8362C0E93F
:10419000086762B6D2012046294603F0A3FF03F068
:1041A00041FD02F0B1FF024903F02EFEF8BD00BF51
:1041B00000FEFF461B4A1C4B11681C48096970B47D
:1041C00099421279027009D2194A127832B3194A07
:1041D0004FF08041116003F5807402E01C46A3F5A6
:1041E0008073154A154912680D68AAB1A5B1144E1D
:1041F0003088402810D841000A4440302944023217
:104200000231308033F9040B22F8020F9C4233F95B
:10421000020C21F8020FF5D870BC704703F58074CA
:10422000DFE700BFD8BCFF1F308FFF1F1F8000409B
:10423000D2BCFF1F08E200E0E0BCFF1FD4BCFF1FA0
:10424000D0BCFF1FF8B5064600F082F90446E8B17D
:1042500000F07EF9054600283AD072B61F4B1A8846
:104260007F2A19D8002C31D01D490A6842B162B6A4
:10427000204600F0C1F92846BDE8F84000F0BCB97E
:1042800018480C601A80056062B6F8BD054672B623
:10429000124B1A887F2AE5D9114A1249176814600F
:1042A00000220C681A800D6062B63946304600F074
:1042B000CDF9384600F0A0F930462146012200F041
:1042C000C5F92046BDE8F84000F096B962B6F8BDE1
:1042D000204600F091F92C46BFE700BFD0BCFF1F7D
:1042E000E0BCFF1FD4BCFF1F10B5044600F004FB68
:1042F000204610BDF8B5284C284E2046012100F07C
:1043000097FA00F06BF8264B264A27484FF4806155
:104310001960236800211A6099802279186102F1DE
:10432000804202F5043240F20110D8809E614FF4C1
:104330008075022006278E26DD82D960DD83986095
:104340009F8398821170167000F018FA1749184B65
:104350002279184F08701A7039682279164C174D57
:10436000174E41F0124141F00101531139609B0099
:10437000206803F1604302F1100703F5614302F086
:104380001F02012140F0104001FA02F2206045F8BE
:1043900027601A60F8BD00BFD8BCFF1F00FEFFFFFA
:1043A00014B00440A0F00240308EFF1FD2BCFF1FAB
:1043B0001B80004080F0024000F002400092FF1F8E
:1043C000B5410000024A0349034802F097BE00BF0E
:1043D0002097FF1FE9420000D8BCFF1F284B294946
:1043E0001A68294842F400421A600A6842F0020240
:1043F0000A601A6842F002021A600368002B3DDB73
:10440000224B1B68002B39DB214A4FF08643136097
:104410001368002BFCDBF0B51E4C1F48DFF8ACE046
:104420001E491F4B1F4A204F204E214D47F2320C90
:10443000C4F800C0002404600120CEF80000DFF8BA
:1044400090E0C1F800E04FF480311960194B13601F
:10445000DFF880E0184A3A60346028601748CEF8E8
:104460000000174CB9671748174946F8503C4FF4FD
:10447000C0632A61236003600B60F0BD704700BF1A
:104480003C8004404080044000F0024080F0024044
:1044900000F1024004F1024060F0024008F00240E6
:1044A0000CF0024010F0024014F00240E0F0024034
:1044B00084F002401B0F0100000F0F0F03000047A4
:1044C00008B004400CB0044018B0044004F00240AE
:1044D0000300000788F00240024A0349034802F043
:1044E0000DBE00BF2097FF1FE9420000E4BCFF1F84
:1044F000C029F0B428BFC02172B6124B124E134A25
:1045000018600023138033607360B360F36033611D
:104510007361012799B15D0903F01F0456F8252046
:1045200007FA04F4013322438B4246F82520F2D1E6
:104530000023438001338B4200F58270F9D162B6CB
:10454000F0BC7047F4BCFF1FFCBCFF1F16BDFF1F73
:10455000F0B472B6234F244E3C8806F1180306EBE4
:104560008400984212D256F8241099B9021D06F11F
:104570001B05631CAD1A03EB950503E052F8041B01
:1045800041B90133AB421C461046F7D162B6002058
:10459000F0BC7047B1FA81F34FF00042DA4021EAF3
:1045A0000201016001B9013410493C800A880132DE
:1045B00094B20C8062B6801B8010C3EB401000EBFD
:1045C000801083000A480B49006803F5FB531C3335
:1045D0000125C5540D88AA42184488BF0C80F0BC40
:1045E000704700BF16BDFF1FFCBCFF1F18BDFF1F9B
:1045F000F4BCFF1FF0BCFF1F428872B60378012B8A
:1046000003D9013B037062B67047531170B40C4C70
:104610000C4D54F823102E88D2434FF0004002F086
:104620001F0220FA02F21143074A44F82310B34252
:1046300038BF2B801388013B138062B670BC704773
:10464000FCBCFF1F16BDFF1F18BDFF1FC368B3B121
:1046500030B401E0DB688BB1187A9042FAD1586827
:104660005C7A006950F82450002DF3D140F82410F2
:10467000087801300870DB68002BEDD130BC704742
:10468000437A8B4206D90369002253F8210043F88C
:104690002120704700207047037C23BB4368427A87
:1046A0005B7A9A421FD830B472B60468E3682BB3C1
:1046B000DA6832B119688C4216D01346DA68002ADB
:1046C000F8D1D8600023C360A37A0133A3720268D3
:1046D0004168012313728A7A1A448A7242681372FB
:1046E000037462B630BC70475D6841688D42E4D1A6
:1046F000198903899942F4D01346DFE7E060E1E7C6
:10470000037C10B5002B32D04368427A5B7A9A4220
:104710002DD872B60268D36843B3984202D129E01B
:10472000984202D0DB68002BFAD14368417A1B69BA
:10473000044653F8210048B1FFF75EFF72B6636884
:10474000627A1B69002143F822102268937A013BA8
:10475000937223689A7A02B91A726268937A013B5B
:10476000937263689A7A1AB10023237462B610BDFB
:104770001A72F9E7C368D360D7E700BF084B1A780D
:1047800062B930B407480849D02505704FF080441D
:1047900001220C6010461A7030BC70470020704730
:1047A000F8BCFF1F5EE400E008E100E01A491B4A84
:1047B0001B48F8B50B681B4D046843F080730B6011
:1047C000136843F0010313602E6814B915E064699F
:1047D0009CB1237A002BFAD023682F681B682046EF
:1047E00098472B68E188DB1B1B099AB28B42A28099
:1047F00088BFE2806469002CEBD10A4B0A4A1B682F
:1048000010880A4C9B1B1B0999B28342218001D955
:104810001180F8BDF8BD00BFFCED00E0001000E025
:10482000ECBCFF1F041000E014BDFF1F1ABDFF1FEA
:10483000F0B572B699B902688AB103790F2B0ED818
:10484000274C218841FA03F5ED070AD503F10073DF
:1048500003F59063B2EB431F03D162B6F0BD204C69
:104860002188002341FA03F212F0010207D001333C
:10487000102BF7D162B6002203710260F0BD012552
:104880009D402943218062B6164E174D174FDFF821
:1048900064E0D9B20171346844F0020434602C68D9
:1048A00044F002042C60A6F580268224A5F580251C
:1048B00003F100733C6003F59063223E243D0C4CF1
:1048C0008EF800105B0131702970217003601A604E
:1048D0005A609A60DA601A615A619A61DA61F0BDD1
:1048E0001CBDFF1F408004403C800440008000400D
:1048F0001F8000401A80004003790F2B11D8094A0D
:1049000010B4137072B6084904790A880123A340D1
:1049100022EA03030B8062B61022002310BC02714E
:10492000036070471A8000401CBDFF1F00B5064A97
:10493000036812885B6883B001A9ADF804200222E5
:10494000984703B05DF804FB80980000F0B5074677
:104950008BB0002A33D0012A08BF0A2251B3212488
:1049600000E0F4B2B1FBF2F502FB1511C8B209295F
:1049700000F1300198BFC8B20AA988BF373021447E
:1049800088BFC0B201F8240C661E2946002DE8D16C
:1049900033B1013CE4B20AAB23442D2203F8242CAA
:1049A0003B6801AA11195B683846C4F12202984796
:1049B0000BB0F0BD30228DF825202124E8E70368F4
:1049C000C9B21B6898470BB0F0BD00BF0029BABF41
:1049D00049422D2300230A22FFF7B8BFF0B5164D38
:1049E0002A680AB31549164BDFF85CE082FB0167C1
:1049F00081FB0214D617D1191444C6EB2141C6EB32
:104A0000244403FB04F40EFB112244F2A71303FB1E
:104A10000243002B02DA03F10043013BB3FBF0F247
:104A20002B6000FB1230F0BD064B2B60B3FBF0F2A5
:104A300000FB1230F0BD00BF20BDFF1F5F0B4E8397
:104A4000ECF4FFFF42CE0C1F1DF3010008B1FFF78D
:104A5000C5BF7047884206DA10B50446081AFFF74A
:104A6000BDFF204410BD7047F0B51B4B1B4E59686D
:104A700018689A68DB6885B06C460FC4337899076C
:104A80001DD5174A174C1378174913F0700318BF38
:104A90001370164A164B8027177000263320032206
:104AA00026706D4608701A7072B6043C45F0010518
:104AB0002046A84762B6237813F0700309D10D4B46
:104AC000064901E0013B02D00A78D207FAD505B0C9
:104AD000F0BD237005B0F0BD8498000001000240D5
:104AE00000000240040002400B00024007000240A8
:104AF0000A000240410D0300B0F5006F0AD210B564
:104B0000094B1B78DB07044606D504F1A05000785A
:104B1000C0B210BD00207047FFF7A6FF04F1A050FF
:104B20000078C0B210BD00BF01000240B0F5006FB8
:104B300017D238B50F4B1B78DA070D46044611D54E
:104B400004F1A0500378AB420AD00B4A137813F05B
:104B5000700318BF1370074A05701378DB07FCD584
:104B600038BD7047FFF780FF04F1A0500378AB42D7
:104B7000EBD1F5E7010002400000024008B5FCF768
:104B8000A7FFFDF7E7FB01F059FAFAE708B5104C6B
:104B900008E0236859050DD423681A050FD423684B
:104BA000DB0411D423685803F3D500F0AFFA23686F
:104BB0005905F1D501F00EFC23681A05EFD501F077
:104BC0009FFC2368DB04EDD501F030FDEAE700BF70
:104BD0003480044008B5FFF7D9FF00BF014B102215
:104BE0001A80704700200540704700BF094908B58A
:104BF0000B6830B16A461844A2F58052904202D246
:104C00000860184608BD03F037FC0C2303604FF022
:104C1000FF3008BDC097FF1FFEE700BF0078B0FA65
:104C200080F04009704700BF01230370704700BF48
:104C3000F0B44D1E2E46002400E00134B0FBF2F328
:104C400002FB1300092800F130078ABF3730F8B2A1
:104C5000C0B206F8010F1846002BEED10A195370A6
:104C60004CB1107815F8016F28700133E01A8342B7
:104C700002F80169F5DB0846F0BC704710B40F4B31
:104C800053F8302092F880422CB1012369B182F8A8
:104C9000803010BC704703EBC0035B681A6841B9F1
:104CA00022F002021A6010BC704782F8003110BC7A
:104CB000704742F003021A6010BC704794980000DD
:104CC0001C4A02EBC00301295B6811D004291BD0E8
:104CD00052F83000002280F8802229B1022920D029
:104CE000032922D01A6070474FF480721A6070470F
:104CF00052F830004FF4A27280F880121A601A68DD
:104D000022F020021A60704752F830104FF4A2725D
:104D1000012081F880021A601A6842F020021A60AD
:104D2000704740F203121A6070474FF481721A60A4
:104D3000704700BF9498000030B4054B054D064CF9
:104D4000002210211A602A602060196030BC704770
:104D500014D0034004D0034000D00340212801D8E0
:104D6000FFF78CBF704700BF212806D8044B53F8CB
:104D7000303093F80002C0B270470020704700BF87
:104D800094980000212801D8FFF79ABF704700BF10
:104D900072B60D490D4B0E4A1B680868126862B660
:104DA000520102D5322B88BF01300A49C3F58C333A
:104DB0004FF47A7203F23F13A1FB031302FB00F0DE
:104DC00000EB1310704700BF24BDFF1F18E000E088
:104DD00004ED00E0398EE3382DE9F843054672B65C
:104DE000214F224B224A1B683C68126862B652016E
:104DF00002D5322B88BF0134A5B3C3F58C331D4EC9
:104E0000DFF86890DFF8688003F23F134FF47A729E
:104E1000A6FB031302FB04F404EB131472B6D9F8D7
:104E200000103A68D8F800E062B6C1F58C3303F29E
:104E30003F13A6FB03031EF0806FC4EB13134FF464
:104E40007A7002D0322988BF013200FB0233B3F5F9
:104E50007A7F04D3013D05D004F57A74DEE701F0D2
:104E6000EDF8DBE7BDE8F88324BDFF1F18E000E0A4
:104E700004ED00E0398EE338F8B52D4B2D49DFF80D
:104E8000D0E0DFF8D0C02C4E2C4D2D4C2D4A2E4FAB
:104E90004FF4000018604FF0807018604FF0007001
:104EA00018604FF0806018604FF0006018600020BC
:104EB0000860282348F6FF71CCF80010CEF80030C7
:104EC000336013602B6023603B60B36293620922FE
:104ED00045F8242CC4F8D80F05F57F65C7F8D41F12
:104EE00007F5FF2707F5FA67C6F8F83F2B6006F5C8
:104EF000FF26C4F8D42F05F5FD2504F5FF243860FE
:104F000006F2F4761148316005F5FF6504F5FD649D
:104F10002B602360026001F0DDF91920FFF75CFFD0
:104F200000F05AFE40F21310BDE8F840FFF754BFFE
:104F300008E100E004800340148003402480034023
:104F40002C8003401C8003403480034000800B40D1
:104F50000C80034008800340431E032B14D872B614
:104F60000A4951F8230068B170B4094C058834F837
:104F70001320466841F82360521B24F8132062B6C0
:104F800070BC704762B670470020704780BDFF1F3D
:104F900004C0FF1F013803280BD872B6074B53F823
:104FA000203043B100205B680130002BFBD162B69A
:104FB0007047002070471846F9E700BFD4BDFF1FB7
:104FC00030B472B62B4A13781D0706D52A4B196ADE
:104FD000002936D0996A002941D053781C0706D59C
:104FE000254B196C00293ED0996C002939D0937853
:104FF000190705D5204B196E002936D0996E89B155
:10500000D3781B0707D51C4BD3F880207AB3D3F88D
:10501000882011213AB162B6184B00221A7030BCB8
:1050200000F07CBE0D21154C154D227843F831500F
:1050300003EBC1030830013A5860227062B630BCFD
:10504000704704220D4C0F4D217843F8325003EB8A
:10505000C20308304A1E5860227062B6EFE705218D
:10506000E1E70921DFE70822ECE70C22EAE710225A
:10507000E8E700BFCC9900000080FF1FFDBDFF1FC7
:10508000C800400088004000431E032B1DD81B4A67
:10509000400140F0100030B4104472B6184CE25C8D
:1050A000032A1BD8DFE802F00212151703220D882D
:1050B000E25410F0080F14BFC823882343EA0543C5
:1050C00008310360416062B630BC7047083002228C
:1050D000EDE70522EBE708300422E8E7094A52F839
:1050E000230038B1084A52F82300416042F82310E7
:1050F00062B6E9E742F82310034AF7E70080FF1F92
:105100000CBEFF1FD4BDFF1FE4BDFF1F2DE9F04FF4
:10511000DFF818B3DFF818A387B044E0AE4F4FEACA
:10512000930807EBC809013ED9F8042003F00803EF
:10513000F6B2A2F1080003F0FF04002B40F0048156
:1051400057F838301B0C99B222F8081C002B00F0DD
:10515000F280A24B22F8064C42F8044C53F8262069
:10516000002A00F06E819E4D55F8263058609D4C07
:1051700045F8260034F81630194424F8161000F0CB
:10518000ADFD002800F05681974A984B19F0080FA2
:1051900000F1080018BF1346C9F8040047F838307A
:1051A00008238BF800309BF80040E4B261071BD560
:1051B0008F4B1B78ABB18F490A7802F0FF032AB1FD
:1051C000013BDBB20B70002B00F0EF848A490A78B8
:1051D00002F0FF032AB1013BDBB20B70002B00F0A1
:1051E000F78004238BF8003004F0080303F0FF027B
:1051F000002B00F0D6809AF80030DBB21E098DD16A
:105200009C08DFF8D49159F8342009EBC401C2F3AB
:105210008302013A49680C2A7ED8DFE802F08181D6
:105220007D7D7D7D7D7D477D7D7D07000868734D9B
:105230004A68734F734E286081B240F281606A4BB6
:105240006A604FF0010E0022814249F834303A6022
:10525000C9F81020C9F8182086F800E05E4C00F26A
:10526000F480B1F5D06F80F07883B1F5817F00F0E4
:10527000628300F28782802900F0EC82822940F06C
:105280001E83A98801F07F01042900F218835E487B
:105290005E4C89000844227062700278930740F1E6
:1052A000798384F800E04FF0020ED8E2544F3A6858
:1052B00042B3574B534E5749188834780D784028DD
:1052C000864645F0020828BF4FF0400E002C84F0BF
:1052D00001043470CEEB00000CBF8824C82409EB15
:1052E000C80680B285F0010544EA0E447260188059
:1052F00049F8384072440D7018B9BEF1400F18BF1C
:1053000000223A603D4B1A88B2F5A06F04D100210B
:105310009A785970404B1A70404A012313703FE746
:10532000364A158842F22100854200F0FF812E4A5C
:1053300049F83420F0E72C4A2C4B19F0080F18BF1D
:10534000134647F838302BE700F0E8FC344A35497B
:1053500052F82630002B00F0B68158688C5D42F878
:10536000260003F10802C9F80420032C05D8DFE861
:1053700004F0120F150204228A551A8819F0080F3A
:105380000CBF8823C82343EA024347F8383007E7B5
:1053900002228A55F1E703228A55EEE705228A5553
:1053A000EBE7E00700F11A82210600F14982A2072B
:1053B00006D51D4A1D4913780220DBB21370087010
:1053C000E30602D5194B10221A7007B0BDE8F08F22
:1053D00000F010FE05E700BF0080FF1F80BDFF1F2B
:1053E0002CBDFF1F04C0FF1FC80040008800400004
:1053F00008BEFF1F91BDFF1F10BEFF1FF4BDFF1FA2
:1054000028BDFF1F90BDFF1FC020074000BEFF1F2B
:105410003CBDFF1FFCBDFF1F9820074094200740A4
:10542000D4BDFF1F0CBEFF1F88200740802007400F
:1054300090200740AB4A47F83800137801331370C7
:10544000AEE643F82600A84D91E642F221008142E3
:1054500000F0358100F2AF81B1F5086F00F01B82DA
:10546000B1F5106F40F02B82226AA049A87808702D
:10547000120600F14583D9F828209D49130600F152
:105480003A83D9F830209A49150600F12F83D9F8CC
:1054900038209749140600F12483D9F84020944914
:1054A000100600F11983D9F848209149120600F13D
:1054B0000E83D9F850208E49130600F10383D9F8E2
:1054C00058208B49150600F1F882D9F860208849E8
:1054D000140600F12983D9F868208549100600F1E7
:1054E0001E83D9F870208249120600F11383D9F87F
:1054F00078207F49130600F10883D9F880207C4981
:10550000150600F11C83D9F888207949140600F1AA
:105510001083D9F890207649100600F1C882D9F896
:1055200098207349120600F1BC827248724A73498E
:10553000019073486C4D734C0497002305960295B7
:10554000804617460E461D460394386828B14468C5
:1055500000F0E4FB2046002CF9D100233B60029BC5
:1055600030681A46002342F8253028B1446800F01C
:10557000D5FB2046002CF9D100223260019A98F820
:1055800000301146002241F8042B039A0191023B9E
:105590004FF0000122F81510032B09D8DFE813F0B3
:1055A0004B0104004B0104004FF0010388F8003068
:1055B0000135042D07F1040706F1040608F101087E
:1055C000C3D1514C514B2278464D049F059E00217A
:1055D00029701A70130700F14F8262784C49DFF886
:1055E00010810A7010074FF00001C9F83010C9F897
:1055F000381000F12B824749A2780A700021C9F8BF
:105600005010C9F858101107DFF8E48000F1DC8170
:10561000E2784149364C0A7000211207C9F870102F
:10562000C9F8781000F1B98133780193002183F033
:105630000102C9F89010C9F8981000200290804625
:105640008446044635490D7845F0020E09EBCE0339
:105650000393019B002B039B5C600CBF8824C82430
:1056600044EA080385F0010449F83E3032700C70BA
:10567000DFF87CE02A4BDFF8A480002840F0268188
:10568000BCF1400F1BD144F0020C09EBCC03029C8F
:10569000DFF85CE05C60002A40F02E81020442F0FA
:1056A00088029DF804304EF83C20044433700D709D
:1056B0002346402803D100201A4A3B6010801A4A32
:1056C0000123137028E68B5D032B00F22D8101A2CC
:1056D00052F823F0A1510000A15100002B58000006
:1056E00031580000FDBDFF1F2CBDFF1F08BEFF1F6E
:1056F0000080FF1FE4BDFF1F80BDFF1FD4BDFF1F43
:105700000CBEFF1F04C0FF1FCC990000C42007403F
:10571000C8200740CC200740D0200740FCBDFF1F19
:1057200090BDFF1F3CBDFF1F94200740928892B997
:10573000B14A0D784878157050708D78C87895709A
:10574000D07010680D79157186284D798979557159
:10575000917100F0A580A949A94E0A78307882F0AD
:105760000105002842F002020D700CBF8821C821FB
:1057700049F8321009EBC20280F0010000213070BC
:105780005160D4E540F20232914240F08D80A98808
:1057900001F07F01042900F292806A88002A40F01B
:1057A0008E809848CDF804E089000844017841F0E3
:1057B0000201017041E742F2212081427BD1A98898
:1057C000002940F0E480904B904A9148AC781D68E5
:1057D0001560CDF804E00A4604702EE78D4B8E4824
:1057E00086491A614FF0020E80F800E0854F0A707A
:1057F0008A49196099608A4E8A4D8B4C9A610D21B5
:105800003970FF213170DFF840E229702270874D36
:10581000874A8EF800109F27012406F8047C5D60FB
:105820000470DA6007B0BDE8F08F00238B55B7E451
:1058300001238B55B4E44FF0000388F80030B7E63D
:105840007049784B80220D2008701A70A2077FF5EE
:10585000B7ADAEE5774C4FF0020E22706270EA8869
:10586000724580F0A38165490D78402A944645F041
:10587000020E28BF4FF0400C04EB0C0309EBCE00E6
:105880000293012344604FEA0C48CCEB02000193E1
:105890000022C824E4E6684A664C12782270DEE7EB
:1058A000664A0F21117056E7B1F5A06F07D10123A9
:1058B00000220193C1E642F221329142F7D0514ACF
:1058C0000F231370544A0123137025E540287FF6F7
:1058D000DAAE44F002040EEBC401029E4E60BAB18F
:1058E0009DF80410564A19703346403888F8005025
:1058F00040334EF83420DFE69DF804303370020464
:10590000029B0D7042F0C80203444EF83C20D0E6E2
:105910009DF804101970029B404A88F800504038E6
:1059200040334EF83420C7E619F0080F0CBF0223AD
:1059300003238B5534E4A98801F07F010429BED8E4
:105940006A88002ABBD12F48CDF804E089000844BA
:10595000017821F0020101706FE63A4A5468002C88
:10596000ADD06888B5F804E003E00C325468002C30
:10597000A5D013888342F8D153887345F5D1000A26
:1059800003280CBF94F800E0B2F808E067E7CDF810
:1059900004E052E64FF0020E61E700F09FF90028A4
:1059A00000F0F18008301D4AC4F88400C4F880205B
:1059B00000F094F9002800F0E0800830204AC9F88F
:1059C0008C00C9F888202FE600F088F9002800F044
:1059D000E6800830114AC8F86400C8F8602000F07A
:1059E0007DF9002800F0D5800830154AC9F86C0010
:1059F000C9F868200CE600BF0CC0FF1FFCBDFF1FEC
:105A000090BDFF1FC020074024BDFF1F14C0FF1F13
:105A100020BEFF1F0080FF1F942007408800400029
:105A200088200740802007409820074040BDFF1F86
:105A300094BDFF1F00BEFF1F08BEFF1F91BDFF1FCB
:105A4000C8004000D09900008C20074000F046F9C3
:105A5000002800F08C8008305D4AC8F84400C8F87F
:105A6000402000F03BF900287BD00830594AC9F8A3
:105A70004C00C9F84820BEE500F030F900286AD093
:105A80000830534AC9F82400C9F8202000F026F94C
:105A900000285AD008304F4AC9F82C00C9F82820ED
:105AA0009BE5D1F89C00083800F038F93DE5D1F8C5
:105AB0009400083800F032F931E5C86D083800F07C
:105AC0002DF902E5486D083800F028F9F7E4C86CB4
:105AD000083800F023F9ECE4486C083800F01EF9AF
