:1000000000800020BD0100003D4A0000F5490000CD
:10001000F5490000F5490000F5490000F5490000E8
:10002000F5490000F5490000F54900003D4A00008F
:100030003D4A0000F54900002160000025610000F4
:100040003D4A00003D4A00003D4A00003D4A000094
:100050003D4A00003D4A00003D4A00003D4A000084
:100060003D4A00003D4A00003D4A00003D4A000074
:100070003D4A00003D4A00003D4A00003D4A000064
:100080003D4A00003D4A00003D4A00003D4A000054
:100090003D4A00003D4A00003D4A00003D4A000044
:1000A0003D4A00003D4A00003D4A00003D4A000034
:1000B0003D4A00003D4A00003D4A00003D4A000024
:1000C0003D4A00003D4A00003D4A00003D4A000014
:1000D0003D4A00003D4A00003D4A00003D4A000004
:1000E0003D4A00003D4A00003D4A00003D4A0000F4
:1000F0003D4A0000416200003D4A00006D6300007F
:100100003D4A0000996400003D4A00003D4A00005D
:100110003D4A00003D4A00003D4A00003D4A0000C3
:100120003D4A00003D4A00003D4A00003D4A0000B3
:100130003D4A00003D4A00003D4A00003D4A0000A3
:100140003D4A0000B53E00003D4A00003D4A000027
:100150003D4A00003D4A00003D4A00003D4A000083
:100160003D4A0000754F00003D4A00003D4A000036
:100170003D4A00003D4A00003D4A00003D4A000063
:100180003D4A00003D4A00003D4A00003D4A000053
:100190003D4A00003D4A00003D4A00003D4A000043
:1001A0003D4A00003D4A00003D4A00003D4A000033
:1001B0003D4A00003D4A000015460000564B4CF2F7
:1001C000205210B51A804DF628121A8000BF00BFC9
:1001D00004F038FC514B4FF010621A60504A9A609C
:1001E000504ADA60504A136813F4807304D14F49BF
:1001F0000B604FF4A85313604D4B1A78110703D5C9
:100200001A7842F008021A704A4B4B492A221A7097
:100210004A4A4B4B8B4204D252F8040F43F8040B6A
:10022000F8E7484B484900228B4202D243F8042B9E
:10023000FAE74649464A002352F8230041F82300D2
:1002400001336F2BF8D1434B434A802103F8011B44
:100250009342FBD1414B3D4A1A60414B8A221A70AE
:10026000A3F5805324225A70A0221A709A7992071B
:10027000FCD59A79D406FCD43A4A937903F00C035E
:10028000082B384BF9D105221A7143225A719A79F9
:100290009006FCD5334A9179324B4906FBD5324A58
:1002A0004FF0817111600521516020221A709A79F6
:1002B00002F00C020C2AFAD12C4B2D4A1A602D4B5D
:1002C0002D4A1A6000225A60072243F8042C2B4A58
:1002D000C3F80C2D62B604F003FD144B1B68DA075B
:1002E00005D5274804F05CFC264B274A1A60274BAB
:1002F0001B785B0609D5234C234B22689A4204D114
:100300001F4804F04DFC0023236007F0F1FF04F0C8
:100310009FFB04F067FBFEE70E20054030800440A1
:10032000823F04000100002B10D0034014D0034092
:1003300002D0074000E00740B4A0FF1F2892010050
:100340002097FF1FB8A0FF1F10C0FF1F0092FF1FC4
:100350000000000000E400E05FE400E008ED00E0E1
:1003600000500640004006404480044004800440A1
:10037000C010050014E000E03F190100000020203B
:100380008B1A655E1CE00340A5C3945A00F0074039
:10039000FFFFFFFFFFFFFFFFFFFFFFFFFFFFFFFF6D
:1003A000FFFFFFFFFFFFFFFFFFFFFFFFFFFFFFFF5D
:1003B000FFFFFFFFFFFFFFFFFFFFFFFFFFFFFFFF4D
:1003C000FFFFFFFFFFFFFFFFFFFFFFFFFFFFFFFF3D
:1003D000FFFFFFFFFFFFFFFFFFFFFFFFFFFFFFFF2D
:1003E000FFFFFFFFFFFFFFFFFFFFFFFFFFFFFFFF1D
:1003F000FFFFFFFFFFFFFFFFFFFFFFFFFFFFFFFF0D
:10040000FFFFFFFFFFFFFFFFFFFFFFFFDEF9FFFF23
:1004100010B5054C237833B9044B13B10448AFF33E
:1004200000800123237010BDB8A0FF1F0000000052
:1004300024920100084B10B51BB108490848AFF3DE
:1004400000800848036803B910BD074B002BFBD0A0
:10045000BDE81040184700BF00000000BCA0FF1F0F
:1004600024920100B4A0FF1F000000004069704703
:10047000002070474268017B13780B43137070476C
:100480004268017B137823EA01031370704700BFB1
:1004900010B5044604F068F8204610BD70B50D484C
:1004A0000D4C02F099FC0D4A0D4B1268064653F8AC
:1004B000220007F0D7FA0B490546304607F01CFA30
:1004C0000146284607F022FB07F0FCFC80F30800F9
:1004D000206070BDE8B8FF1F10A2FF1F14A1FF1F0E
:1004E000208E000052491D3A10B501210446042017
:1004F00004F07CFB0320012104F078FBA06950B1DB
:100500000368094A5B68934209D14268017B13780A
:1005100023EA0103137004F06FFBA08310BD98471A
:1005200004F06AFBA08310BD81040000F0B58BB01D
:10053000002305688DF804308DF805308DF80630FD
:100540002E68374A8DF8083096428DF809308DF8BC
:100550000A305FD1827C04910446012A01A80591EA
:100560008DF81E308DF81F308DF82030039015D097
:100570008DF81D308DF81C308DF81B308DF81A3039
:100580008DF819308DF818300023AA698DF82130C4
:100590002046099303A990470BB0F0BD214A137878
:1005A000013303F0070313F0010F14BF8021002172
:1005B00013709A0744BF41F04001C9B25B0748BFBE
:1005C00041F0200110310022C9B20DF11B030DF1E1
:1005D0001E074FF4807EAAB19EFBF2F2D2B2501CED
:1005E000C0B200FB01152D121870EEB205B1013E2C
:1005F00003F8036C00B11A7001339F4208D0DA7817
:10060000002AE9D11A7003F8032C01339F42F6D176
:100610002568B9E70A4602AB01A9B0470BB0F0BDA7
:1006200029060000D4A0FF1FF0B5857C1C785E78F9
:100630009B7889B0012D0191029203928DF81640AA
:100640008DF817608DF8183016D000238DF815300E
:100650008DF814308DF813308DF812308DF811307C
:100660008DF810300268002392698DF819300793D5
:1006700001A9904709B0F0BD1B4A1378013303F07C
:10068000070313F0010F137014BF80220022990793
:1006900044BF42F04002D2B25B0748BF42F02002A2
:1006A0001032D2B20DF113030DF116074FF4807E14
:1006B000ACB19EFBF4F4E4B2611CC9B201FB0225AB
:1006C0002D121970EEB205B1013E03F8036C01B1B1
:1006D0001C700133BB42C5D0DC78002CE9D11C7002
:1006E00003F8034CF5E700BFD4A0FF1FF0B5857CED
:1006F0001C785E789B7889B0012D0191029203925B
:100700008DF816408DF817608DF8183017D000233B
:100710008DF815308DF814308DF813308DF81230B7
:100720008DF811308DF810300368002203219B6989
:100730008DF81910079201A9984709B0F0BD1B4A1E
:100740001378013303F0070313F0010F137014BF84
:1007500080220022990744BF42F04002D2B25B07D8
:1007600048BF42F020021032D2B20DF113030DF156
:1007700016074FF4807EACB19EFBF4F4E4B2611C2A
:10078000C9B201FB02252D121970EEB205B1013E6E
:1007900003F8036C01B11C700133BB42C4D0DC7898
:1007A000002CE9D11C7003F8034CF5E7D4A0FF1F1F
:1007B00038B5284A284B52F8204053F82030A3423D
:1007C000054602D91A4623461446B3F5007F3ED2A9
:1007D000224A40F2FF1102EB43028C4202F1160260
:1007E00028BF0C46002032F8021F0133A342084400
:1007F000F9D907F033F94FF0625107F087F9044651
:10080000174B53F8250007F02DF9164907F07EF92C
:100810000146204607F070F8134B144A1968144B30
:10082000044643F8254052F8210007F01BF9214601
:1008300007F06CF90F4B53F8251007F067F907F034
:1008400041FB0D4B80F3080043F8250038BD002420
:10085000D6E700BF448E0000BC8C000048A2FF1FFA
:10086000688C000017B7D13814A1FF1F208E00003C
:10087000CCA1FF1F6897FF1F0CB7FF1F10B5054CD9
:100880002068FFF795FF2168034A044B52F82120A6
:100890001A6010BD2897FF1F0CB7FF1F10A2FF1F83
:1008A0000A4B1B68072B08DC094A41F23D43D15C27
:1008B00029B10021D154FFF7E1BF082B00D07047C8
:1008C000044B9B6A002BFAD0FFF7E8BD2897FF1F67
:1008D00048A2FF1FE8B8FF1F10B5002420460134CE
:1008E000FFF766FF082CF9D110BD00BF2DE9F04FCE
:1008F000DFF87CA01B4CDFF87CB0DFF87C801A4F5F
:1009000083B04FF000095AF8045F4B4609F1030920
:1009100005EB85054B4585F30805A8BF04F10906DD
:1009200015DAEDB204F10906DBF800308DF8065057
:1009300018F8232057F823308DF80520214601A808
:1009400003348DF8043003F051FCB442ECD1B9F11A
:10095000180F3446D7D10548017803F0A7FB03B040
:10096000BDE8F08F9CB8FF1FEC8D0000BCBCFF1FE2
:1009700008B7FF1F08A1FF1F888C0000244B2DE93A
:10098000F043244D1B682A68234CDFF89C90DFF865
:100990009C80224F03EB43039342C4BF1A462B6053
:1009A000FF2AC8BFFF2283B0C8BF2A6004F14B06EC
:1009B00000E02A68D9F800308DF80620214618F8A2
:1009C000232057F823308DF8052001A803348DF833
:1009D000043003F00BFCA642EBD11148017803F080
:1009E00065FB104A13680133042B0CDD2B680948A2
:1009F00000218B42C8BF03F1FF331160C8BF036001
:100A000003B0BDE8F083136003B0BDE8F08300BF1E
:100A100010A2FF1FAC97FF1F9CB8FF1FEC8D0000BA
:100A2000BCBCFF1F2C97FF1F08A1FF1F888C000074
:100A30002DE9F041434D4448444C2B682168444F14
:100A4000426857F82160DFF82CC1DFF82CE1D0F8BC
:100A5000108082B0019303681A44019B9B1B4E1CBB
:100A600082F308023B2E134447F82120C4BF002222
:100A70002260384F8268C168D8BF26602B6011445D
:100A80003D68354CDEF8006081F3080184FB0324E7
:100A90005CF825204CF8251001353B2D1C444FEA0D
:100AA000E373C3EB6414CABF00233D603B60B21A1A
:100AB0002A4F43692A4EC56934600A448169CEF8D9
:100AC00000203E68DFF8B4C0DFF8B4E022484344B9
:100AD0000B441D445CF8261080FB0230DEF8003029
:100AE00085F308051044D217C2EB60104CF826506D
:100AF000591A01361B4B184A186029443B2ECEF870
:100B00000010CCBF00233E6082FB01620A44C8BFD4
:100B10003B60C917144D154BC1EB62122A60E1B25C
:100B2000C0B2D2B203F14B041A70587099700333FB
:100B3000A342F9D10E48017802B0BDE8F04103F0BC
:100B4000B5BA00BF34B7FF1F0CB7FF1F9CB6FF1F1D
:100B500044B7FF1F0CA1FF1F89888888C8A1FF1F09
:100B600028A2FF1F20A1FF1F1CA1FF1F9CB8FF1F71
:100B7000BCBCFF1F0CBAFF1F10A1FF1F1CB9FF1F39
:100B8000ECA1FF1FF0B50A4C83B004F14B076426BB
:100B90000025214601A803348DF804608DF8055026
:100BA0008DF8065003F022FBBC42F2D103B0F0BD39
:100BB0009CB8FF1F2DE9F041144C82B05FFA80F819
:100BC000CFB204F14B06C825214601A803348DF8A5
:100BD00004808DF805708DF8065003F007FBB442D1
:100BE000F2D10B4C2178204603F060FAC82004F0C3
:100BF00027F8FFF7C7FF2178204603F057FA054B87
:100C000000221A6002B0BDE8F08100BF9CB8FF1F4F
:100C1000BCBCFF1F9497FF1F2DE9F04F374D2B6889
:100C2000DB0785B058D5364C364F2368039397E8D9
:100C30000600039B5B1A934247D3334B21681A6823
:100C4000324B0291324D029853F82210314E324C01
:100C5000DFF8D0A0DFF8D0B0DFF8D090DFF8D08098
:100C600087E8030005F1640720E0DAF800000139A5
:100C70008142D8BF01232160D8BF2B60DBF8000080
:100C80008DF8021019F8201058F820308DF8011056
:100C9000684631468DF8003003F0A8FABD4204F1F1
:100CA00004040AF1040A06F103060BD055F8041FE8
:100CB00001292168D9D10131FE292160DEDD00231F
:100CC0002B60DBE7154B00221A601548017803F012
:100CD000EDF905B0BDE8F08F284603F0D3FE084CCF
:100CE000084F0028A1D023680193019B3B600A2391
:100CF00028467B6003F0CCFE97E700BF18A1FF1FDA
:100D000018BDFF1F24A1FF1F40B7FF1F3097FF1F13
:100D100050A1FF1F9CB8FF1F34B8FF1F0CA2FF1F7C
:100D2000BCBCFF1FA0B6FF1F08A1FF1F888C0000DE
:100D3000EC8D00002DE9F043324E3368DB0785B0BF
:100D400046D5314D314C2B68039394E80600039B44
:100D50005B1A934235D32E492E4B2A680D682E49D3
:100D600002921A6851F8251002982C4D012A84E845
:100D700003002A683DD0013A0A2A2A6001DC0121D9
:100D80001960274CDFF8A890DFF8A880254F04F100
:100D90004B0600E02A68D9F800308DF80220214681
:100DA00018F8232057F823308DF8012068460334C3
:100DB0008DF8003003F01AFAA642EBD11A4B00224C
:100DC0001A601A48017803F071F905B0BDE8F083A4
:100DD000304603F057FE0C4D0C4C0028B3D02B6866
:100DE0000193019B23600A233046636003F050FEA9
:100DF000A9E70132FE2AC8BF00212A60C8BF1960D6
:100E0000BFE700BF04B7FF1F18BDFF1FBCA1FF1F36
:100E100040B7FF1F4C97FF1F3097FF1F2497FF1FFE
:100E20009CB8FF1FEC8D00000CA2FF1FBCBCFF1F75
:100E300008A1FF1F888C00002DE9F041114C124ED3
:100E40002468124B53F82430346803EB4303013415
:100E50009C420F4B346005460F461C7804DB01347E
:100E6000E4B200211C703160104607F051F8094EC1
:100E700005EB4505C3B2224639467019BDE8F0417D
:100E800003F094B940B7FF1F0CA2FF1F3097FF1F5C
:100E90008C97FF1F9CB8FF1F08B519210020044A3A
:100EA000FFF7CAFF0348BDE80840017803F0FEB829
:100EB0000000A040BCBCFF1F2DE9F04F544C554F23
:100EC00087B0264600254FF064080DE08DF81480A9
:100ED0008DF815208DF8163003F088F939784D48D3
:100EE0000135033603F0E2F8192003F0E3FC8542F4
:100EF00031464FF000024FF0FF0305A8E6DB002566
:100F0000434EA9464FF0640809E08DF814808DF82F
:100F100015908DF8163003F069F901350336192064
:100F200003F0C8FC854231464FF0FF0305A8ECDB17
:100F300039783848364E03F0B9F828210A2003F0F2
:100F4000BDFC002503F07CFEA8464FF0640909E0D3
:100F50008DF814908DF815808DF8168003F046F901
:100F600001350336192003F0A5FC8542314605A85A
:100F7000EEDB39782748284D03F098F8C8210A207D
:100F800003F09CFC03F05CFEA5F14B064FF06409F6
:100F90004FF00008314605A803368DF814908DF8FF
:100FA00015808DF8168003F021F9AE42F2D1397820
:100FB0001848DFF85C80002603F078F8B2464FF05E
:100FC00064090AE08DF814908DF815A08DF816309C
:100FD00003F00CF9013608F10308192003F06AFC4C
:100FE000864241464FF0FF0305A8EBDB39780948FC
:100FF000DFF81C8003F05AF832210A2003F05EFC6F
:10100000002603F01DFEB1464FF0640A11E000BF58
:101010009CB8FF1FBCBCFF1FE7B8FF1F8DF814A0D2
:101020008DF815908DF8169003F0E0F8013608F170
:101030000308192003F03EFC8642414605A8EDDB7B
:101040003978BF48DFF8FC8203F030F864210A20C9
:1010500003F034FC03F0F4FD4FF064094FF0000A94
:10106000414605A808F103088DF814908DF815A0E5
:101070008DF816A003F0BAF8A8454FF064064FF0BB
:10108000000BEDD1DFF8B8823978DFF8C4A2404612
:1010900003F00CF8192003F00DFCAA4B8DF8146036
:1010A00000EB4001024619444FF0FF0905A8CAF8B9
:1010B00000208DF815B08DF8169003F097F8404693
:1010C000397802F0F3FF31460A2003F0F7FB03F012
:1010D000B7FDDAF800109B4B8DF8146001EB41016D
:1010E000194405A88DF815B08DF816B003F07EF8F8
:1010F0004046397802F0DAFFDAF80010914B8DF8AB
:10110000169001EB4101194405A88DF814608DF883
:1011100015B003F06BF84046397802F0C7FF31464E
:10112000282003F0CBFB03F08BFDDAF80010854B91
:101130008DF8146001EB4101194405A88DF815B034
:101140008DF816B003F052F84046397802F0AEFF41
:101150000321012003F0B2FB02284FF0190000F038
:10116000C28003F0A7FB784A0292764A774B01933C
:1011700000EB40011144431CC21CCAF80000734834
:101180008DF814600DF1140E03606F4B8DF815B0DF
:1011900070461A608DF8169003F028F898F8001041
:1011A000404602F083FF142003F084FB03F048FD67
:1011B00066480168182940F32A813978604802F0AE
:1011C00075FF142003F076FB03F03AFD5E4B1968BF
:1011D000182940F30B81397859485A4E02F066FFBE
:1011E0004FF064094FF0000B314605A803368DF827
:1011F00014908DF815B08DF816B002F0F7FFAE42DE
:101200004FF064084FF00002EED1DFF834913978E6
:101210000292484602F04AFF0321012003F04EFBF0
:101220000228029A00F096801920039203F042FBF4
:10123000444E454BCAF8000000EB40013144029394
:10124000461CC31C0198039A06608DF8152005AE54
:101250003D4A8DF8148030464FF0FF0A13608DF838
:1012600016A002F0C3FF99F80010364E484602F06F
:101270001DFF142003F01EFB03F0E2FC0198039A0B
:101280000168182940F3A58039782D4802F00EFF37
:10129000142003F00FFB03F0D3FC029B19681829FC
:1012A00040F386803978264802F000FF4FF064084A
:1012B0000026214605A803348DF814808DF81560AA
:1012C0008DF8166002F092FFAC42F2D139781C48DA
:1012D00002F0ECFEC8210A2003F0F0FA03F0B0FCA3
:1012E00007B0BDE8F08F03F0E5FACAF8000032203D
:1012F00003F0E0FA154BDAF80010186011488DF889
:10130000146001EB4101014405A801938DF815B06B
:101310008DF8169002F06AFF019A116818293FF7BC
:101320005AAF084B8DF8146001EB4101194405A830
:101330008DF815B08DF8169002F058FF4BE700BFFE
:10134000BCBCFF1F9CB8FF1F04A1FF1F00A1FF1F13
:10135000FCA0FF1F192003F0ADFACAF800003220EC
:1013600003F0A8FADAF80010019B304A186001EB8C
:1013700041011144FF26029A8DF8152005A88DF829
:1013800014808DF8166002F031FF019B27491B681D
:10139000029A182B86DC03EB4303194405A88DF849
:1013A00014808DF815208DF8166002F01FFF79E784
:1013B0001E4B642001EB410119440022FF238DF8EC
:1013C000140005A88DF815208DF8163002F00EFFD8
:1013D00068E701EB4101314405A88DF814808DF8D0
:1013E00015208DF816A002F001FF4DE70F4B01EB21
:1013F00041011944642300228DF8143005A8FF230D
:101400008DF815208DF8163002F0F0FEE3E6074B5C
:101410008DF8146001EB4101194405A88DF815B051
:101420008DF8169002F0E2FEC7E600BF9CB8FF1FE1
:10143000F0B51E4F3B68DB0785B005461FD51C4E37
:101440001C4C33680393039B1B4822886188A0FBD4
:101450000303C2EB93139BB299420ED833680293F5
:10146000154A029BA2FB03239B092380FFF724FD5F
:10147000284603F01FFA114B186005B0F0BD38463E
:1014800003F000FB0A4E0028DAD0336801930A4AC1
:10149000019B0A49074C09886180A2FB03239B0931
:1014A0003846238003F0F4FACBE700BFB8A1FF1F52
:1014B00018BDFF1F38B7FF1FD34D62104897FF1F9D
:1014C0002DE9F04F002083B003F04AFADFF89C9238
:1014D0004928C9F800004FF00A0178D09248DFF897
:1014E00090A2924E924F934DDFF888B2924C04F046
:1014F000D7FB924803F04EF99148DFF87CE291491E
:101500004FF47A720260CEF800200222CAF800205E
:1015100008223260FF2200230A7003210C22396066
:10152000184649214FF001082B600193CBF8008049
:101530002260C9F80010009103F012FA492806D081
:101540009DE80A00184603F025FA9BF80080012068
:1015500003F006FA404503D04146012003F01AFA91
:10156000022003F0FDF99AF80080804503D041463F
:10157000022003F00FFA032003F0F2F936788642D6
:1015800003D03146032003F005FA042003F0E8F904
:101590003E78864203D03146042003F0FBF9052053
:1015A00003F0DEF92D78854203D02946052003F0AB
:1015B000F1F9062003F0D4F92478844200F0AC80DD
:1015C0002146062003B0BDE8F04F03F0E3B95E48C2
:1015D000DFF8A081DFF89891544E554F554DDFF854
:1015E00060A1554C04F05CFB544803F0D3F8012093
:1015F00003F0B6F9C8F80000022003F0B1F9C9F809
:101600000000032003F0ACF93060042003F0A8F9D7
:101610003860052003F0A4F94C4B286033F81030F3
:10162000CAF80030062003F09BF9102120604848DA
:1016300004F036FB2968414803F0FCF83F4803F00A
:10164000A9F81021434804F02BFBDAF800103B48BE
:1016500003F0F0F8394803F09DF814213E4804F0F7
:101660001FFBD8F80010354803F0E4F8334803F0C6
:1016700091F80E21394804F013FBD9F800102F48D7
:1016800003F0D8F82D4803F085F81021344804F011
:1016900007FB3968294803F0CDF8284803F07AF8A9
:1016A0000E21304804F0FCFA3168244803F0C2F8F7
:1016B000224803F06FF812212B4804F0F1FA216858
:1016C0001E4803F0B7F81D4803F064F8D8F800305E
:1016D000174A013B032B84BF0123C8F800303B6845
:1016E000092B84BF032313603268104B092A16D8D4
:1016F000CD2303FB02F3DB103233DBB22A680D4942
:10170000092A84BF00220A6022680B490C2A84BF80
:101710000C220A600B4A137003B0BDE8F08F03225D
:101720001A607E23EAE700BFDC8C000018B9FF1FB7
:1017300014A1FF1F2CB7FF1F08A1FF1FB897FF1FA1
:1017400018A2FF1FBCBCFF1FE88C00009897FF1F6A
:10175000F48C0000088D00001C8D0000348D00000A
:10176000448D0000588D0000688D00001CA2FF1FF2
:1017700040B7FF1FB097FF1F24A2FF1FF8B54F48C7
:1017800001F0ECFC4E480C2102F0E6FD4D480468E7
:1017900014F001046ED019224B4F4C494C484D4C6B
:1017A0004D4E4E4D002302F02FFCFF233B70FFF700
:1017B000E9F93978384602F079FCFFF7E3F939782E
:1017C000384602F073FC4FF47A7003F039FAFFF7F1
:1017D000D9F93978384602F069FC04F1640796219A
:1017E000012003F06BF8FE2144F8040F012003F000
:1017F00065F8012146F8040F002003F05FF8BC42B1
:1018000045F8040FEBD1364E4FF47A7E01270021C4
:10181000344B354C31480BE02568013AAA421A6036
:10182000D8BF0760864203F1040304F104040FD01B
:1018300050F8042F012A1A68EED10132FE2A1A60EC
:10184000F0DD8642016003F1040304F10404EFD1EA
:10185000BEF1010EDCD171466420FFF7ABF90A211D
:10186000224804F01DFA224802F094FFBDE8F84037
:10187000FFF726BE03F006F900288CD01D49144B53
:1018800008685C60FF2201255C619C609D741A738E
:101890005A739A73DA731A745A7468B1164A1168D3
:1018A00001B18B6013600022144906489A619A8343
:1018B000196003F0EDF86EE70B60EFE744A2FF1F3D
:1018C0000082FF1FD8A0FF1FBCBCFF1F9CB8FF1FDA
:1018D000DCA0FF1F9CB6FF1F30B8FF1F50A1FF1FE9
:1018E000B4A1FF1F34B8FF1FA0B6FF1F7C8D0000FE
:1018F000B897FF1FCCBCFF1FDCBCFF1F4C8C000047
:1019000010B50B4B0B4A1B680B480C49006808606C
:1019100082B00193019C0A4B146001221A60FFF708
:1019200031F90848017802F0C1FB02B010BD00BFD8
:1019300018BDFF1FC4A1FF1F24A2FF1F18A2FF1F75
:1019400020A2FF1FBCBCFF1FF0B5062183B0424898
:10195000424D002404F0A4F901A968468DF8004026
:101960008DF801408DF8024002F040FC01AA1921D7
:101970003B4802F00BFC2978284602F097FB6420D4
:1019800003F05EF9FF2601A96846C8278DF80060BC
:101990008DF801608DF8027002F028FC01AA19216F
:1019A0002F4802F0F3FB2978284602F07FFB4FF422
:1019B0007A7003F045F901A968468DF800408DF86A
:1019C00001408DF8024002F011FC01AA19212448BF
:1019D00002F0DCFB2978284602F068FB4FF4967091
:1019E00003F02EF901A968468DF802708DF80060A9
:1019F0008DF8016002F0FAFB01AA1921184802F0E3
:101A0000C5FB2978284602F051FB4FF47A7003F0A9
:101A100017F9684601A98DF800408DF801408DF84E
:101A2000024002F0E3FB01AA19210D4802F0AEFBCF
:101A30002978284602F03AFB0A4B012520461D6012
:101A400002F08EFFA84203D02946204602F0A2FFF2
:101A5000FFF736FD03B0F0BD888D0000BCBCFF1F52
:101A60009CB8FF1F1CA2FF1F2DE9F047B64CB748DA
:101A700082B0214601F012FC60B9B54B1C68012C04
:101A80006ED0B44AB44B12680192019A1A6002B047
:101A9000BDE8F087B14EA368B14833800B2104F054
:101AA000FFF83188AF4802F0C5FEAE4802F072FE82
:101AB00034884FF6FF739C4269D0AB4DDFF89092AB
:101AC000DFF8B0A2DFF8C88205F1160702E0AF42E6
:101AD0003BD0348835F8023BA342F8D14DF62701BC
:101AE00001228C42C9F8002043D04FF607018C42F6
:101AF00043D047F68702944245D045F6A702944268
:101B00002AD04AF25F02944200F0F580FF2C00F0E8
:101B1000FA804CF23F02944200F0FD8044F2BF0292
:101B2000944200F0008141F2EF02944200F0C8803C
:101B300048F27F02934200F0878042F2DF02934234
:101B400004BF4F238AF80030C1E7884B00221A6097
:101B50007E4801F04BFB94E743238AF80030B6E758
:101B6000824E18603368042B054642DD0023336043
:101B700087E750238AF80030A9E77D4941230A60AE
:101B80008AF80030A3E742238AF800309FE7774ABB
:101B900013680133032B1360DADD764C764810218D
:101BA00004F07EF8207804F0FFF86E4802F0F2FDB1
:101BB00023784F2B00F03181412B00F04381422BE1
:101BC00000F05181502B00F05F81432BC0D16B4B53
:101BD0006B4A19681160052016221A6002F0C0FED7
:101BE000082803D00821052002F0D4FEFEF7CAFF22
:101BF000AEE7604F387804F0D7F85A4802F0CAFDD3
:101C00003B78502B3CD0412B00F0C480422B00F09D
:101C1000D480432B00F0EE804F2BA7D1052002F09B
:101C20009FFE042803D00421052002F0B3FE534B8D
:101C300053491868534A086042F2DF0001211860D6
:101C40001160FEF79FFF91E7D8F800305222002B79
:101C50008AF8002040F3C480013B0620DCB2C8F8BB
:101C6000003002F07DFE844203D02146062002F0BF
:101C700091FE00F04DFB414B48F27F021A6026E7CF
:101C8000052002F06DFE18B12946052002F082FE03
:101C90003A4B3B491C683B4A0C604DF62705032133
:101CA000012439481D60146003F0FAFF2D4802F04A
:101CB00071FDFEF767FF3548017802F0F7F955E747
:101CC000D8F800304C220B2B8AF8002033DC01338B
:101CD0000620DCB2C8F8003002F042FE844203D095
:101CE0002146062002F056FE00F012FB234B41F283
:101CF000EF021A60EBE655238AF8003000F008FB8B
:101D00001E4B1C60E3E644238AF8003000F000FB21
:101D10001A4B1C60DBE649238AF8003000F0F8FA21
:101D2000164B1C60D3E659238AF8003000F0F0FA15
:101D3000124B1C60CBE600240620C8F8004002F0DD
:101D40000FFE0028CCD1CFE7F0A1FF1F44A2FF1F58
:101D50003CB7FF1F18BDFF1F14A2FF1F98B8FF1F3D
:101D6000908D0000B897FF1F5097FF1F30B7FF1FDF
:101D70008897FF1F08B7FF1F9C8D000018A2FF1F48
:101D800024A2FF1F9497FF1FB08D0000BCBCFF1F53
:101D900008A1FF1F052002F0E3FD012803D0214622
:101DA000052002F0F7FD3A4B3A4A196811604FF6E8
:101DB00007021A60FEF7E6FED8E6052002F0D0FD25
:101DC000022803D00221052002F0E4FD304B314A05
:101DD0001968116047F687021A60FEF7D3FEC5E660
:101DE0000C240620C8F8004002F0BAFDA0427FF49F
:101DF0003CAF3EE7052002F0B3FD032803D00321EA
:101E0000052002F0C7FD224B224A1968116045F6F1
:101E1000A7021A60FEF7B6FEA8E61D4B1D4A196818
:101E20001160052018221A6002F09AFD052803D0DF
:101E30000521084602F0AEFDFEF7A4FE164B012276
:101E40001A6085E6124B134A1968116005201422A6
:101E50001A6002F085FD06283FF4C8AE0621052071
:101E600002F098FDC2E60A4B0A4A19681160052083
:101E700015221A6002F074FD07283FF4B7AE07215F
:101E8000052002F087FDB1E6FFF75EFD60E600BFCA
:101E900018A2FF1F24A2FF1F9497FF1F2DE9F04FE8
:101EA000AB4CAC4A2368126887B00593059B9B1A1C
:101EB000FA2B70D8A84B1B684DF62702934272D0BC
:101EC000172B65D04FF60702934200F08180142B48
:101ED00000F0128147F68702934200F01081152B23
:101EE00000F0938045F6A702934200F02381162B61
:101EF00000F09F8142F2DF0293427CD0182B00F069
:101F0000EA804AF25F02934200F0FE804CF23F0208
:101F1000934200F04381FF2B00F0838044F2BF0224
:101F2000934200F0B18148F27F02934203D041F224
:101F3000EF0293422CD1894DDFF854B2DFF854A25E
:101F4000DFF8549205F14B0804AEC827DBF80030E7
:101F50008DF812701AF8232059F823308DF81120CB
:101F60002946304603358DF8103002F03FF9A84578
:101F7000ECD17B48017802F099F82368794A049300
:101F8000049B12689B1AB3F57A7F01D9FFF7B8FC5E
:101F900007B0BDE8F08FFFF767FD6F4B1B684DF68C
:101FA000270293428CD1704C2368012BF0D1002181
:101FB0006420FEF7FFFD0B216C4803F071FEFEF775
:101FC000E1FD6748017802F071F800232360DFE744
:101FD000674C2368012B00F0B080664A41F23D4314
:101FE000D15C19B10021D154FEF776FCFEF77EFCDE
:101FF00007B0BDE8F08FDFF870A1DAF80030012BF0
:1020000063D01E20FFF714FAC2E75A4A41F23D435B
:10201000D15C19B10021D154FEF75EFCFEF708FD3A
:10202000B6E723684F4A0293029B12689B1AB3F5E6
:102030007A7F00F25981504C2368002BA8D14F4D74
:1020400029680029C4BF01F1FF312960EB2202FB9E
:1020500001F2E62303FB01F3002AB8BF0732002B8D
:10206000B8BF07333E4ED21014323C209621DB100D
:10207000143332708DF80C008DF80D1003A804A9EC
:102080008DF80E3002F0B2F804AA1921334802F09C
:102090007DF83178324802F009F80C21384803F015
:1020A000FFFD2968374802F0C5FB364802F072FB95
:1020B000032002F055FC2D78854203D029460320E9
:1020C00002F068FC0123236062E7FEF7F5FE0023BF
:1020D000CAF8003095E7DFF890A0DAF80030012B5D
:1020E00000F0AA80FEF7DCFB274B1B68B42B7FF7C0
:1020F0004FAFFEF7E1FE4BE7FEF71CFE48E7FEF7A9
:10210000CFFBFEF73BFC43E72368164A0093009B96
:1021100012689B1AB3F57A7F00F2E080164C2368B0
:10212000002B7FF435AF154D296807298EDC01316E
:1021300029608BE7FEF770FD2AE7FA21DC20FEF725
:1021400039FD0A21114803F0ABFD0023236044E769
:1021500018BDFF1F14A2FF1F18A2FF1F9CB8FF1F6E
:10216000BCBCFF1FC4A1FF1F9497FF1FB48D0000CC
:102170008897FF1F48A2FF1F20A2FF1F18B9FF1F4B
:10218000CC8D0000B897FF1F10A2FF1FC08D00006C
:1021900008A1FF1F888C0000EC8D00002368554AC1
:1021A0000193019B12689B1AB3F57A7F00F2998024
:1021B000514C2368002B7FF4EBAE504D2A68072A60
:1021C000D8BF01324FF0E60303FB02F3D8BF2A6009
:1021D000002BB8BF0733DB10B421962214338DF8DF
:1021E0000C108DF80D2004A903A88DF80E3001F015
:1021F000FDFF04AA1921424801F0C8FF41480178B7
:1022000001F054FF0E21404803F04AFD29683F4881
:1022100002F010FB3D4802F0BDFA042002F0A0FBE2
:102220002D7885423FF44EAF2946042002F0B2FBE0
:1022300048E7FEF731FEABE6314C04AE04F14B0942
:102240004FF08208FA27C8252146304603348DF81E
:1022500010808DF811708DF8125001F0C7FFA14564
:10226000F2D1284C2178204601F020FF4FF42F7046
:1022700002F0E6FCFEF786FC2178204601F016FF0E
:102280000023CAF800302DE723681A4A0393039B02
:1022900012689B1AB3F57A7F29D8174C2368002B54
:1022A0007FF476AE154D2A68002AC8BF02F1FF32CE
:1022B0004FF0E60303FB02F3C8BF2A60002BB8BF50
:1022C0000733DB10B421962214338DF808108DF8F3
:1022D000092004A902A88DF80A3088E7FFF710FB4F
:1022E0001CE7FFF70DFB63E7FFF70AFBA3E6FFF729
:1022F00007FBD2E7C4A1FF1F20A2FF1F14A1FF1FED
:102300009CB8FF1FBCBCFF1FDC8D0000B897FF1FEF
:1023100010B51D4B1D491B6848F27F0200209342F7
:1023200082B0086016D041F2EF02934212D04AF216
:102330005F0293420ED0FF2B0CD04CF23F0293422F
:1023400008D044F2BF02934204D0B3F57A7F16D08E
:102350000F4A13600F4C104B22680092009A0F48EE
:102360001A6000F043FF23680D4A0193019B126835
:102370009B1AFA2B01D9FFF777FB02B010BD044B73
:102380004DF627021A60E5E718A2FF1F20A2FF1FE3
:1023900024A2FF1F18BDFF1FC4A1FF1F44A2FF1FDF
:1023A00014A2FF1F30B410F0800F029D039C40F078
:1023B000DB810C600B6000BF00BF00BF00BF00BF2F
:1023C00000BF00BF00BF00BF00BF00BF00BF00BF15
:1023D00000BF00BF00BF00BF00BF00BF00BF00BF05
:1023E0000C6000BF00BF00BF00BF00BF00BF00BF48
:1023F00000BF00BF00BF10F0400F00F006810D606D
:102400000A6000BF00BF00BF00BF00BF00BF00BF29
:1024100000BF00BF00BF00BF00BF00BF00BF00BFC4
:1024200000BF00BF00BF00BF00BF00BF0D6000BF06
:1024300000BF00BF00BF00BF00BF00BF00BF00BFA4
:1024400000BF10F0200F00F05D810D600A6000BF3A
:1024500000BF00BF00BF00BF00BF00BF00BF00BF84
:1024600000BF00BF00BF00BF00BF00BF00BF00BF74
:1024700000BF00BF00BF00BF0D6000BF00BF00BFB6
:1024800000BF00BF00BF00BF00BF00BF00BF10F013
:10249000100F00F01E810D600A6000BF00BF00BF7A
:1024A00000BF00BF00BF00BF00BF00BF00BF00BF34
:1024B00000BF00BF00BF00BF00BF00BF00BF00BF24
:1024C00000BF00BF0D6000BF00BF00BF00BF00BF66
:1024D00000BF00BF00BF00BF00BF10F0080F00F03A
:1024E000DF800D600A6000BF00BF00BF00BF00BFFB
:1024F00000BF00BF00BF00BF00BF00BF00BF00BFE4
:1025000000BF00BF00BF00BF00BF00BF00BF00BFD3
:102510000D6000BF00BF00BF00BF00BF00BF00BF15
:1025200000BF00BF00BF10F0040F00F0A0800D60DE
:102530000A6000BF00BF00BF00BF00BF00BF00BFF8
:1025400000BF00BF00BF00BF00BF00BF00BF00BF93
:1025500000BF00BF00BF00BF00BF00BF0D6000BFD5
:1025600000BF00BF00BF00BF00BF00BF00BF00BF73
:1025700000BF10F0020F61D00D600A6000BF00BF05
:1025800000BF00BF00BF00BF00BF00BF00BF00BF53
:1025900000BF00BF00BF00BF00BF00BF00BF00BF43
:1025A00000BF00BF00BF0D6000BF00BF00BF00BF85
:1025B00000BF00BF00BF00BF00BF00BFC00700F1E9
:1025C000BA800C600B6000BF00BF00BF00BF00BF3F
:1025D00000BF00BF00BF00BF00BF00BF00BF00BF03
:1025E00000BF00BF00BF00BF00BF00BF00BF00BFF3
:1025F0000C6000BF00BF00BF00BF00BF00BF00BF36
:1026000000BF00BF00BF30BC70470C600B6000BF54
:1026100000BF00BF00BF00BF00BF00BF00BF00BFC2
:1026200000BF00BF00BF00BF00BF00BF00BF00BFB2
:1026300000BF00BF00BF00BF0C60F8E60C600B607D
:1026400000BF00BF00BF00BF00BF00BF00BF00BF92
:1026500000BF00BF00BF00BF00BF00BF00BF00BF82
:1026600000BF00BF00BF00BF00BF0C609CE70C6054
:102670000B6000BF00BF00BF00BF00BF00BF00BFB6
:1026800000BF00BF00BF00BF00BF00BF00BF00BF52
:1026900000BF00BF00BF00BF00BF00BF0C605EE70F
:1026A0000C600B6000BF00BF00BF00BF00BF00BFD9
:1026B00000BF00BF00BF00BF00BF00BF00BF00BF22
:1026C00000BF00BF00BF00BF00BF00BF00BF0C6065
:1026D0001FE70C600B6000BF00BF00BF00BF00BF62
:1026E00000BF00BF00BF00BF00BF00BF00BF00BFF2
:1026F00000BF00BF00BF00BF00BF00BF00BF00BFE2
:102700000C60E0E60C600B6000BF00BF00BF00BFC4
:1027100000BF00BF00BF00BF00BF00BF00BF00BFC1
:1027200000BF00BF00BF00BF00BF00BF00BF00BFB1
:1027300000BF0C60A1E60D600A6000BF00BF00BFD3
:1027400000BF00BF00BF00BF00BF00BF00BF00BF91
:1027500000BF00BF00BF00BF00BF00BF00BF00BF81
:1027600000BF00BF0D6044E70D600A6000BF00BFFE
:1027700000BF00BF00BF00BF00BF00BF00BF00BF61
:1027800000BF00BF00BF00BF00BF00BF00BF00BF51
:1027900000BF00BF00BF0D6023E600BF2DE9F04F72
:1027A00085B00C4603900068002800F0878003681D
:1027B000504A1B68934240F09A804268017B13782C
:1027C0000B4313704C4BA26819681E681D681F6884
:1027D00026F4005625F48055002A41F4405846F46A
:1027E000805645F4005527F4405756DD2368187885
:1027F00018B1237B80FA53F0C0B2A37C3E49019705
:1028000003FB0000C0F30720334600954246FFF764
:10281000C9FD2368587818B1637B80FA53F0C0B2C1
:10282000E37C3549019703FB0000C0F307203346E2
:1028300000954246FFF7B6FD2368987818B1A37B50
:1028400080FA53F0C0B2237D2B49019703FB0000AF
:10285000C0F30720334642460095FFF7A3FDA26868
:10286000236894F80CA094F80D9094F80EC094F995
:1028700015B094F80FE0207C617C013A5B44CAEB10
:102880000E0EC9EB0000CCEB0101002A2360A26010
:1028900084F80CE06073A173A9DC039B186850B145
:1028A0000368164A5B6893421DD14268017B137826
:1028B00023EA0103137005B0BDE8F08F0E4B8A6860
:1028C00019681E681D681F6826F4005625F4805597
:1028D000002A41F4405846F4805645F4005527F448
:1028E000405783DCE7E705B0BDE8F04F184798474D
:1028F00068E700BF7504000000F00F40810400008D
:10290000F0B5044689B00D4602F076F9A38BC01AE3
:1029100080B2B0F57A7FF7D3297B687BAF7BEE7B03
:102920002A7C6B7C8DF810108DF811002968A87C2A
:1029300095F813E08DF812708DF813602F7D8DF8E7
:1029400014206E7DAA698DF8153001916B688DF8A1
:10295000160001A904F118008DF817E00293039303
:1029600007928DF818708DF81960FFF717FF02F0C5
:1029700043F9A08309B0F0BD2DE9F04383B001F025
:10298000A7FF684B68491B680193684E684B019A22
:1029900009686848684D1A6000F0D8FB3268674FD4
:1029A0002F6000236B722B612B72EB600AB9B2E0CF
:1029B0001A465369002BFBD15561614C614B5E484F
:1029C0002B604FF00008C5F81480A5F80480A5F826
:1029D000068085F80A8000F0BBFA012004F5A252B7
:1029E00043464146276084F80880C4F80C80607232
:1029F0002261A64601E0DEF8102042F82310627A38
:102A00004F4801339A42F6DC3268484B0AB984E0F9
:102A10001A465369002BFBD1546141F23C4241F20A
:102A20003D434FF00009DFF82C814749474804F83F
:102A3000029004F803904A4601232160C4F8180468
:102A40004FF480614248C4F81490A4F80490A4F8AC
:102A5000069084F80A9004F0ABF9012008F11802FE
:102A6000C8F800704B46494688F80890C8F80C90A2
:102A700088F80900C8F81020474600E03A6942F893
:102A8000231098F80920334801339A42F6DC326863
:102A9000264B0AB943E01A465369002BFBD1C2F812
:102AA0001480DFF8C4902C4B2C4FC8F8003000265F
:102AB000002348460022C8F81460A8F80460A8F86B
:102AC000066088F80A60C8E90823C9F80050C9F808
:102AD000044089F80860C8F8286089F80960C9F8D6
:102AE0000C6089F8106001F00BFD1D4A1D49484635
:102AF00004F03AFA38463E7287E820017E72FE60A2
:102B00003E7401F0FDFC3846154A164904F02CFAD3
:102B100003B0BDE8F08335604FE718607DE71860CB
:102B2000BFE700BF18BDFF1F9097FF1FE0BCFF1F4E
:102B3000C4A1FF1F44A2FF1F2CA2FF1F408C000056
:102B400048A2FF1F849600006C8E00007C8E00005F
:102B50008CB6FF1FE8B8FF1F788E000040A1FF1F52
:102B60002097FF1F910400002CA1FF1FF8B5002142
:102B7000054601F0B9FC002800F0D08041F23C434A
:102B8000EB5C072B00F2CA80DFE803F0C9D0D7DE88
:102B9000E5ECF304D5F81C74C5F8380405F5876432
:102BA0003B1D224607F5827705F23C4133F8026B64
:102BB00042F8046F9F42F9D1D5F8207405F5C76239
:102BC0003B1D07F5827733F8026B42F8046F9F4292
:102BD000F9D1D5F8247405F638023B1D07F5827744
:102BE00033F8026B42F8046F9F42F9D1D5F828748C
:102BF00005F638223B1D07F5827733F8026B42F861
:102C0000046F9F42F9D1D5F82C7405F638423B1D6C
:102C100007F5827733F8026B42F8046F9F42F9D1CF
:102C2000D5F8307405F638623B1D07F5827733F826
:102C3000026B42F8046F9F42F9D1D5F8347405F560
:102C400081523B1D183207F5827733F8026B42F848
:102C5000046F9F42F9D105F59152031D183200F51A
:102C6000827033F8026B42F8046F8342F9D1D5F8D1
:102C7000180480B105F5886200F5006732F9043C5C
:102C800030F9026B03FB06F3DB13874222F8043CA6
:102C900002F10402F2D105F5A2500430384E04F0DE
:102CA00069F805F2164705F1160054F8041F21FBD8
:102CB00001F1B1FA81F336F81320B1FBF2F31A44B3
:102CC0005308B1FBF3F10B445B0820F8023FB84214
:102CD000EBD141F23D430122EA54D5F81C0401F046
:102CE000BFFBD5F8200401F0BBFBD5F8240401F0AC
:102CF000B7FBD5F8280401F0B3FB41F23C430422B2
:102D0000EA5405F586610EC9D5F82C04C5F81C04F3
:102D1000C5F82014C5F82424C5F82834F8BD41F2BC
:102D20003C430122C5F81C04EA54F8BD41F23C437F
:102D30000222C5F82004EA54F8BD41F23C430322C4
:102D4000C5F82404EA54F8BD41F23C430422C5F816
:102D50002804EA54F8BD41F23C430522C5F82C048E
:102D6000EA54F8BD41F23C430622C5F83004EA5467
:102D7000F8BD41F23C430722C5F83404EA54F8BDDB
:102D8000889600002DE9F0410021804601F0ACFB5F
:102D9000F8B1D8E90823011D00F5827E0F684E685E
:102DA0008D68103151F8044CC7FBC723C6FBC623FE
:102DB000C5FBC523C4FBC4238E45EFD8D8F8281023
:102DC0000131C8E90823C8F82810BDE8F04101F036
:102DD00047BBBDE8F08100BFF8B572B600260027FA
:102DE0000023D0E90845826A8362C0E9086762B6B9
:102DF000D2012046294605F0ABF804F049FE04F064
:102E0000B9F8024904F036FFF8BD00BF00FEFF46E6
:102E10001B4A1C4B11681C48096970B4994212790D
:102E2000027009D2194A127832B3194A4FF0804120
:102E3000116003F5807402E01C46A3F58073154A07
:102E4000154912680D68AAB1A5B1144E3088402802
:102E500010D841000A444030294402320231308007
:102E600033F9040B22F8020F9C4233F9020C21F8CB
:102E7000020FF5D870BC704703F58074DFE700BF20
:102E800004BBFF1F308FFF1F1F800040FEBAFF1FD3
:102E900008E200E00CBBFF1F00BBFF1FFCBAFF1FD6
:102EA000F8B5064601F088FA0446E8B101F084FA64
:102EB000054600283AD072B61F4B1A887F2A19D8C7
:102EC000002C31D01D490A6842B162B6204601F09B
:102ED000C7FA2846BDE8F84001F0C2BA18480C60AD
:102EE0001A80056062B6F8BD054672B6124B1A88A4
:102EF0007F2AE5D9114A12491768146000220C682C
:102F00001A800D6062B63946304601F0D3FA384671
:102F100001F0A6FA30462146012201F0CBFA204604
:102F2000BDE8F84001F09CBA62B6F8BD204601F059
:102F300097FA2C46BFE700BFFCBAFF1F0CBBFF1F70
:102F400000BBFF1F10B5044601F00AFC204610BD6F
:102F5000F8B5284C284E2046012101F09DFB00F0D9
:102F60006BF8264B264A27484FF480611960236886
:102F700000211A6099802279186102F1804202F5DD
:102F8000043240F20110D8809E614FF48075022017
:102F900006278E26DD82D960DD8398609F83988224
:102FA0001170167001F01EFB1749184B2279184F4B
:102FB00008701A7039682279164C174D174E41F077
:102FC000124141F00101531139609B00206803F167
:102FD000604302F1100703F5614302F01F02012173
:102FE00040F0104001FA02F2206045F827601A60B4
:102FF000F8BD00BF04BBFF1F00FEFFFF14B004407C
:10300000A0F00240308EFF1FFEBAFF1F1B80004061
:1030100080F0024000F002400092FF1F112E0000DD
:10302000024A0349034803F09FBF00BF2097FF1FD8
:10303000452F000004BBFF1F284B29491A68294867
:1030400042F400421A600A6842F002020A601A68FA
:1030500042F002021A600368002B3DDB224B1B6822
:10306000002B39DB214A4FF0864313601368002B95
:10307000FCDBF0B51E4C1F48DFF8ACE01E491F4BCF
:103080001F4A204F204E214D47F2320CC4F800C099
:10309000002404600120CEF80000DFF890E0C1F8C1
:1030A00000E04FF480311960194B1360DFF880E0C5
:1030B000184A3A60346028601748CEF80000174C70
:1030C000B9671748174946F8503C4FF4C0632A6166
:1030D000236003600B60F0BD704700BF3C8004407C
:1030E0004080044000F0024080F0024000F10240C5
:1030F00004F1024060F0024008F002400CF002408F
:1031000010F0024014F00240E0F0024084F002406F
:103110001B0F0100000F0F0F0300004708B0044011
:103120000CB0044018B0044004F002400300000753
:1031300088F00240024A0349034803F015BF00BF6C
:103140002097FF1F452F000010BBFF1F024BC9B285
:1031500000225970DA70704718BBFF1FF0B572B6C5
:10316000174A184D1368184C18491948DFF874C0ED
:10317000DFF874E0174E184F43F004031360042384
:103180002B70012323700E220B7000211E238CF85C
:103190000010124D03708EF8001032700326397043
:1031A0000222667105342A602478037062B60C4BE3
:1031B0001A7019715878BDE8F04001F017BD00BFD2
:1031C000348004400A2006400020064001200640CA
:1031D00007200640092006400420064008E100E0E0
:1031E00018BBFF1F0620064008200640024B0221A4
:1031F000002219701A71704718BBFF1F2DE9F047A4
:103200004F69052F41DD0C69214DDFF88C8004EBFF
:10321000870789460C3411E0304604F077FC0146FC
:10322000504604F011FE0434002814BF0223012389
:1032300008FB05F5BC4285EA03051BD054F808AC31
:10324000206804F00BFC0646504604F007FC1149C8
:10325000824604F05BFC0146304604F0F5FD0D4962
:103260000028D9D00434002308FB05F5BC4285EAC8
:103270000305E3D12022FF23C9F80850C9F80C2028
:1032800089F800300120BDE8F0870020BDE8F08714
:10329000C59D1C81CDCC4C3F9301000170B5344AD3
:1032A0000A61A2F10C052C794C6195F8A04112F845
:1032B0000C2C8C61052A01D0002070BD06460C46FE
:1032C00000F012FA08B1012070BD2146304600F02E
:1032D000AFFC0028F7D12146304600F03FFC002823
:1032E000F1D12146304600F0ABF90028EBD1214660
:1032F000304600F0EBFA0028E5D12146304600F0D8
:1033000047FB0028DFD12146304600F04FFA002865
:10331000D9D12146304600F041F90028D3D12146C9
:10332000304600F0C9F80028CDD12146304600F0E3
:10333000B3FB0028C7D12146304600F0DBFC002853
:10334000C1D12146304600F015F80028BBD12146F6
:10335000304600F06BF80028B5D121463046FFF723
:103360004DFF0028AFD102222A70287170BD00BF26
:1033700024BBFF1F2DE9F041DFF8AC8098F8043042
:10338000572B02D80020BDE8F0810B690D46586824
:1033900042F2602100F03AFD0028F3D02B6941F29F
:1033A0009411986800F05CFD0028EBD098F8043088
:1033B000212B36DD1E261D24002709E043F00107DE
:1033C00098F804300234043BA34206F102061DDDE6
:1033D0002B694FF4FA7153F8240000F017FD4FF4F5
:1033E00016710028CED02B6953F8260000F038FD66
:1033F0007B000028E2D12B6940F2A46153F826003B
:1034000000F02EFD08B17F00DAE73446013C64107D
:10341000292CEC60B6DD0923AF602B700120BDE8DC
:10342000F0810E23EB60ADE718BBFF1FF8B5214B11
:103430001B79202B01D00020F8BD0B690C46586881
:103440004FF4967100F0E2FC0028F4D0236940F2BA
:10345000EE21986800F004FD0028ECD00C25002631
:1034600004E043F0010608357C2D1BD023694FF49E
:103470009671585900F0CAFC2F1D4FF4E1610028E5
:10348000D9D02369D85900F0EBFC73000028E8D1AB
:10349000236940F2EE21D85900F0E2FC0028CAD09E
:1034A0007600E0E70E220F23A660E2602370012081
:1034B000F8BD00BF18BBFF1FF8B5374D2B79222B85
:1034C0000C463AD023694FF4FA51586800F09EFC3C
:1034D00010B12B79202B01D80020F8BD23694FF4BF
:1034E0007A61986800F0BCFC0028F5D0102603250E
:1034F000002706E043F001070235232D06F10806F8
:1035000039D023694FF4167153F8250000F07EFC82
:103510004FF4C8610028DFD02369985900F0A0FC5F
:103520007B000028E6D1236940F22621985900F05B
:1035300097FC0028D0D07F00DEE70B694FF41671AE
:10354000586800F063FC0028BCD02B79226903F195
:103550008043013B4FF4167152F8230000F056FCF3
:103560000028AFD000214FF0FF320623E160A260B7
:1035700023700120F8BD23694FF41671D3F88C0035
:1035800000F044FC0028A7D010220623A760E260C8
:1035900023700120F8BD00BF18BBFF1FF8B5274BF3
:1035A0001B79382B01D80020F8BD0B690C465868F0
:1035B0004FF4FA5100F02AFC0028F4D023694FF4AC
:1035C0007A61986800F04CFC0028ECD010260325A6
:1035D000002706E043F0010702353B2D06F10806FF
:1035E0001BD023694FF4167153F8250000F00EFC30
:1035F0004FF4C8610028D6D02369985900F030FCF8
:103600007B000028E6D1236940F22621985900F07A
:1036100027FC0028C7D07F00DEE723694FF416712E
:10362000D3F8EC0000F0F2FB0028BCD01C220A23E7
:10363000A760E26023700120F8BD00BF18BBFF1F28
:103640002DE9F041DFF89C8098F80430212B02D856
:103650000020BDE8F0810B690E4658684FF4AF7149
:1036600000F0D4FB0028F3D098F80430032B34DDAD
:103670000324022500270FE043F0010733694FF4CC
:10368000AF7153F8240000F0EBFB0235D0B198F88D
:1036900004300234A34214DD336940F29E7153F8C2
:1036A000250000F0B3FB7B000028E5D1336940F230
:1036B000EE2153F8250000F0A9FB0028C8D07F00B8
:1036C000DCE72C46013C64100F2CF46005DD0C2374
:1036D000B76033700120BDE8F0810020F060BDE8E4
:1036E000F08100BF18BBFF1FF8B50D4642F228312C
:1036F0002B69586800F08AFB30B12B4C2379042BDE
:1037000031D02379432B01D80020F8BD2B6941F239
:103710009411986800F0A4FB0028F5D00C24002632
:1037200005E043F001060834B4F5867F34D02B69F8
:103730004FF40C71185900F069FB271D40F29A6193
:103740000028E1D02B69D85900F08AFB73000028CB
:10375000E7D12B694FF40C71D85900F081FB002898
:10376000D2D07600DFE72B6940F6CA01986800F0F6
:1037700077FB0028C5D02B694FF40C71D86800F096
:1037800045FB0028BDD000214FF0FF320323E96044
:10379000AA602B700120F8BD20220323AE60EA60EE
:1037A0002B700120F8BD00BF18BBFF1F2DE9F041B1
:1037B0000D4640F6AE512B69586800F027FB10B952
:1037C0000020BDE8F0812B6940F2D661986800F0D6
:1037D0001DFB0028F4D00C240026002706E042F050
:1037E00001061F460834B4F5C67F21D02B694FF47B
:1037F000FB71185900F00AFB04F1040840F2DC41A7
:103800000028DDD02B6953F8080000F029FBB2191D
:1038100047EB07030028E2D12B694FF4C87153F836
:10382000080000F01DFB0028CAD0B6197F41D9E777
:1038300005223023AE606F602A70EB600120BDE886
:10384000F08100BF2DE9F04148691468844221DA13
:1038500015460A691E4604F0010352F82480069AB0
:10386000002B14BF64246FF06304144421464046C7
:1038700083F0010700F0A0FA98B101223368013308
:103880009A420ADC002333602B68013338462B60F0
:10389000BDE8F0810120BDE8F08133603846BDE825
:1038A000F081069B1C442146404600F085FA08B191
:1038B0000222E3E7069B4046191900F07DFA08B1A1
:1038C0000322DBE74FF0FF30BDE8F0812DE9F04740
:1038D0002E4E337984B0002401220C2B02940392E3
:1038E00003D8002004B0BDE8F08740F2793702AB7E
:1038F00003AA00970D460446FFF7A4FF0028F0D165
:10390000009702AB03AA29462046FFF79BFF012838
:10391000E7D1009702AB03AA29462046FFF792FFA2
:103920000028DED13279039B9A42804682460DDC24
:1039300025E0B9F1000FD4D10128D2D14FEA4808CF
:103940003279039B9A420AF1010A18DD02AB03AAFD
:10395000294600972046FFF775FF0097814602AB86
:1039600003AA29462046FFF76DFFB9F1010FE0D108
:103970004FEA48080028B4D148F00108E0E70120E8
:10398000C5F80CA0C5F808802870ABE718BBFF1F6E
:103990002DE9F0474B69002284B0934202920ADD80
:1039A0000B6905460C46586840F66A2102230393CA
:1039B00000F02CFA18B9002004B0BDE8F087039B92
:1039C0002269591C039152F8230040F2793100F02A
:1039D00047FA0028EFD04FF4DE7602AB03AA009638
:1039E00021462846FFF72EFF07460028E3D1009620
:1039F00002AB03AA21462846FFF724FF0128DAD1AB
:103A0000039A63699A42B84621DA02AB03AA2146B7
:103A100000962846FFF716FFB8F1030F814600967F
:103A200002AB03AA2146284620D0FFF70BFF8246AF
:103A3000B9F1000F12D1BAF1010FBCD17F0047F0EC
:103A400001076269039B9A4208F10108DDDC022349
:103A5000C4F80C80A76023700120ADE7B9F1010F15
:103A6000A9D1BAF1000FA6D17F00EAE7FFF7EAFE7D
:103A70008145A0D102AB03AA214600962846FFF754
:103A8000E1FE0096824602AB03AA21462846FFF7D4
:103A9000D9FE5045CCD08EE7F8B50D4641F28831BD
:103AA0002B69586800F0B2F930B12B4C2379042B04
:103AB00031D02379432B01D80020F8BD2B6941F286
:103AC0008831986800F0CCF90028F5D00C24002645
:103AD00005E043F001060834B4F5867F34D02B6945
:103AE0004FF40C71185900F091F9271D4FF4C8617B
:103AF0000028E1D02B69D85900F0B2F973000028F2
:103B0000E7D12B694FF40C71D85900F0A9F90028BE
:103B1000D2D07600DFE72B6940F6CA01986800F042
:103B20009FF90028C5D02B694FF40C71D86800F0BC
:103B30006DF90028BDD000214FF0FF320723E96066
:103B4000AA602B700120F8BD20220723AE60EA6036
:103B50002B700120F8BD00BF18BBFF1F2DE9F041FD
:103B6000324E3379192B15D90B691A68B2F5487F93
:103B700009D200204FF0FF320B23C8608A600B701F
:103B80000120BDE8F0810D46586840F6AC5100F0C8
:103B90003DF910B90020BDE8F0812B6940F6AC5129
:103BA000986800F033F90028F4D03379042B38DD1D
:103BB000042403274FF0000807E043F0010833799D
:103BC00002349C4207F102071EDA2B6940F2B6313B
:103BD00053F8270000F044F94FF41661A8B12B699F
:103BE00053F8240000F012F94FEA48030028E4D10A
:103BF0002B694FF42F7153F8240000F007F90028C7
:103C0000C8D04FEA4808DAE73C46013C64100B2C68
:103C1000EC6006DD0B23C5F808802B700120BDE8A1
:103C2000F0810020E860BDE8F08100BF18BBFF1FF5
:103C30002DE9F041DFF8B88098F80430192B15D938
:103C40000B691A68B2F5FA7F09D200204FF0FF32F3
:103C50000B23C8608A600B700120BDE8F0810D461F
:103C600058684FF4166100F0D1F810B90020BDE893
:103C7000F08198F80430032B35DD03240226002759
:103C800008E043F0010798F8043002349C4206F142
:103C900002061CDA2B694FF4167153F8260000F067
:103CA000DFF84FF4966198B12B6953F8240000F0C7
:103CB000ADF87B000028E4D12B694FF4167153F85E
:103CC000240000F0A3F80028D0D07F00DBE73446C2
:103CD000013C64100B2CEC6005DD0423AF602B70FD
:103CE0000120BDE8F0810020E860BDE8F08100BF60
:103CF00018BBFF1FF8B52F4B1B79452B01D80020AF
:103D0000F8BD0B690C46586840F2EE2100F07EF8D1
:103D10000028F4D0236940F2EE21986800F0A0F862
:103D20000028ECD0236940F62231D86800F06EF804
:103D30000028E4D0236940F62231186900F090F899
:103D40000028DCD018260525002706E043F00107EF
:103D50000235452D06F108061BD0236940F2EE21FD
:103D600053F8250000F052F840F666010028C6D04E
:103D70002369985900F074F87B000028E6D1236984
:103D800040F2EE21985900F06BF80028B7D07F0080
:103D9000DEE7236940F2EE21D3F8140100F036F893
:103DA0000028ACD020220823A760E2602370012005
:103DB000F8BD00BF18BBFF1F38B50446084603F026
:103DC00051FE4FF07D51054603F0A0FE0D4903F072
:103DD00051FF04F077F8A04211DC28460A4903F0AD
:103DE00095FE084903F046FF4FF07E5103F086FD33
:103DF00004F068F88442CCBF0020012038BD0020C8
:103E000038BD00BF000048420000A03F38B504465E
:103E100001F1640003F026FE4FF07D51054603F0EA
:103E200075FE0D4903F026FF04F04CF8A04211DCAA
:103E300028460A4903F06AFE074903F01BFF4FF0CA
:103E40007E5103F05BFD04F03DF88442CCBF0020BE
:103E5000012038BD002038BD000048420000A03FCE
:103E600038B50446A1F1640003F0FCFD4FF07D512C
:103E7000054603F04BFE0D4903F0FCFE04F022F86A
:103E8000A04211DC28460A4903F040FE074903F02E
:103E9000F1FE4FF07E5103F031FD04F013F884423F
:103EA000CCBF0020012038BD002038BD00004842B2
:103EB0000000A03F10B54D4A4D4B4E4C12781E22CB
:103EC0001A70607800F084FEA3680133A360237940
:103ED000642B84BF062323702378023B042B09D86C
:103EE000DFE803F040471C5B03000122052384F850
:103EF000A0212370E3781BB318BBA3783D4A002BA5
:103F00005CD13D4A3D4B202111601B6813F0050F29
:103F100016D13B4B40F203121A6010BD002840D16D
:103F20002379DBB25A1CD2B20233227104EB830331
:103F3000A2685A600323A0602370E378002BDCD1D1
:103F400010BDA3782B4A002B32D12E4A2B4B2021B7
:103F500011601B6813F0050FF2D1294B4FF48072EA
:103F60001A6010BDA8B9A268224B632A2CD89860A9
:103F7000E3E70128BED12379DBB25A1CD2B2023367
:103F8000227104EB8303A2685A6000220423A2601A
:103F90002370E378002BD4D110BD0028F9D1A060A4
:103FA000CBE7A368134A642BF3D905231370F0E71A
:103FB00090780021BDE8104000F004BE9078012107
:103FC000BDE8104000F0FEBD83F8A00118711A7919
:103FD000D2B2511CC9B20232197103EB8202996844
:103FE0005160032298601A70A7E700BF05200640C1
:103FF0000720064018BBFF1F84F00F4094F00F40CD
:1040000014B0044088F00F40F8B51E1E0368044643
:10401000CCBF02EB420500250F469B68D8BF164671
:1040200098477A19236862605B690A4A666193421D
:1040300001D12046F8BD204698470028F9D0064A0D
:10404000064B516893FBF0F0884238BF0846506039
:104050002046F8BD71040000BCBCFF1F40420F00A9
:1040600070B40F4C2268531C8A4283B0236013DB68
:104070000C4D0D4A2968019101992D68009516682B
:10408000009D15604FF47A720025891B02FB03F333
:104090002560B3FBF1F3438003B070BC704700BFF1
:1040A000D0BCFF1F18BDFF1FD8BCFF1F2DE9F04F6C
:1040B00043682D4C83B006468946002B4BD100F057
:1040C0009BFDF36820601BB14846B1689847814664
:1040D000264B1C680025002C36D07388A77C6168AD
:1040E0006269632B236898BFA574D3F804808DF8A8
:1040F00004508DF805508DF80650B9F1000F1CD012
:1041000004F10B030DF1040E04F10E0C13F801BFC2
:10411000BBF1000F0DD093F803A00AF101000BFBD7
:104120000000BAF1000F04D009FB00F0000C8EF87B
:10413000000063450EF1010EE8D1204601ABC047F7
:10414000A774A468002CC8D130461921FFF788FF56
:1041500003B0BDE8F08F00F04FFD22687368801A4D
:104160009842AAD3ABE700BFD4BCFF1FCCBCFF1F53
:1041700000207047044B0022FF204FF0FF311870E1
:1041800099605A80DA607047BCBCFF1F00290BDDC4
:1041900001EB410101441378037053784370937825
:1041A000837003308842F6D1704700BF70B582B08B
:1041B000FF25F02400298DF804208DF806508DF895
:1041C000054010DD01EB41011E460446451821461D
:1041D00001A800F00BF89DF8042003343244AC42EF
:1041E0008DF80420F3D102B070BD00BFF0B40478A4
:1041F00046788278E00000F0F80000EB800303EBE3
:10420000031303442506C3F307235FD404F04005DA
:1042100005F0FF0704F02004002D46D104F0FF0054
:10422000002C6CD05533DDB2AB243B46FF2E1CD0A6
:10423000002E79D01CB106FB0444C4F307241DB141
:1042400006FB0555C5F307251BB106FB0333C3F376
:104250000723F043C0B200FB0000C0F30720044472
:1042600005440344E4B2EDB2DBB2FF2A18D012FBDE
:1042700002F0003218BF012202EB102212F0FF02FE
:1042800056D01CB102FB0444C4F307241DB102FB49
:104290000555C5F307251BB102FB0333C3F3072301
:1042A0000C704D708B70F0BC704704F0FF075CBB66
:1042B00000EBC00400EB440000EBC0000412563BCE
:1042C000C4F1AB04DDB2E4B23B46AFE704F0400713
:1042D00007F0FF05E7B904F0200707F0FF04002FFF
:1042E00036D100EBC00300EB430000EBC000C0F38D
:1042F0000720C0F1AB055530EDB2C3B296E7DC4301
:10430000E4B21D46034691E70024DD43EDB28DE79C
:1043100004F0200404F0FF0594B903F15504E4B25D
:10432000C3F1AB03DBB281E7FF231D461C469CE7CC
:104330001546144613460C704D708B70F0BC7047D8
:10434000A3F15604E4B20025C3F15503DBB26DE7D7
:10435000D8431C46C3B269E7C029F0B428BFC021C6
:1043600072B6124B124E134A18600023138033604A
:104370007360B360F36033617361012799B15D09C4
:1043800003F01F0456F8252007FA04F401332243F2
:104390008B4246F82520F2D10023438001338B4223
:1043A00000F58270F9D162B6F0BC7047E8BCFF1F1F
:1043B000F0BCFF1F0ABDFF1FF0B472B6234F244E9E
:1043C0003C8806F1180306EB8400984212D256F896
:1043D000241099B9021D06F11B05631CAD1A03EBED
:1043E000950503E052F8041B41B90133AB421C466A
:1043F0001046F7D162B60020F0BC7047B1FA81F3E5
:104400004FF00042DA4021EA0201016001B90134B3
:1044100010493C800A88013294B20C8062B6801B3D
:104420008010C3EB401000EB801083000A480B495A
:10443000006803F5FB531C330125C5540D88AA42BF
:10444000184488BF0C80F0BC704700BF0ABDFF1F36
:10445000F0BCFF1F0CBDFF1FE8BCFF1FE4BCFF1F2B
:10446000428872B60378012B03D9013B037062B610
:104470007047531170B40C4C0C4D54F823102E8817
:10448000D2434FF0004002F01F0220FA02F2114323
:10449000074A44F82310B34238BF2B801388013BEE
:1044A000138062B670BC7047F0BCFF1F0ABDFF1FCF
:1044B0000CBDFF1FC368B3B130B401E0DB688BB142
:1044C000187A9042FAD158685C7A006950F8245002
:1044D000002DF3D140F82410087801300870DB6813
:1044E000002BEDD130BC7047437A8B4206D903696B
:1044F000002253F8210043F8212070470020704724
:10450000037C23BB4368427A5B7A9A421FD830B45B
:1045100072B60468E3682BB3DA6832B119688C426A
:1045200016D01346DA68002AF8D1D8600023C36099
:10453000A37A0133A37202684168012313728A7A55
:104540001A448A7242681372037462B630BC7047B0
:104550005D6841688D42E4D1198903899942F4D09C
:104560001346DFE7E060E1E7037C10B5002B32D0B3
:104570004368427A5B7A9A422DD872B60268D36851
:1045800043B3984202D129E0984202D0DB68002B65
:10459000FAD14368417A1B69044653F8210048B1B7
:1045A000FFF75EFF72B66368627A1B69002143F809
:1045B00022102268937A013B937223689A7A02B997
:1045C0001A726268937A013B937263689A7A1AB19D
:1045D0000023237462B610BD1A72F9E7C368D36072
:1045E000D7E700BF084B1A7862B930B407480849CA
:1045F000D02505704FF0804401220C6010461A70DF
:1046000030BC704700207047ECBCFF1F5EE400E048
:1046100008E100E01A491B4A1B48F8B50B681B4D1E
:10462000046843F080730B60136843F00103136068
:104630002E6814B915E064699CB1237A002BFAD076
:1046400023682F681B68204698472B68E188DB1B8E
:104650001B099AB28B42A28088BFE2806469002C59
:10466000EBD10A4B0A4A1B6810880A4C9B1B1B099A
:1046700099B28342218001D91180F8BDF8BD00BFF5
:10468000FCED00E0001000E0E0BCFF1F041000E0C3
:1046900008BDFF1F0EBDFF1FF0B572B699B90268C5
:1046A0008AB103790F2B0ED8274C218841FA03F5E4
:1046B000ED070AD503F1007303F59063B2EB431FD6
:1046C00003D162B6F0BD204C2188002341FA03F2E9
:1046D00012F0010207D00133102BF7D162B600228D
:1046E00003710260F0BD01259D402943218062B61F
:1046F000164E174D174FDFF864E0D9B201713468D8
:1047000044F0020434602C6844F002042C60A6F5E6
:1047100080268224A5F5802503F100733C6003F513
:104720009063223E243D0C4C8EF800105B013170EA
:104730002970217003601A605A609A60DA601A6109
:104740005A619A61DA61F0BD10BDFF1F40800440DC
:104750003C800440008000401F8000401A800040E0
:1047600003790F2B11D8094A10B4137072B6084997
:1047700004790A880123A34022EA03030B8062B66E
:104780001022002310BC0271036070471A800040A1
:1047900010BDFF1F00B5064A036812885B6883B02E
:1047A00001A9ADF804200222984703B05DF804FB8C
:1047B000CC960000F0B507468BB0002A33D0012A12
:1047C00008BF0A2251B3212400E0F4B2B1FBF2F594
:1047D00002FB1511C8B2092900F1300198BFC8B217
:1047E0000AA988BF3730214488BFC0B201F8240C21
:1047F000661E2946002DE8D133B1013CE4B20AAB74
:1048000023442D2203F8242C3B6801AA11195B686C
:104810003846C4F1220298470BB0F0BD30228DF823
:1048200025202124E8E70368C9B21B6898470BB02C
:10483000F0BD00BF0029BABF49422D2300230A2240
:10484000FFF7B8BFF0B5164D2A680AB31549164BE5
:10485000DFF85CE082FB016781FB0214D617D119F7
:104860001444C6EB2141C6EB244403FB04F40EFBC5
:10487000112244F2A71303FB0243002B02DA03F1D7
:104880000043013BB3FBF0F22B6000FB1230F0BDA4
:10489000064B2B60B3FBF0F200FB1230F0BD00BF03
:1048A00014BDFF1F5F0B4E83ECF4FFFF42CE0C1FC5
:1048B0001DF3010008B1FFF7C5BF7047884206DA53
:1048C00010B50446081AFFF7BDFF204410BD70471D
:1048D000F0B51B4B1B4E596818689A68DB6885B0A9
:1048E0006C460FC4337899071DD5174A174C1378B7
:1048F000174913F0700318BF1370164A164B802720
:10490000177000263320032226706D4608701A7037
:1049100072B6043C45F001052046A84762B62378EC
:1049200013F0700309D10D4B064901E0013B02D0A1
:104930000A78D207FAD505B0F0BD237005B0F0BDF6
:10494000D096000001000240000002400400024036
:104950000B000240070002400A000240410D030024
:10496000B0F5006F0AD210B5094B1B78DB0704467F
:1049700006D504F1A0500078C0B210BD00207047E9
:10498000FFF7A6FF04F1A0500078C0B210BD00BF31
:1049900001000240B0F5006F17D238B50F4B1B78FD
:1049A000DA070D46044611D504F1A0500378AB4256
:1049B0000AD00B4A137813F0700318BF1370074A1C
:1049C00005701378DB07FCD538BD7047FFF780FF13
:1049D00004F1A0500378AB42EBD1F5E701000240AF
:1049E0000000024008B5FCF7C9FEFDF757FA01F0D8
:1049F0005BFAFAE708B5104C08E0236859050DD4B6
:104A000023681A050FD42368DB0411D423685803E4
:104A1000F3D500F0AFFA23685905F1D501F010FC89
:104A200023681A05EFD501F0A1FC2368DB04EDD55E
:104A300001F032FDEAE700BF3480044008B5FFF71B
:104A4000D9FF00BF014B10221A807047002005409B
:104A5000704700BF094908B50B6830B16A46184471
:104A6000A2F58052904202D20860184608BD03F0B9
:104A700039FC0C2303604FF0FF3008BDB497FF1FD3
:104A8000FEE700BF0078B0FA80F04009704700BF31
:104A900001230370704700BFF0B44D1E2E46002462
:104AA00000E00134B0FBF2F302FB1300092800F12F
:104AB00030078ABF3730F8B2C0B206F8010F184687
:104AC000002BEED10A1953704CB1107815F8016F14
:104AD00028700133E01A834202F80169F5DB0846C9
:104AE000F0BC704710B40F4B53F8302092F880425E
:104AF0002CB1012369B182F8803010BC704703EB00
:104B0000C0035B681A6841B922F002021A6010BC47
:104B1000704782F8003110BC704742F003021A60FF
:104B200010BC7047E09600001C4A02EBC00301294C
:104B30005B6811D004291BD052F83000002280F8A5
:104B4000802229B1022920D0032922D01A6070477F
:104B50004FF480721A60704752F830004FF4A2721E
:104B600080F880121A601A6822F020021A607047DA
:104B700052F830104FF4A272012081F880021A60BE
:104B80001A6842F020021A60704740F203121A605D
:104B900070474FF481721A60704700BFE0960000C2
:104BA00030B4054B054D064C002210211A602A60D6
:104BB0002060196030BC704714D0034004D003401B
:104BC00000D00340212801D8FFF78CBF704700BFF9
:104BD000212806D8044B53F8303093F80002C0B2B5
:104BE00070470020704700BFE0960000212801D8E0
:104BF000FFF79ABF704700BF72B60D490D4B0E4AC2
:104C00001B680868126862B6520102D5322B88BF51
:104C100001300A49C3F58C334FF47A7203F23F1323
:104C2000A1FB031302FB00F000EB1310704700BF61
:104C300018BDFF1F18E000E004ED00E0398EE338F6
:104C40002DE9F843054672B6214F224B224A1B68D4
:104C50003C68126862B6520102D5322B88BF01341B
:104C6000A5B3C3F58C331D4EDFF86890DFF868807C
:104C700003F23F134FF47A72A6FB031302FB04F412
:104C800004EB131472B6D9F800103A68D8F800E0B3
:104C900062B6C1F58C3303F23F13A6FB03031EF08B
:104CA000806FC4EB13134FF47A7002D0322988BF9F
:104CB000013200FB0233B3F57A7F04D3013D05D006
:104CC00004F57A74DEE701F0EFF8DBE7BDE8F8837E
:104CD00018BDFF1F18E000E004ED00E0398EE33856
:104CE000F8B52D4B2D49DFF8D0E0DFF8D0C02C4EC1
:104CF0002C4D2D4C2D4A2E4F4FF4000018604FF0D4
:104D0000807018604FF0007018604FF0806018607D
:104D10004FF00060186000200860282348F6FF71FB
:104D2000CCF80010CEF80030336013602B602360A5
:104D30003B60B3629362092245F8242CC4F8D80F73
:104D400005F57F65C7F8D41F07F5FF2707F5FA6754
:104D5000C6F8F83F2B6006F5FF26C4F8D42F05F5FA
:104D6000FD2504F5FF24386006F2F4761148316021
:104D700005F5FF6504F5FD642B602360026001F01A
:104D8000DFF91920FFF75CFF00F05CFE40F2131022
:104D9000BDE8F840FFF754BF08E100E0048003409D
:104DA00014800340248003402C8003401C80034077
:104DB0003480034000800B400C8003400880034097
:104DC000431E032B14D872B60A4951F8230068B168
:104DD00070B4094C058834F81320466841F8236004
:104DE000521B24F8132062B670BC704762B670473D
:104DF0000020704774BDFF1FF8BFFF1F0138032854
:104E00000BD872B6074B53F8203043B100205B68D3
:104E10000130002BFBD162B6704700207047184666
:104E2000F9E700BFC8BDFF1F30B472B62B4A137834
:104E30001D0706D52A4B196A002936D0996A002920
:104E400041D053781C0706D5254B196C00293ED05C
:104E5000996C002939D09378190705D5204B196E24
:104E6000002936D0996E89B1D3781B0707D51C4B22
:104E7000D3F880207AB3D3F8882011213AB162B6F2
:104E8000184B00221A7030BC00F07EBE0D21154C6C
:104E9000154D227843F8315003EBC1030830013A35
:104EA0005860227062B630BC704704220D4C0F4D22
:104EB000217843F8325003EBC20308304A1E586091
:104EC000227062B6EFE70521E1E70921DFE708225A
:104ED000ECE70C22EAE71022E8E700BF1898000090
:104EE0000080FF1FF1BDFF1FC80040008800400088
:104EF000431E032B1DD81B4A400140F0100030B464
:104F0000104472B6184CE25C032A1BD8DFE802F0AA
:104F10000212151703220D88E25410F0080F14BF77
:104F2000C823882343EA054308310360416062B621
:104F300030BC704708300222EDE70522EBE708306D
:104F40000422E8E7094A52F8230038B1084A52F827
:104F50002300416042F8231062B6E9E742F82310CB
:104F6000034AF7E70080FF1F00BEFF1FC8BDFF1FF9
:104F7000D8BDFF1F2DE9F04FDFF80CB3DFF80CA30D
:104F800087B044E0AB4F4FEA930807EBC809013EF6
:104F9000D9F8042003F00803F6B2A2F1080003F0E8
:104FA000FF04002B40F0028157F838301B0C99B2F7
:104FB00022F8081C002B00F0F0809F4B22F8064CD2
:104FC00042F8044C53F82620002A00F0C5829B4D7D
:104FD00055F8263058609A4C45F8260034F81630BB
:104FE000194424F8161000F0AFFD002800F0AD823F
:104FF000944A954B19F0080F00F1080018BF1346AA
:10500000C9F8040047F8383008238BF800309BF8C3
:105010000040E4B261071AD58C4B1B78A3B18C49D0
:105020000A7802F0FF0322B1013BDBB20B7003B937
:1050300000BE88490A7802F0FF032AB1013BDBB2C7
:105040000B70002B00F0578204238BF8003004F023
:10505000080303F0FF02002B00F0CC809AF8003028
:10506000DBB21E098ED19C08DFF8C89159F83420B4
:1050700009EBC401C2F38302013A49680C2A00F229
:105080008880DFE802F07C7C868686868686478676
:10509000868607000868704D4A68704F704E286019
:1050A00081B240F28160674B6A604FF0010E0022CE
:1050B000814249F834303A60C9F81020C9F8182004
:1050C00086F800E05B4C00F2E380B1F5D06F80F031
:1050D0004683B1F5817F00F0FC8200F28D82802949
:1050E00000F07783822940F0FA82A98801F07F01DD
:1050F000042900F2F4825B485B4C8900084422706A
:1051000062700278930740F1588484F800E04FF011
:10511000020E42E3514F3A6832B3544B504E544959
:10512000188834780D784028864645F0020828BF54
:105130004FF0400E002C84F001043470CEEB0000E0
:105140000CBF8824C82409EBC80680B285F001058D
:1051500044EA0E447260188049F8384072440D7079
:10516000002800F045813A603B4B1A88B2F5A06FE9
:105170000FD100219A7859703E4B1A7009E0364AD7
:10518000108842F22102904200F037812D4A49F8FE
:105190003420394A0123137036E72A4A2A4B19F082
:1051A000080F18BF134647F838302DE700F0ECFC25
:1051B000324A334952F82630002B00F0D18158682A
:1051C0008C5D42F8260003F10802C9F80420032C84
:1051D00005D8DFE804F02C02292602228A551A8815
:1051E00019F0080F0CBF8823C82343EA024347F88D
:1051F000383009E7E00700F18181210600F1F281F2
:10520000A20706D51F4A204913780220DBB213708B
:105210000870E30602D51C4B10221A7007B0BDE8D7
:10522000F08F04228A55DAE705228A55D7E7032250
:105230008A55D4E70080FF1F74BDFF1F20BDFF1FEC
:10524000F8BFFF1FC800400088004000FCBDFF1FE2
:1052500085BDFF1F04BEFF1FE8BDFF1F1CBDFF1F54
:1052600084BDFF1FC0200740F4BDFF1F30BDFF1FDE
:10527000F0BDFF1F9820074094200740C8BDFF1FC6
:1052800000BEFF1F88200740802007409020074075
:1052900042F22100814200F02A8100F2D880B1F56B
:1052A000086F00F07682B1F5106F40F01882226A24
:1052B000B349A8780870120600F13A83D9F828207B
:1052C000B049130600F10C83D9F83020AD4915061A
:1052D00000F10183D9F83820AA49140600F1F682BA
:1052E000D9F84020A749100600F14A83D9F8482090
:1052F000A449120600F13F83D9F85020A1491306B2
:1053000000F13483D9F858209E49150600F129830D
:10531000D9F860209B49140600F11E83D9F8682053
:105320009849100600F11383D9F8702095491206A8
:1053300000F10883D9F878209249130600F1FD8224
:10534000D9F880208F49150600F13183D9F88820DB
:105350008C49140600F12583D9F89020894910065C
:1053600000F11983D9F898208649120600F10D83BF
:105370008548864A864901908648874D874C049720
:1053800000230596029580460F4616461D46039457
:10539000306828B1446800F0F7FB2046002CF9D1B2
:1053A00000233360029B38681A46002342F82530F8
:1053B00028B1446800F0E8FB2046002CF9D1002217
:1053C0003A60019A98F800301146002241F8042B07
:1053D000039A0191023B4FF0000122F81510032BB4
:1053E00000F22B81DFE813F0700125017001250127
:1053F000BEF1400F18BF0022B5E6694A0D78487823
:10540000157050708D78C8789570D07010680D79CF
:10541000157186284D7989795571917100F09B81BC
:105420006049614E0A78307882F00105002842F028
:1054300002020D700CBF8821C82149F8321009EB17
:10544000C20280F001000021307051609EE642F2FD
:105450002120814240F0CB81544B554C5549A878CE
:105460001D682560CDF804E0087000200290804699
:10547000844604464B490D7845F0020E09EBCE03F5
:105480000393019B002B039B5C600CBF8824C82402
:1054900044EA080385F0010449F83E3032700C708C
:1054A000DFF8E0E0404BDFF8FC80002840F01E8190
:1054B000BCF1400F1BD144F0020C09EBCC03029C61
:1054C000DFF8C0E05C60002A40F02681020442F070
:1054D00088029DF804304EF83C20044433700D706F
:1054E0002346402803D10020334A3B601080334AD2
:1054F000012313704DE600F0B3FCA5E5214B2F48C6
:1055000028491A614FF0020E80F800E02C4F0A7013
:105510002C49196099602C4E2C4D2D4C9A610D210F
:105520003970FF213170DFF8B8E029702270294D01
:10553000294A8EF800109F27012406F8047C5D603C
:105540000470DA6007B0BDE8F08F244A47F83800ED
:1055500013780133137057E543F826000E4D3AE5F2
:105560008B5D032B00F2F08001A252F823F000BF04
:1055700009500000095000002D5600002756000079
:10558000FCBDFF1F0080FF1FD8BDFF1F74BDFF1FA4
:10559000C8BDFF1F00BEFF1F20BDFF1FF8BFFF1FBC
:1055A00000C0FF1FF0BDFF1F84BDFF1F18BDFF1F00
:1055B00008C0FF1F14BEFF1F30BDFF1F942007400F
:1055C000C020074088004000882007408020074016
:1055D0009820074034BDFF1F88BDFF1FF1BDFF1F8E
:1055E0008C200740C149C24B80220D2008701A70E0
:1055F000A2077FF50EAE05E640F20232914240F07E
:10560000EE80A98801F07F01042968D86A88002A01
:1056100065D1B648CDF804E089000844017841F02E
:105620000201017021E701238B55EDE400238B5526
:10563000EAE44FF0010388F800300135042D06F14B
:10564000040607F1040708F101087FF4A1AEA94C94
:10565000A94B2278A94D049F059E002129701A703C
:10566000130700F105816278A549DFF8A0820A706E
:1056700010074FF00001C9F83010C9F8381000F1D8
:10568000E080A049A2780A700021C9F85010C9F83A
:1056900058101107DFF8748200F10181E2789A490D
:1056A0009A4C0A7000211207C9F87010C9F87810D6
:1056B00000F1B08033780193002183F00102C9F832
:1056C0009010C9F89810D0E64FF0000388F8003029
:1056D000B3E7A98801F07F01042940F28D80834A55
:1056E0000F2313708A4A0123137052E540287FF676
:1056F000E2AE44F002040EEBC401029E4E60BAB169
:105700009DF80410834A19703346403888F80050D9
:1057100040334EF83420E7E69DF80430337002043D
:10572000029B0D7042F0C80203444EF83C20D8E6BC
:105730009DF804101970029B774A88F80050403891
:1057400040334EF83420CFE619F0080F0CBF022387
:1057500003238B5558E4714A0F21117060E6704A9B
:105760005468002CBBD06888B5F804E003E00C3224
:105770005468002CB3D013888342F8D15388734502
:10578000F5D1000A03280CBF94F800E0B2F808E055
:1057900003E0644A644C12782270E888704580F017
:1057A0003F8162490D784028844645F0020E28BFAB
:1057B0004FF0400C04EB0C0309EBCE0202930123E3
:1057C0005460CCEB00004FEA0C4800220193C8243F
:1057D0005EE6554C4FF0020E22706270DDE7B1F5C7
:1057E000A06F7FF47CAF0123002201933DE642F2DB
:1057F00021329142F7D072E76A88002A7FF46FAFB6
:105800003A48CDF804E089000844017821F002010B
:1058100001702AE600F098F9002800F0EF800830C7
:105820003D4AC4F88400C4F8802000F08DF90028B7
:1058300000F0DE800830374AC9F88C00C9F88820AB
:1058400038E700F081F9002800F0C0800830324AC3
:10585000C8F84400C8F8402000F076F9002800F0AD
:10586000AF8008302B4AC9F84C00C9F8482008E737
:1058700000F06AF9002800F0CD800830264AC9F807
:105880002400C9F8202000F05FF9002800F0BC8057
:105890000830204AC9F82C00C9F82820E3E600F0B7
:1058A00053F9002800F09E8008301B4AC8F86400B5
:1058B000C8F8602000F048F9002800F08D8008301A
:1058C000144AC9F86C00C9F86820E7E6C86B0838C4
:1058D00000F05AF904E5486B083800F055F9F9E48E
:1058E000C86A083800F050F9EEE400BFC020074055
:1058F0008020074018980000C4200740F1BDFF1F1A
:10590000C8200740CC200740D02007400080FF1F60
:1059100094200740C80040008800400085BDFF1F5C
:105920001C980000FCBDFF1FF4BDFF1FF0BDFF1F52
:10593000606A083800F028F9C0E4C86F083800F041
:1059400023F9FDE4486F083800F01EF9F2E4C86E50
:10595000083800F019F9E7E4486E083800F014F947
:10596000DCE4C86D083800F00FF9D1E4486D083860
:1059700000F00AF9C6E4C86C083800F005F9BBE489
:10598000486C083800F000F9B0E4D1F89C00083801
:1059900000F0FAF8ECE4D1F89400083800F0F4F8DC
:1059A000E0E4D1F88C00083800F0EEF8D4E4D1F847
:1059B0008400083800F0E8F8C8E44FF0020EECE686
:1059C0002A78C9F8480001322A705AE62A78C8F8BD
:1059D000400001322A703FE72A78C9F86800013296
:1059E0002A705BE62A78C8F8600001322A7061E705
:1059F0002A78C9F8880001322A705BE62A78C4F850
:105A0000800001322A7010E72A78C9F82800013294
:105A10002A7028E62A78C9F8200001322A7032E775
:105A2000BEF1400FF44628BF4FF0400C04EB0C03CE
:105A300002930123CCEB0E004FEA0C4800220193A5
:105A400018E500BFF8B500F093FD294B29482A4C12
:105A50002A4F2B4DDFF8BCC0DFF8BCE0294E0022F6
:105A60001A605A609A60DA601A615A619A61DA6162
:105A70001A625A629A62DA621A635A639A63DA6342
:105A80001A645A649A64DA641A655A659A65DA6522
:105A90001A665A669A66DA661A675A679A67DA6702
:105AA000C3F880200168C3F8842041F4802101609C
:105AB000C3F307212170C3F30740134938701B0E4D
:105AC0002B70FF238CF80030104D8EF800301048FA
:105AD0000B700123337084F8642070264FF4007437
